{
  "contractName": "FactorySponsor",
  "abi": [
    {
      "constant": true,
      "inputs": [
        {
          "name": "",
          "type": "uint256"
        }
      ],
      "name": "pendingList",
      "outputs": [
        {
          "name": "name",
          "type": "string"
        },
        {
          "name": "url",
          "type": "string"
        },
        {
          "name": "imageHash",
          "type": "string"
        },
        {
          "name": "duration",
          "type": "uint256"
        },
        {
          "name": "status",
          "type": "uint256"
        },
        {
          "name": "owner",
          "type": "address"
        }
      ],
      "payable": false,
      "stateMutability": "view",
      "type": "function"
    },
    {
      "constant": true,
      "inputs": [
        {
          "name": "",
          "type": "address"
        }
      ],
      "name": "addressToSponsor",
      "outputs": [
        {
          "name": "",
          "type": "address"
        }
      ],
      "payable": false,
      "stateMutability": "view",
      "type": "function"
    },
    {
      "constant": false,
      "inputs": [],
      "name": "renounceOwnership",
      "outputs": [],
      "payable": false,
      "stateMutability": "nonpayable",
      "type": "function"
    },
    {
      "constant": true,
      "inputs": [],
      "name": "getOwner",
      "outputs": [
        {
          "name": "",
          "type": "address"
        }
      ],
      "payable": false,
      "stateMutability": "view",
      "type": "function"
    },
    {
      "constant": true,
      "inputs": [],
      "name": "owner",
      "outputs": [
        {
          "name": "",
          "type": "address"
        }
      ],
      "payable": false,
      "stateMutability": "view",
      "type": "function"
    },
    {
      "constant": true,
      "inputs": [
        {
          "name": "",
          "type": "uint256"
        }
      ],
      "name": "Sponsors",
      "outputs": [
        {
          "name": "",
          "type": "address"
        }
      ],
      "payable": false,
      "stateMutability": "view",
      "type": "function"
    },
    {
      "constant": false,
      "inputs": [
        {
          "name": "newOwner",
          "type": "address"
        }
      ],
      "name": "transferOwnership",
      "outputs": [],
      "payable": false,
      "stateMutability": "nonpayable",
      "type": "function"
    },
    {
      "inputs": [
        {
          "name": "_sponsorLimit",
          "type": "uint256"
        },
        {
          "name": "_price",
          "type": "uint256"
        }
      ],
      "payable": false,
      "stateMutability": "nonpayable",
      "type": "constructor"
    },
    {
      "anonymous": false,
      "inputs": [
        {
          "indexed": false,
          "name": "",
          "type": "address"
        },
        {
          "indexed": false,
          "name": "",
          "type": "string"
        }
      ],
      "name": "beenSponsor",
      "type": "event"
    },
    {
      "anonymous": false,
      "inputs": [
        {
          "indexed": false,
          "name": "",
          "type": "string"
        },
        {
          "indexed": false,
          "name": "",
          "type": "string"
        },
        {
          "indexed": false,
          "name": "",
          "type": "string"
        },
        {
          "indexed": false,
          "name": "",
          "type": "uint256"
        }
      ],
      "name": "pendedList",
      "type": "event"
    },
    {
      "anonymous": false,
      "inputs": [
        {
          "indexed": false,
          "name": "",
          "type": "address"
        },
        {
          "indexed": false,
          "name": "",
          "type": "address"
        }
      ],
      "name": "confirmSponsor",
      "type": "event"
    },
    {
      "anonymous": false,
      "inputs": [
        {
          "indexed": false,
          "name": "",
          "type": "address"
        },
        {
          "indexed": false,
          "name": "",
          "type": "string"
        }
      ],
      "name": "denySponsor",
      "type": "event"
    },
    {
      "anonymous": false,
      "inputs": [
        {
          "indexed": true,
          "name": "sponsor",
          "type": "address"
        },
        {
          "indexed": false,
          "name": "name",
          "type": "string"
        },
        {
          "indexed": false,
          "name": "month",
          "type": "uint256"
        }
      ],
      "name": "removedSponsor",
      "type": "event"
    },
    {
      "anonymous": false,
      "inputs": [
        {
          "indexed": true,
          "name": "sponsor",
          "type": "address"
        },
        {
          "indexed": false,
          "name": "name",
          "type": "string"
        },
        {
          "indexed": false,
          "name": "month",
          "type": "uint256"
        }
      ],
      "name": "expiredSponsor",
      "type": "event"
    },
    {
      "anonymous": false,
      "inputs": [
        {
          "indexed": true,
          "name": "previousOwner",
          "type": "address"
        }
      ],
      "name": "OwnershipRenounced",
      "type": "event"
    },
    {
      "anonymous": false,
      "inputs": [
        {
          "indexed": true,
          "name": "previousOwner",
          "type": "address"
        },
        {
          "indexed": true,
          "name": "newOwner",
          "type": "address"
        }
      ],
      "name": "OwnershipTransferred",
      "type": "event"
    },
    {
      "constant": false,
      "inputs": [
        {
          "name": "_name",
          "type": "string"
        },
        {
          "name": "_url",
          "type": "string"
        },
        {
          "name": "_imageHash",
          "type": "string"
        },
        {
          "name": "_duration",
          "type": "uint256"
        }
      ],
      "name": "beSponsor",
      "outputs": [],
      "payable": true,
      "stateMutability": "payable",
      "type": "function"
    },
    {
      "constant": false,
      "inputs": [
        {
          "name": "_index",
          "type": "uint256"
        }
      ],
      "name": "removeSponsor",
      "outputs": [],
      "payable": false,
      "stateMutability": "nonpayable",
      "type": "function"
    },
    {
      "constant": false,
      "inputs": [
        {
          "name": "_index",
          "type": "uint256"
        }
      ],
      "name": "confirm",
      "outputs": [],
      "payable": false,
      "stateMutability": "nonpayable",
      "type": "function"
    },
    {
      "constant": false,
      "inputs": [
        {
          "name": "_index",
          "type": "uint256"
        }
      ],
      "name": "deny",
      "outputs": [],
      "payable": false,
      "stateMutability": "nonpayable",
      "type": "function"
    },
    {
      "constant": false,
      "inputs": [
        {
          "name": "_limit",
          "type": "uint256"
        }
      ],
      "name": "setLimit",
      "outputs": [],
      "payable": false,
      "stateMutability": "nonpayable",
      "type": "function"
    },
    {
      "constant": true,
      "inputs": [],
      "name": "getLimit",
      "outputs": [
        {
          "name": "",
          "type": "uint256"
        }
      ],
      "payable": false,
      "stateMutability": "view",
      "type": "function"
    },
    {
      "constant": false,
      "inputs": [
        {
          "name": "_isActive",
          "type": "bool"
        }
      ],
      "name": "setActive",
      "outputs": [],
      "payable": false,
      "stateMutability": "nonpayable",
      "type": "function"
    },
    {
      "constant": true,
      "inputs": [],
      "name": "getActive",
      "outputs": [
        {
          "name": "",
          "type": "bool"
        }
      ],
      "payable": false,
      "stateMutability": "view",
      "type": "function"
    },
    {
      "constant": false,
      "inputs": [
        {
          "name": "_price",
          "type": "uint256"
        }
      ],
      "name": "setPrice",
      "outputs": [],
      "payable": false,
      "stateMutability": "nonpayable",
      "type": "function"
    },
    {
      "constant": true,
      "inputs": [],
      "name": "getPrice",
      "outputs": [
        {
          "name": "",
          "type": "uint256"
        }
      ],
      "payable": false,
      "stateMutability": "view",
      "type": "function"
    },
    {
      "constant": true,
      "inputs": [
        {
          "name": "_index",
          "type": "uint256"
        }
      ],
      "name": "getSponsor",
      "outputs": [
        {
          "name": "",
          "type": "address"
        }
      ],
      "payable": false,
      "stateMutability": "view",
      "type": "function"
    },
    {
      "constant": true,
      "inputs": [],
      "name": "getSponsorCount",
      "outputs": [
        {
          "name": "",
          "type": "uint256"
        }
      ],
      "payable": false,
      "stateMutability": "view",
      "type": "function"
    },
    {
      "constant": true,
      "inputs": [
        {
          "name": "_ind",
          "type": "uint256"
        }
      ],
      "name": "getPendingList",
      "outputs": [
        {
          "name": "",
          "type": "string"
        },
        {
          "name": "",
          "type": "string"
        },
        {
          "name": "",
          "type": "string"
        },
        {
          "name": "",
          "type": "uint256"
        },
        {
          "name": "",
          "type": "uint256"
        }
      ],
      "payable": false,
      "stateMutability": "view",
      "type": "function"
    },
    {
      "constant": true,
      "inputs": [],
      "name": "getNumberPending",
      "outputs": [
        {
          "name": "",
          "type": "uint256"
        }
      ],
      "payable": false,
      "stateMutability": "view",
      "type": "function"
    },
    {
      "constant": false,
      "inputs": [],
      "name": "expireDetect",
      "outputs": [],
      "payable": false,
      "stateMutability": "nonpayable",
      "type": "function"
    }
  ],
  "bytecode": "0x608060405234801561001057600080fd5b506040516040806138758339810180604052810190808051906020019092919080519060200190929190505050336000806101000a81548173ffffffffffffffffffffffffffffffffffffffff021916908373ffffffffffffffffffffffffffffffffffffffff16021790555081600181905550806003819055506001600060146101000a81548160ff02191690831515021790555050506137be806100b76000396000f3006080604052600436106200013d576000357c0100000000000000000000000000000000000000000000000000000000900463ffffffff1680629ebb101462000142578062c2527b146200017457806303aca79214620001a25780631cdbc134146200036d57806327ea6f2b146200038757806339d4397214620003b75780634485b5f9146200042757806350017f55146200045757806356f6628214620004dd57806363b3178a146200050d578063715018a6146200053b57806384bcd2591462000555578063893d20e814620006495780638da5cb5b14620006a357806391b7f5ed14620006fd57806398d5fdca146200072d578063acec338a146200075b578063b295a00e146200078d578063ba0179b514620007bb578063bb18840914620007eb578063e122ec101462000983578063f2fde38b14620009f3575b600080fd5b3480156200014f57600080fd5b506200015a62000a39565b604051808215151515815260200191505060405180910390f35b3480156200018157600080fd5b506200018c62000a4f565b6040518082815260200191505060405180910390f35b348015620001af57600080fd5b50620001d06004803603810190808035906020019092919050505062000a59565b604051808060200180602001806020018781526020018681526020018573ffffffffffffffffffffffffffffffffffffffff1673ffffffffffffffffffffffffffffffffffffffff16815260200184810384528a818151815260200191508051906020019080838360005b83811015620002585780820151818401526020810190506200023b565b50505050905090810190601f168015620002865780820380516001836020036101000a031916815260200191505b50848103835289818151815260200191508051906020019080838360005b83811015620002c1578082015181840152602081019050620002a4565b50505050905090810190601f168015620002ef5780820380516001836020036101000a031916815260200191505b50848103825288818151815260200191508051906020019080838360005b838110156200032a5780820151818401526020810190506200030d565b50505050905090810190601f168015620003585780820380516001836020036101000a031916815260200191505b50995050505050505050505060405180910390f35b3480156200037a57600080fd5b506200038562000c99565b005b3480156200039457600080fd5b50620003b56004803603810190808035906020019092919050505062000f07565b005b348015620003c457600080fd5b50620003e56004803603810190808035906020019092919050505062000f7f565b604051808273ffffffffffffffffffffffffffffffffffffffff1673ffffffffffffffffffffffffffffffffffffffff16815260200191505060405180910390f35b3480156200043457600080fd5b50620004556004803603810190808035906020019092919050505062000fc3565b005b3480156200046457600080fd5b506200049b600480360381019080803573ffffffffffffffffffffffffffffffffffffffff1690602001909291905050506200140c565b604051808273ffffffffffffffffffffffffffffffffffffffff1673ffffffffffffffffffffffffffffffffffffffff16815260200191505060405180910390f35b348015620004ea57600080fd5b506200050b600480360381019080803590602001909291905050506200143f565b005b3480156200051a57600080fd5b50620005256200159b565b6040518082815260200191505060405180910390f35b3480156200054857600080fd5b5062000553620015a8565b005b62000647600480360381019080803590602001908201803590602001908080601f0160208091040260200160405190810160405280939291908181526020018383808284378201915050505050509192919290803590602001908201803590602001908080601f0160208091040260200160405190810160405280939291908181526020018383808284378201915050505050509192919290803590602001908201803590602001908080601f016020809104026020016040519081016040528093929190818152602001838380828437820191505050505050919291929080359060200190929190505050620016ab565b005b3480156200065657600080fd5b506200066162001a4a565b604051808273ffffffffffffffffffffffffffffffffffffffff1673ffffffffffffffffffffffffffffffffffffffff16815260200191505060405180910390f35b348015620006b057600080fd5b50620006bb62001a73565b604051808273ffffffffffffffffffffffffffffffffffffffff1673ffffffffffffffffffffffffffffffffffffffff16815260200191505060405180910390f35b3480156200070a57600080fd5b506200072b6004803603810190808035906020019092919050505062001a98565b005b3480156200073a57600080fd5b506200074562001afe565b6040518082815260200191505060405180910390f35b3480156200076857600080fd5b506200078b60048036038101908080351515906020019092919050505062001b08565b005b3480156200079a57600080fd5b50620007a562001b81565b6040518082815260200191505060405180910390f35b348015620007c857600080fd5b50620007e96004803603810190808035906020019092919050505062001b8b565b005b348015620007f857600080fd5b50620008196004803603810190808035906020019092919050505062001fca565b60405180806020018060200180602001868152602001858152602001848103845289818151815260200191508051906020019080838360005b838110156200086f57808201518184015260208101905062000852565b50505050905090810190601f1680156200089d5780820380516001836020036101000a031916815260200191505b50848103835288818151815260200191508051906020019080838360005b83811015620008d8578082015181840152602081019050620008bb565b50505050905090810190601f168015620009065780820380516001836020036101000a031916815260200191505b50848103825287818151815260200191508051906020019080838360005b838110156200094157808201518184015260208101905062000924565b50505050905090810190601f1680156200096f5780820380516001836020036101000a031916815260200191505b509850505050505050505060405180910390f35b3480156200099057600080fd5b50620009b1600480360381019080803590602001909291905050506200226c565b604051808273ffffffffffffffffffffffffffffffffffffffff1673ffffffffffffffffffffffffffffffffffffffff16815260200191505060405180910390f35b34801562000a0057600080fd5b5062000a37600480360381019080803573ffffffffffffffffffffffffffffffffffffffff169060200190929190505050620022ab565b005b60008060149054906101000a900460ff16905090565b6000600254905090565b60068181548110151562000a6957fe5b9060005260206000209060060201600091509050806000018054600181600116156101000203166002900480601f01602080910402602001604051908101604052809291908181526020018280546001816001161561010002031660029004801562000b195780601f1062000aed5761010080835404028352916020019162000b19565b820191906000526020600020905b81548152906001019060200180831162000afb57829003601f168201915b505050505090806001018054600181600116156101000203166002900480601f01602080910402602001604051908101604052809291908181526020018280546001816001161561010002031660029004801562000bbb5780601f1062000b8f5761010080835404028352916020019162000bbb565b820191906000526020600020905b81548152906001019060200180831162000b9d57829003601f168201915b505050505090806002018054600181600116156101000203166002900480601f01602080910402602001604051908101604052809291908181526020018280546001816001161561010002031660029004801562000c5d5780601f1062000c315761010080835404028352916020019162000c5d565b820191906000526020600020905b81548152906001019060200180831162000c3f57829003601f168201915b5050505050908060030154908060040154908060050160009054906101000a900473ffffffffffffffffffffffffffffffffffffffff16905086565b600080600091505b60025482101562000f035760048281548110151562000cbc57fe5b9060005260206000200160009054906101000a900473ffffffffffffffffffffffffffffffffffffffff1690508073ffffffffffffffffffffffffffffffffffffffff16637eb0e5e56040518163ffffffff167c0100000000000000000000000000000000000000000000000000000000028152600401602060405180830381600087803b15801562000d4e57600080fd5b505af115801562000d63573d6000803e3d6000fd5b505050506040513d602081101562000d7a57600080fd5b81019080805190602001909291905050504267ffffffffffffffff161015151562000da457600080fd5b600560008273ffffffffffffffffffffffffffffffffffffffff1663893d20e86040518163ffffffff167c0100000000000000000000000000000000000000000000000000000000028152600401602060405180830381600087803b15801562000e0d57600080fd5b505af115801562000e22573d6000803e3d6000fd5b505050506040513d602081101562000e3957600080fd5b810190808051906020019092919050505073ffffffffffffffffffffffffffffffffffffffff1673ffffffffffffffffffffffffffffffffffffffff16815260200190815260200160002060006101000a81549073ffffffffffffffffffffffffffffffffffffffff021916905560048281548110151562000eb757fe5b9060005260206000200160006101000a81549073ffffffffffffffffffffffffffffffffffffffff02191690556001600260008282540392505081905550818060010192505062000ca1565b5050565b6000809054906101000a900473ffffffffffffffffffffffffffffffffffffffff1673ffffffffffffffffffffffffffffffffffffffff163373ffffffffffffffffffffffffffffffffffffffff1614151562000f6357600080fd5b600254811015151562000f7557600080fd5b8060018190555050565b600060048281548110151562000f9157fe5b9060005260206000200160009054906101000a900473ffffffffffffffffffffffffffffffffffffffff169050919050565b60008060009054906101000a900473ffffffffffffffffffffffffffffffffffffffff1673ffffffffffffffffffffffffffffffffffffffff163373ffffffffffffffffffffffffffffffffffffffff161415156200102157600080fd5b6004828154811015156200103157fe5b9060005260206000200160009054906101000a900473ffffffffffffffffffffffffffffffffffffffff169050600560008273ffffffffffffffffffffffffffffffffffffffff1663893d20e86040518163ffffffff167c0100000000000000000000000000000000000000000000000000000000028152600401602060405180830381600087803b158015620010c757600080fd5b505af1158015620010dc573d6000803e3d6000fd5b505050506040513d6020811015620010f357600080fd5b810190808051906020019092919050505073ffffffffffffffffffffffffffffffffffffffff1673ffffffffffffffffffffffffffffffffffffffff16815260200190815260200160002060006101000a81549073ffffffffffffffffffffffffffffffffffffffff02191690556004828154811015156200117157fe5b9060005260206000200160006101000a81549073ffffffffffffffffffffffffffffffffffffffff021916905560016002600082825403925050819055508073ffffffffffffffffffffffffffffffffffffffff167f48e9b020740944701933bca8e3d5e864bbd8daf274894e92175030a9caf196288273ffffffffffffffffffffffffffffffffffffffff166317d7de7c6040518163ffffffff167c0100000000000000000000000000000000000000000000000000000000028152600401600060405180830381600087803b1580156200124c57600080fd5b505af115801562001261573d6000803e3d6000fd5b505050506040513d6000823e3d601f19601f8201168201806040525060208110156200128c57600080fd5b810190808051640100000000811115620012a557600080fd5b82810190506020810184811115620012bc57600080fd5b8151856001820283011164010000000082111715620012da57600080fd5b50509291905050508373ffffffffffffffffffffffffffffffffffffffff1663ad2e8c9b6040518163ffffffff167c0100000000000000000000000000000000000000000000000000000000028152600401602060405180830381600087803b1580156200134757600080fd5b505af11580156200135c573d6000803e3d6000fd5b505050506040513d60208110156200137357600080fd5b81019080805190602001909291905050506040518080602001838152602001828103825284818151815260200191508051906020019080838360005b83811015620013cc578082015181840152602081019050620013af565b50505050905090810190601f168015620013fa5780820380516001836020036101000a031916815260200191505b50935050505060405180910390a25050565b60056020528060005260406000206000915054906101000a900473ffffffffffffffffffffffffffffffffffffffff1681565b60006006828154811015156200145157fe5b90600052602060002090600602019050600081600401541415156200147557600080fd5b600281600401819055507f7ee82883a2c3c3a5240320927ae45b64cc2ea63125044f3ebd009af41e06124e8160050160009054906101000a900473ffffffffffffffffffffffffffffffffffffffff1682600001604051808373ffffffffffffffffffffffffffffffffffffffff1673ffffffffffffffffffffffffffffffffffffffff16815260200180602001828103825283818154600181600116156101000203166002900481526020019150805460018160011615610100020316600290048015620015885780601f106200155c5761010080835404028352916020019162001588565b820191906000526020600020905b8154815290600101906020018083116200156a57829003601f168201915b5050935050505060405180910390a15050565b6000600680549050905090565b6000809054906101000a900473ffffffffffffffffffffffffffffffffffffffff1673ffffffffffffffffffffffffffffffffffffffff163373ffffffffffffffffffffffffffffffffffffffff161415156200160457600080fd5b6000809054906101000a900473ffffffffffffffffffffffffffffffffffffffff1673ffffffffffffffffffffffffffffffffffffffff167ff8df31144d9c2f0f6b59d69b8b98abd5459d07f2742c4df920b25aae33c6482060405160405180910390a260008060006101000a81548173ffffffffffffffffffffffffffffffffffffffff021916908373ffffffffffffffffffffffffffffffffffffffff160217905550565b600060149054906101000a900460ff161515620016c757600080fd5b66038d7ea4c68000600354023410151515620016e257600080fd5b600154600254101515620016f557600080fd5b600073ffffffffffffffffffffffffffffffffffffffff16600560003373ffffffffffffffffffffffffffffffffffffffff1673ffffffffffffffffffffffffffffffffffffffff16815260200190815260200160002060009054906101000a900473ffffffffffffffffffffffffffffffffffffffff1673ffffffffffffffffffffffffffffffffffffffff161415156200179057600080fd5b600660c060405190810160405280868152602001858152602001848152602001838152602001600081526020013373ffffffffffffffffffffffffffffffffffffffff168152509080600181540180825580915050906001820390600052602060002090600602016000909192909190915060008201518160000190805190602001906200182092919062002402565b5060208201518160010190805190602001906200183f92919062002402565b5060408201518160020190805190602001906200185e92919062002402565b50606082015181600301556080820151816004015560a08201518160050160006101000a81548173ffffffffffffffffffffffffffffffffffffffff021916908373ffffffffffffffffffffffffffffffffffffffff1602179055505050507fc0fc46507beefa45fe41b380bcc3cc7cbcef06a7c1e4dbd4c63e4bcfa847261f8484848460405180806020018060200180602001858152602001848103845288818151815260200191508051906020019080838360005b838110156200193257808201518184015260208101905062001915565b50505050905090810190601f168015620019605780820380516001836020036101000a031916815260200191505b50848103835287818151815260200191508051906020019080838360005b838110156200199b5780820151818401526020810190506200197e565b50505050905090810190601f168015620019c95780820380516001836020036101000a031916815260200191505b50848103825286818151815260200191508051906020019080838360005b8381101562001a04578082015181840152602081019050620019e7565b50505050905090810190601f16801562001a325780820380516001836020036101000a031916815260200191505b5097505050505050505060405180910390a150505050565b60008060009054906101000a900473ffffffffffffffffffffffffffffffffffffffff16905090565b6000809054906101000a900473ffffffffffffffffffffffffffffffffffffffff1681565b6000809054906101000a900473ffffffffffffffffffffffffffffffffffffffff1673ffffffffffffffffffffffffffffffffffffffff163373ffffffffffffffffffffffffffffffffffffffff1614151562001af457600080fd5b8060038190555050565b6000600354905090565b6000809054906101000a900473ffffffffffffffffffffffffffffffffffffffff1673ffffffffffffffffffffffffffffffffffffffff163373ffffffffffffffffffffffffffffffffffffffff1614151562001b6457600080fd5b80600060146101000a81548160ff02191690831515021790555050565b6000600154905090565b60008060068381548110151562001b9e57fe5b906000526020600020906006020191506000826004015414151562001bc257600080fd5b816000018260010183600201846003015462001bdd62002489565b8080602001806020018060200185815260200184810384528881815460018160011615610100020316600290048152602001915080546001816001161561010002031660029004801562001c755780601f1062001c495761010080835404028352916020019162001c75565b820191906000526020600020905b81548152906001019060200180831162001c5757829003601f168201915b505084810383528781815460018160011615610100020316600290048152602001915080546001816001161561010002031660029004801562001cfc5780601f1062001cd05761010080835404028352916020019162001cfc565b820191906000526020600020905b81548152906001019060200180831162001cde57829003601f168201915b505084810382528681815460018160011615610100020316600290048152602001915080546001816001161561010002031660029004801562001d835780601f1062001d575761010080835404028352916020019162001d83565b820191906000526020600020905b81548152906001019060200180831162001d6557829003601f168201915b5050975050505050505050604051809103906000f08015801562001dab573d6000803e3d6000fd5b50905060048190806001815401808255809150509060018203906000526020600020016000909192909190916101000a81548173ffffffffffffffffffffffffffffffffffffffff021916908373ffffffffffffffffffffffffffffffffffffffff1602179055505080600560008460050160009054906101000a900473ffffffffffffffffffffffffffffffffffffffff1673ffffffffffffffffffffffffffffffffffffffff1673ffffffffffffffffffffffffffffffffffffffff16815260200190815260200160002060006101000a81548173ffffffffffffffffffffffffffffffffffffffff021916908373ffffffffffffffffffffffffffffffffffffffff1602179055506001600260008282540192505081905550600182600401819055507fa10ad3d048bea14dee21673def6205be8cb75e51edf23f1030213074a61365ac8183600001604051808373ffffffffffffffffffffffffffffffffffffffff1673ffffffffffffffffffffffffffffffffffffffff1681526020018060200182810382528381815460018160011615610100020316600290048152602001915080546001816001161561010002031660029004801562001fb65780601f1062001f8a5761010080835404028352916020019162001fb6565b820191906000526020600020905b81548152906001019060200180831162001f9857829003601f168201915b5050935050505060405180910390a1505050565b606080606060008060068681548110151562001fe257fe5b90600052602060002090600602016000016006878154811015156200200357fe5b90600052602060002090600602016001016006888154811015156200202457fe5b90600052602060002090600602016002016006898154811015156200204557fe5b90600052602060002090600602016003015460068a8154811015156200206757fe5b906000526020600020906006020160040154848054600181600116156101000203166002900480601f016020809104026020016040519081016040528092919081815260200182805460018160011615610100020316600290048015620021125780601f10620020e65761010080835404028352916020019162002112565b820191906000526020600020905b815481529060010190602001808311620020f457829003601f168201915b50505050509450838054600181600116156101000203166002900480601f016020809104026020016040519081016040528092919081815260200182805460018160011615610100020316600290048015620021b25780601f106200218657610100808354040283529160200191620021b2565b820191906000526020600020905b8154815290600101906020018083116200219457829003601f168201915b50505050509350828054600181600116156101000203166002900480601f016020809104026020016040519081016040528092919081815260200182805460018160011615610100020316600290048015620022525780601f10620022265761010080835404028352916020019162002252565b820191906000526020600020905b8154815290600101906020018083116200223457829003601f168201915b505050505092509450945094509450945091939590929450565b6004818154811015156200227c57fe5b906000526020600020016000915054906101000a900473ffffffffffffffffffffffffffffffffffffffff1681565b6000809054906101000a900473ffffffffffffffffffffffffffffffffffffffff1673ffffffffffffffffffffffffffffffffffffffff163373ffffffffffffffffffffffffffffffffffffffff161415156200230757600080fd5b600073ffffffffffffffffffffffffffffffffffffffff168173ffffffffffffffffffffffffffffffffffffffff16141515156200234457600080fd5b8073ffffffffffffffffffffffffffffffffffffffff166000809054906101000a900473ffffffffffffffffffffffffffffffffffffffff1673ffffffffffffffffffffffffffffffffffffffff167f8be0079c531659141344cd1fd0a4f28419497f9722a3daafe3b4186f6b6457e060405160405180910390a3806000806101000a81548173ffffffffffffffffffffffffffffffffffffffff021916908373ffffffffffffffffffffffffffffffffffffffff16021790555050565b828054600181600116156101000203166002900490600052602060002090601f016020900481019282601f106200244557805160ff191683800117855562002476565b8280016001018555821562002476579182015b828111156200247557825182559160200191906001019062002458565b5b5090506200248591906200249a565b5090565b6040516112d080620024c383390190565b620024bf91905b80821115620024bb576000816000905550600101620024a1565b5090565b90560060806040523480156200001157600080fd5b50604051620012d0380380620012d083398101806040528101908080518201929190602001805182019291906020018051820192919060200180519060200190929190505050336000806101000a81548173ffffffffffffffffffffffffffffffffffffffff021916908373ffffffffffffffffffffffffffffffffffffffff1602179055508360019080519060200190620000af92919062000173565b508260029080519060200190620000c892919062000173565b508160039080519060200190620000e192919062000173565b5042600460006101000a81548167ffffffffffffffff021916908367ffffffffffffffff160217905550806005819055506200014381600460009054906101000a900467ffffffffffffffff1662000153640100000000026401000000009004565b6006819055505050505062000222565b60008167ffffffffffffffff168301600681905550600654905092915050565b828054600181600116156101000203166002900490600052602060002090601f016020900481019282601f10620001b657805160ff1916838001178555620001e7565b82800160010185558215620001e7579182015b82811115620001e6578251825591602001919060010190620001c9565b5b509050620001f69190620001fa565b5090565b6200021f91905b808211156200021b57600081600090555060010162000201565b5090565b90565b61109e80620002326000396000f3006080604052600436106100db576000357c0100000000000000000000000000000000000000000000000000000000900463ffffffff16806317d7de7c146100e05780631e2c74f6146101705780631ed83fd41461019f578063252498a214610208578063447f69e614610271578063715018a6146102c65780637eb0e5e5146102dd578063893d20e8146103085780638da5cb5b1461035f578063ad2e8c9b146103b6578063c47f0027146103e1578063d13319c41461044a578063d6bd8727146104da578063f11526771461056a578063f2fde38b146106d9575b600080fd5b3480156100ec57600080fd5b506100f561071c565b6040518080602001828103825283818151815260200191508051906020019080838360005b8381101561013557808201518184015260208101905061011a565b50505050905090810190601f1680156101625780820380516001836020036101000a031916815260200191505b509250505060405180910390f35b34801561017c57600080fd5b5061019d6004803603810190808035151590602001909291905050506107be565b005b3480156101ab57600080fd5b50610206600480360381019080803590602001908201803590602001908080601f016020809104026020016040519081016040528093929190818152602001838380828437820191505050505050919291929050505061085f565b005b34801561021457600080fd5b5061026f600480360381019080803590602001908201803590602001908080601f01602080910402602001604051908101604052809392919081815260200183838082843782019150505050505091929192905050506108d4565b005b34801561027d57600080fd5b506102b060048036038101908080359060200190929190803567ffffffffffffffff169060200190929190505050610949565b6040518082815260200191505060405180910390f35b3480156102d257600080fd5b506102db610969565b005b3480156102e957600080fd5b506102f2610a6b565b6040518082815260200191505060405180910390f35b34801561031457600080fd5b5061031d610a75565b604051808273ffffffffffffffffffffffffffffffffffffffff1673ffffffffffffffffffffffffffffffffffffffff16815260200191505060405180910390f35b34801561036b57600080fd5b50610374610a9e565b604051808273ffffffffffffffffffffffffffffffffffffffff1673ffffffffffffffffffffffffffffffffffffffff16815260200191505060405180910390f35b3480156103c257600080fd5b506103cb610ac3565b6040518082815260200191505060405180910390f35b3480156103ed57600080fd5b50610448600480360381019080803590602001908201803590602001908080601f0160208091040260200160405190810160405280939291908181526020018383808284378201915050505050509192919290505050610acd565b005b34801561045657600080fd5b5061045f610b42565b6040518080602001828103825283818151815260200191508051906020019080838360005b8381101561049f578082015181840152602081019050610484565b50505050905090810190601f1680156104cc5780820380516001836020036101000a031916815260200191505b509250505060405180910390f35b3480156104e657600080fd5b506104ef610be4565b6040518080602001828103825283818151815260200191508051906020019080838360005b8381101561052f578082015181840152602081019050610514565b50505050905090810190601f16801561055c5780820380516001836020036101000a031916815260200191505b509250505060405180910390f35b34801561057657600080fd5b5061057f610c86565b60405180806020018060200180602001858152602001848103845288818151815260200191508051906020019080838360005b838110156105cd5780820151818401526020810190506105b2565b50505050905090810190601f1680156105fa5780820380516001836020036101000a031916815260200191505b50848103835287818151815260200191508051906020019080838360005b83811015610633578082015181840152602081019050610618565b50505050905090810190601f1680156106605780820380516001836020036101000a031916815260200191505b50848103825286818151815260200191508051906020019080838360005b8381101561069957808201518184015260208101905061067e565b50505050905090810190601f1680156106c65780820380516001836020036101000a031916815260200191505b5097505050505050505060405180910390f35b3480156106e557600080fd5b5061071a600480360381019080803573ffffffffffffffffffffffffffffffffffffffff169060200190929190505050610e78565b005b606060018054600181600116156101000203166002900480601f0160208091040260200160405190810160405280929190818152602001828054600181600116156101000203166002900480156107b45780601f10610789576101008083540402835291602001916107b4565b820191906000526020600020905b81548152906001019060200180831161079757829003601f168201915b5050505050905090565b6000809054906101000a900473ffffffffffffffffffffffffffffffffffffffff1673ffffffffffffffffffffffffffffffffffffffff163373ffffffffffffffffffffffffffffffffffffffff1614151561081957600080fd5b80151561082557600080fd5b6000809054906101000a900473ffffffffffffffffffffffffffffffffffffffff1673ffffffffffffffffffffffffffffffffffffffff16ff5b6000809054906101000a900473ffffffffffffffffffffffffffffffffffffffff1673ffffffffffffffffffffffffffffffffffffffff163373ffffffffffffffffffffffffffffffffffffffff161415156108ba57600080fd5b80600390805190602001906108d0929190610fcd565b5050565b6000809054906101000a900473ffffffffffffffffffffffffffffffffffffffff1673ffffffffffffffffffffffffffffffffffffffff163373ffffffffffffffffffffffffffffffffffffffff1614151561092f57600080fd5b8060029080519060200190610945929190610fcd565b5050565b60008167ffffffffffffffff168301600681905550600654905092915050565b6000809054906101000a900473ffffffffffffffffffffffffffffffffffffffff1673ffffffffffffffffffffffffffffffffffffffff163373ffffffffffffffffffffffffffffffffffffffff161415156109c457600080fd5b6000809054906101000a900473ffffffffffffffffffffffffffffffffffffffff1673ffffffffffffffffffffffffffffffffffffffff167ff8df31144d9c2f0f6b59d69b8b98abd5459d07f2742c4df920b25aae33c6482060405160405180910390a260008060006101000a81548173ffffffffffffffffffffffffffffffffffffffff021916908373ffffffffffffffffffffffffffffffffffffffff160217905550565b6000600654905090565b60008060009054906101000a900473ffffffffffffffffffffffffffffffffffffffff16905090565b6000809054906101000a900473ffffffffffffffffffffffffffffffffffffffff1681565b6000600554905090565b6000809054906101000a900473ffffffffffffffffffffffffffffffffffffffff1673ffffffffffffffffffffffffffffffffffffffff163373ffffffffffffffffffffffffffffffffffffffff16141515610b2857600080fd5b8060019080519060200190610b3e929190610fcd565b5050565b606060038054600181600116156101000203166002900480601f016020809104026020016040519081016040528092919081815260200182805460018160011615610100020316600290048015610bda5780601f10610baf57610100808354040283529160200191610bda565b820191906000526020600020905b815481529060010190602001808311610bbd57829003601f168201915b5050505050905090565b606060028054600181600116156101000203166002900480601f016020809104026020016040519081016040528092919081815260200182805460018160011615610100020316600290048015610c7c5780601f10610c5157610100808354040283529160200191610c7c565b820191906000526020600020905b815481529060010190602001808311610c5f57829003601f168201915b5050505050905090565b60608060606000600160026003600554838054600181600116156101000203166002900480601f016020809104026020016040519081016040528092919081815260200182805460018160011615610100020316600290048015610d2b5780601f10610d0057610100808354040283529160200191610d2b565b820191906000526020600020905b815481529060010190602001808311610d0e57829003601f168201915b50505050509350828054600181600116156101000203166002900480601f016020809104026020016040519081016040528092919081815260200182805460018160011615610100020316600290048015610dc75780601f10610d9c57610100808354040283529160200191610dc7565b820191906000526020600020905b815481529060010190602001808311610daa57829003601f168201915b50505050509250818054600181600116156101000203166002900480601f016020809104026020016040519081016040528092919081815260200182805460018160011615610100020316600290048015610e635780601f10610e3857610100808354040283529160200191610e63565b820191906000526020600020905b815481529060010190602001808311610e4657829003601f168201915b50505050509150935093509350935090919293565b6000809054906101000a900473ffffffffffffffffffffffffffffffffffffffff1673ffffffffffffffffffffffffffffffffffffffff163373ffffffffffffffffffffffffffffffffffffffff16141515610ed357600080fd5b600073ffffffffffffffffffffffffffffffffffffffff168173ffffffffffffffffffffffffffffffffffffffff1614151515610f0f57600080fd5b8073ffffffffffffffffffffffffffffffffffffffff166000809054906101000a900473ffffffffffffffffffffffffffffffffffffffff1673ffffffffffffffffffffffffffffffffffffffff167f8be0079c531659141344cd1fd0a4f28419497f9722a3daafe3b4186f6b6457e060405160405180910390a3806000806101000a81548173ffffffffffffffffffffffffffffffffffffffff021916908373ffffffffffffffffffffffffffffffffffffffff16021790555050565b828054600181600116156101000203166002900490600052602060002090601f016020900481019282601f1061100e57805160ff191683800117855561103c565b8280016001018555821561103c579182015b8281111561103b578251825591602001919060010190611020565b5b509050611049919061104d565b5090565b61106f91905b8082111561106b576000816000905550600101611053565b5090565b905600a165627a7a72305820a62c1b8eebcf1f9f563f8a1261eb92380d128782e4c89c3921c7048cfa8a68610029a165627a7a7230582010a53926eb7f64936912164cc91f93b61c651e9bdd91f49e2034dedfb4eadc010029",
  "source": "pragma solidity ^0.4.17;\n\nimport \"./Sponsor.sol\";\nimport \"./Ownable.sol\";\n//expire\n//pending\ncontract FactorySponsor is Ownable{\n\n\n    bool isActive;\n    uint sponsorLimit;\n    uint sponsorCount;\n    uint price;\n\n\n    address[] public Sponsors;//\n    mapping (address => address) public addressToSponsor;\n\n\n\n    struct Pending{\n        string name;\n        string url;\n        string imageHash;\n        uint duration;\n        uint    status;\n        address owner;\n    }\n\n    Pending[] public pendingList;//\n\n\n\n\n    event beenSponsor(address , string );\n    event pendedList(string , string,string ,uint );\n\n    event confirmSponsor(address , address);\n    event denySponsor(address,string);\n\n    event removedSponsor(address indexed sponsor, string name,uint month);\n    event expiredSponsor(address indexed sponsor, string name,uint month);\n\n    modifier Active(){\n        require(isActive);\n        _;\n    }\n\n    constructor(uint _sponsorLimit,uint _price)public{\n        sponsorLimit=_sponsorLimit;\n        price=_price;\n        isActive=true;\n\n    }\n    //expire need\n    function beSponsor(string _name,string _url,string _imageHash,uint _duration)\n    payable\n    Active\n    public{\n        require(msg.value >= price * (1 finney) );\n        require(sponsorCount < sponsorLimit);\n\n        require(addressToSponsor[msg.sender]==address(0));//ayni hesapdan kayit yasak\n\n        pendingList.push(Pending({name:_name,url:_url,imageHash:_imageHash,duration:_duration,status:0,owner:msg.sender}));\n\n        emit pendedList(_name,_url,_imageHash,_duration);\n\n    }\n\n\n    //admin methods\n    function removeSponsor(uint _index) public onlyOwner\n    {\n        Sponsor _temp=Sponsor(Sponsors[_index]);\n        delete addressToSponsor[_temp.getOwner()];\n        delete Sponsors[_index];\n        sponsorCount-=1;\n        emit removedSponsor(address(_temp), _temp.getName(), _temp.getDuration());\n    }\n    // todo later add onlyowner\n    function confirm(uint _index)\n    public{\n\n        Pending storage  tmp=pendingList[_index];\n        require(tmp.status==0);  //if\n        Sponsor _sponsor=new Sponsor(tmp.name,tmp.url,tmp.imageHash,tmp.duration);\n        Sponsors.push(address(_sponsor));\n        addressToSponsor[tmp.owner]=address(_sponsor);\n        sponsorCount+=1;\n        tmp.status=1;\n        emit beenSponsor(address(_sponsor),tmp.name);\n\n    }\n    // todo later add onlyowner\n    function deny(uint _index)\n    public{\n        Pending storage  tmp=pendingList[_index];\n        require(tmp.status==0);  //if\n\n        //transfer money to back\n        tmp.status=2;\n        emit denySponsor(tmp.owner,tmp.name);\n\n    }\n\n\n\n    function setLimit(uint _limit) public onlyOwner{\n        require(_limit>=sponsorCount);\n        sponsorLimit=_limit;\n    }\n    function getLimit() public view returns(uint){\n        return sponsorLimit;\n    }\n    function setActive(bool _isActive) public onlyOwner(){\n        isActive=_isActive;\n    }\n    function getActive() public view returns(bool){\n        return isActive;\n    }\n    function setPrice(uint _price) public onlyOwner(){\n        price=_price;\n    }\n    function getPrice() public view returns(uint){\n        return price;\n    }\n    function getSponsor(uint _index) public view returns(address){\n        return Sponsors[_index];\n    }\n    function getSponsorCount() public view returns(uint){\n        return sponsorCount;\n    }\n    function getPendingList(uint _ind) public view returns(string,string,string,uint,uint){\n        return (pendingList[_ind].name, pendingList[_ind].url,pendingList[_ind].imageHash,pendingList[_ind].duration,pendingList[_ind].status);\n    }\n    function getNumberPending() public view returns(uint){\n        return pendingList.length;\n    }\n    function expireDetect() public\n    {\n        uint i = 0;\n        for(i;i<sponsorCount;i++){\n        Sponsor _temp=Sponsor(Sponsors[i]);\n        require(uint64(now) >= _temp.getDeadTime());\n        delete addressToSponsor[_temp.getOwner()];\n        delete Sponsors[i];\n        sponsorCount-=1;\n        }\n    }\n\n\n}",
  "sourcePath": "/Users/fatih/Desktop/--Etherium--/adhereum/contracts/FactorySponsor.sol",
  "compiler": {
    "name": "solc",
    "version": "0.4.23+commit.124ca40d.Emscripten.clang"
  },
  "schemaVersion": "2.0.0",
  "updatedAt": "2018-08-03T17:20:18.241Z"
}