{
  "contractName": "FactorySponsor",
  "abi": [
    {
      "constant": true,
      "inputs": [
        {
          "name": "",
          "type": "address"
        }
      ],
      "name": "addressToSponsor",
      "outputs": [
        {
          "name": "",
          "type": "address"
        }
      ],
      "payable": false,
      "stateMutability": "view",
      "type": "function"
    },
    {
      "constant": false,
      "inputs": [],
      "name": "renounceOwnership",
      "outputs": [],
      "payable": false,
      "stateMutability": "nonpayable",
      "type": "function"
    },
    {
      "constant": true,
      "inputs": [],
      "name": "getOwner",
      "outputs": [
        {
          "name": "",
          "type": "address"
        }
      ],
      "payable": false,
      "stateMutability": "view",
      "type": "function"
    },
    {
      "constant": true,
      "inputs": [],
      "name": "owner",
      "outputs": [
        {
          "name": "",
          "type": "address"
        }
      ],
      "payable": false,
      "stateMutability": "view",
      "type": "function"
    },
    {
      "constant": true,
      "inputs": [
        {
          "name": "",
          "type": "uint256"
        }
      ],
      "name": "Sponsors",
      "outputs": [
        {
          "name": "",
          "type": "address"
        }
      ],
      "payable": false,
      "stateMutability": "view",
      "type": "function"
    },
    {
      "constant": false,
      "inputs": [
        {
          "name": "newOwner",
          "type": "address"
        }
      ],
      "name": "transferOwnership",
      "outputs": [],
      "payable": false,
      "stateMutability": "nonpayable",
      "type": "function"
    },
    {
      "inputs": [
        {
          "name": "_sponsorLimit",
          "type": "uint256"
        },
        {
          "name": "_price",
          "type": "uint256"
        }
      ],
      "payable": false,
      "stateMutability": "nonpayable",
      "type": "constructor"
    },
    {
      "anonymous": false,
      "inputs": [
        {
          "indexed": true,
          "name": "sponsor",
          "type": "address"
        },
        {
          "indexed": false,
          "name": "name",
          "type": "string"
        },
        {
          "indexed": false,
          "name": "month",
          "type": "uint256"
        },
        {
          "indexed": false,
          "name": "timestamp",
          "type": "uint256"
        }
      ],
      "name": "beenSponsor",
      "type": "event"
    },
    {
      "anonymous": false,
      "inputs": [
        {
          "indexed": true,
          "name": "sponsor",
          "type": "address"
        },
        {
          "indexed": false,
          "name": "name",
          "type": "string"
        },
        {
          "indexed": false,
          "name": "month",
          "type": "uint256"
        },
        {
          "indexed": false,
          "name": "timestamp",
          "type": "uint256"
        }
      ],
      "name": "removedSponsor",
      "type": "event"
    },
    {
      "anonymous": false,
      "inputs": [
        {
          "indexed": true,
          "name": "sponsor",
          "type": "address"
        },
        {
          "indexed": false,
          "name": "name",
          "type": "string"
        },
        {
          "indexed": false,
          "name": "month",
          "type": "uint256"
        },
        {
          "indexed": false,
          "name": "timestamp",
          "type": "uint256"
        }
      ],
      "name": "expiredSponsor",
      "type": "event"
    },
    {
      "anonymous": false,
      "inputs": [
        {
          "indexed": true,
          "name": "previousOwner",
          "type": "address"
        }
      ],
      "name": "OwnershipRenounced",
      "type": "event"
    },
    {
      "anonymous": false,
      "inputs": [
        {
          "indexed": true,
          "name": "previousOwner",
          "type": "address"
        },
        {
          "indexed": true,
          "name": "newOwner",
          "type": "address"
        }
      ],
      "name": "OwnershipTransferred",
      "type": "event"
    },
    {
      "constant": false,
      "inputs": [
        {
          "name": "_name",
          "type": "string"
        },
        {
          "name": "_url",
          "type": "string"
        },
        {
          "name": "_imageHash",
          "type": "string"
        },
        {
          "name": "_duration",
          "type": "uint256"
        }
      ],
      "name": "beSponsor",
      "outputs": [],
      "payable": true,
      "stateMutability": "payable",
      "type": "function"
    },
    {
      "constant": false,
      "inputs": [
        {
          "name": "_index",
          "type": "uint256"
        }
      ],
      "name": "removeSponsor",
      "outputs": [],
      "payable": false,
      "stateMutability": "nonpayable",
      "type": "function"
    },
    {
      "constant": false,
      "inputs": [
        {
          "name": "_limit",
          "type": "uint256"
        }
      ],
      "name": "setLimit",
      "outputs": [],
      "payable": false,
      "stateMutability": "nonpayable",
      "type": "function"
    },
    {
      "constant": true,
      "inputs": [],
      "name": "getLimit",
      "outputs": [
        {
          "name": "",
          "type": "uint256"
        }
      ],
      "payable": false,
      "stateMutability": "view",
      "type": "function"
    },
    {
      "constant": false,
      "inputs": [
        {
          "name": "_isActive",
          "type": "bool"
        }
      ],
      "name": "setActive",
      "outputs": [],
      "payable": false,
      "stateMutability": "nonpayable",
      "type": "function"
    },
    {
      "constant": true,
      "inputs": [],
      "name": "getActive",
      "outputs": [
        {
          "name": "",
          "type": "bool"
        }
      ],
      "payable": false,
      "stateMutability": "view",
      "type": "function"
    },
    {
      "constant": false,
      "inputs": [
        {
          "name": "_price",
          "type": "uint256"
        }
      ],
      "name": "setPrice",
      "outputs": [],
      "payable": false,
      "stateMutability": "nonpayable",
      "type": "function"
    },
    {
      "constant": true,
      "inputs": [],
      "name": "getPrice",
      "outputs": [
        {
          "name": "",
          "type": "uint256"
        }
      ],
      "payable": false,
      "stateMutability": "view",
      "type": "function"
    },
    {
      "constant": true,
      "inputs": [
        {
          "name": "_index",
          "type": "uint256"
        }
      ],
      "name": "getSponsor",
      "outputs": [
        {
          "name": "",
          "type": "address"
        }
      ],
      "payable": false,
      "stateMutability": "view",
      "type": "function"
    },
    {
      "constant": true,
      "inputs": [],
      "name": "getSponsorCount",
      "outputs": [
        {
          "name": "",
          "type": "uint256"
        }
      ],
      "payable": false,
      "stateMutability": "view",
      "type": "function"
    }
  ],
  "bytecode": "0x608060405234801561001057600080fd5b506040516040806124c78339810180604052810190808051906020019092919080519060200190929190505050336000806101000a81548173ffffffffffffffffffffffffffffffffffffffff021916908373ffffffffffffffffffffffffffffffffffffffff1602179055508160018190555080600381905550505061242b8061009c6000396000f3006080604052600436106100e4576000357c0100000000000000000000000000000000000000000000000000000000900463ffffffff1680629ebb10146100e9578062c2527b1461011857806327ea6f2b1461014357806339d43972146101705780634485b5f9146101dd57806350017f551461020a578063715018a61461028d57806384bcd259146102a4578063893d20e8146103965780638da5cb5b146103ed57806391b7f5ed1461044457806398d5fdca14610471578063acec338a1461049c578063b295a00e146104cb578063e122ec10146104f6578063f2fde38b14610563575b600080fd5b3480156100f557600080fd5b506100fe6105a6565b604051808215151515815260200191505060405180910390f35b34801561012457600080fd5b5061012d6105bc565b6040518082815260200191505060405180910390f35b34801561014f57600080fd5b5061016e600480360381019080803590602001909291905050506105c6565b005b34801561017c57600080fd5b5061019b6004803603810190808035906020019092919050505061063c565b604051808273ffffffffffffffffffffffffffffffffffffffff1673ffffffffffffffffffffffffffffffffffffffff16815260200191505060405180910390f35b3480156101e957600080fd5b506102086004803603810190808035906020019092919050505061067f565b005b34801561021657600080fd5b5061024b600480360381019080803573ffffffffffffffffffffffffffffffffffffffff169060200190929190505050610abe565b604051808273ffffffffffffffffffffffffffffffffffffffff1673ffffffffffffffffffffffffffffffffffffffff16815260200191505060405180910390f35b34801561029957600080fd5b506102a2610af1565b005b610394600480360381019080803590602001908201803590602001908080601f0160208091040260200160405190810160405280939291908181526020018383808284378201915050505050509192919290803590602001908201803590602001908080601f0160208091040260200160405190810160405280939291908181526020018383808284378201915050505050509192919290803590602001908201803590602001908080601f016020809104026020016040519081016040528093929190818152602001838380828437820191505050505050919291929080359060200190929190505050610bf3565b005b3480156103a257600080fd5b506103ab610f73565b604051808273ffffffffffffffffffffffffffffffffffffffff1673ffffffffffffffffffffffffffffffffffffffff16815260200191505060405180910390f35b3480156103f957600080fd5b50610402610f9c565b604051808273ffffffffffffffffffffffffffffffffffffffff1673ffffffffffffffffffffffffffffffffffffffff16815260200191505060405180910390f35b34801561045057600080fd5b5061046f60048036038101908080359060200190929190505050610fc1565b005b34801561047d57600080fd5b50610486611026565b6040518082815260200191505060405180910390f35b3480156104a857600080fd5b506104c9600480360381019080803515159060200190929190505050611030565b005b3480156104d757600080fd5b506104e06110a8565b6040518082815260200191505060405180910390f35b34801561050257600080fd5b50610521600480360381019080803590602001909291905050506110b2565b604051808273ffffffffffffffffffffffffffffffffffffffff1673ffffffffffffffffffffffffffffffffffffffff16815260200191505060405180910390f35b34801561056f57600080fd5b506105a4600480360381019080803573ffffffffffffffffffffffffffffffffffffffff1690602001909291905050506110f0565b005b60008060149054906101000a900460ff16905090565b6000600254905090565b6000809054906101000a900473ffffffffffffffffffffffffffffffffffffffff1673ffffffffffffffffffffffffffffffffffffffff163373ffffffffffffffffffffffffffffffffffffffff1614151561062157600080fd5b600254811015151561063257600080fd5b8060018190555050565b600060048281548110151561064d57fe5b9060005260206000200160009054906101000a900473ffffffffffffffffffffffffffffffffffffffff169050919050565b60008060009054906101000a900473ffffffffffffffffffffffffffffffffffffffff1673ffffffffffffffffffffffffffffffffffffffff163373ffffffffffffffffffffffffffffffffffffffff161415156106dc57600080fd5b6004828154811015156106eb57fe5b9060005260206000200160009054906101000a900473ffffffffffffffffffffffffffffffffffffffff169050600560008273ffffffffffffffffffffffffffffffffffffffff1663893d20e86040518163ffffffff167c0100000000000000000000000000000000000000000000000000000000028152600401602060405180830381600087803b15801561078057600080fd5b505af1158015610794573d6000803e3d6000fd5b505050506040513d60208110156107aa57600080fd5b810190808051906020019092919050505073ffffffffffffffffffffffffffffffffffffffff1673ffffffffffffffffffffffffffffffffffffffff16815260200190815260200160002060006101000a81549073ffffffffffffffffffffffffffffffffffffffff021916905560048281548110151561082757fe5b9060005260206000200160006101000a81549073ffffffffffffffffffffffffffffffffffffffff021916905560016002600082825403925050819055508073ffffffffffffffffffffffffffffffffffffffff167f97e15dc6f061f439ea240096e3ead4f92c6425820aa138ba10d51c61cf389cf28273ffffffffffffffffffffffffffffffffffffffff166317d7de7c6040518163ffffffff167c0100000000000000000000000000000000000000000000000000000000028152600401600060405180830381600087803b15801561090157600080fd5b505af1158015610915573d6000803e3d6000fd5b505050506040513d6000823e3d601f19601f82011682018060405250602081101561093f57600080fd5b81019080805164010000000081111561095757600080fd5b8281019050602081018481111561096d57600080fd5b815185600182028301116401000000008211171561098a57600080fd5b50509291905050508373ffffffffffffffffffffffffffffffffffffffff1663ad2e8c9b6040518163ffffffff167c0100000000000000000000000000000000000000000000000000000000028152600401602060405180830381600087803b1580156109f657600080fd5b505af1158015610a0a573d6000803e3d6000fd5b505050506040513d6020811015610a2057600080fd5b8101908080519060200190929190505050426040518080602001848152602001838152602001828103825285818151815260200191508051906020019080838360005b83811015610a7e578082015181840152602081019050610a63565b50505050905090810190601f168015610aab5780820380516001836020036101000a031916815260200191505b5094505050505060405180910390a25050565b60056020528060005260406000206000915054906101000a900473ffffffffffffffffffffffffffffffffffffffff1681565b6000809054906101000a900473ffffffffffffffffffffffffffffffffffffffff1673ffffffffffffffffffffffffffffffffffffffff163373ffffffffffffffffffffffffffffffffffffffff16141515610b4c57600080fd5b6000809054906101000a900473ffffffffffffffffffffffffffffffffffffffff1673ffffffffffffffffffffffffffffffffffffffff167ff8df31144d9c2f0f6b59d69b8b98abd5459d07f2742c4df920b25aae33c6482060405160405180910390a260008060006101000a81548173ffffffffffffffffffffffffffffffffffffffff021916908373ffffffffffffffffffffffffffffffffffffffff160217905550565b60008060149054906101000a900460ff161515610c0f57600080fd5b66038d7ea4c68000600354023410151515610c2957600080fd5b600154600254101515610c3b57600080fd5b84848484610c47611245565b80806020018060200180602001858152602001848103845288818151815260200191508051906020019080838360005b83811015610c92578082015181840152602081019050610c77565b50505050905090810190601f168015610cbf5780820380516001836020036101000a031916815260200191505b50848103835287818151815260200191508051906020019080838360005b83811015610cf8578082015181840152602081019050610cdd565b50505050905090810190601f168015610d255780820380516001836020036101000a031916815260200191505b50848103825286818151815260200191508051906020019080838360005b83811015610d5e578082015181840152602081019050610d43565b50505050905090810190601f168015610d8b5780820380516001836020036101000a031916815260200191505b50975050505050505050604051809103906000f080158015610db1573d6000803e3d6000fd5b50905060048190806001815401808255809150509060018203906000526020600020016000909192909190916101000a81548173ffffffffffffffffffffffffffffffffffffffff021916908373ffffffffffffffffffffffffffffffffffffffff1602179055505080600560003373ffffffffffffffffffffffffffffffffffffffff1673ffffffffffffffffffffffffffffffffffffffff16815260200190815260200160002060006101000a81548173ffffffffffffffffffffffffffffffffffffffff021916908373ffffffffffffffffffffffffffffffffffffffff16021790555060016002600082825401925050819055508073ffffffffffffffffffffffffffffffffffffffff167fbda39769c9e35f448632f2601173736722be57affbe9baabe6e75f0d1cad23dc8684426040518080602001848152602001838152602001828103825285818151815260200191508051906020019080838360005b83811015610f30578082015181840152602081019050610f15565b50505050905090810190601f168015610f5d5780820380516001836020036101000a031916815260200191505b5094505050505060405180910390a25050505050565b60008060009054906101000a900473ffffffffffffffffffffffffffffffffffffffff16905090565b6000809054906101000a900473ffffffffffffffffffffffffffffffffffffffff1681565b6000809054906101000a900473ffffffffffffffffffffffffffffffffffffffff1673ffffffffffffffffffffffffffffffffffffffff163373ffffffffffffffffffffffffffffffffffffffff1614151561101c57600080fd5b8060038190555050565b6000600354905090565b6000809054906101000a900473ffffffffffffffffffffffffffffffffffffffff1673ffffffffffffffffffffffffffffffffffffffff163373ffffffffffffffffffffffffffffffffffffffff1614151561108b57600080fd5b80600060146101000a81548160ff02191690831515021790555050565b6000600154905090565b6004818154811015156110c157fe5b906000526020600020016000915054906101000a900473ffffffffffffffffffffffffffffffffffffffff1681565b6000809054906101000a900473ffffffffffffffffffffffffffffffffffffffff1673ffffffffffffffffffffffffffffffffffffffff163373ffffffffffffffffffffffffffffffffffffffff1614151561114b57600080fd5b600073ffffffffffffffffffffffffffffffffffffffff168173ffffffffffffffffffffffffffffffffffffffff161415151561118757600080fd5b8073ffffffffffffffffffffffffffffffffffffffff166000809054906101000a900473ffffffffffffffffffffffffffffffffffffffff1673ffffffffffffffffffffffffffffffffffffffff167f8be0079c531659141344cd1fd0a4f28419497f9722a3daafe3b4186f6b6457e060405160405180910390a3806000806101000a81548173ffffffffffffffffffffffffffffffffffffffff021916908373ffffffffffffffffffffffffffffffffffffffff16021790555050565b6040516111aa8061125683390190560060806040523480156200001157600080fd5b50604051620011aa380380620011aa83398101806040528101908080518201929190602001805182019291906020018051820192919060200180519060200190929190505050336000806101000a81548173ffffffffffffffffffffffffffffffffffffffff021916908373ffffffffffffffffffffffffffffffffffffffff1602179055508360019080519060200190620000af9291906200011c565b508260029080519060200190620000c89291906200011c565b508160039080519060200190620000e19291906200011c565b5042600460006101000a81548167ffffffffffffffff021916908367ffffffffffffffff1602179055508060058190555050505050620001cb565b828054600181600116156101000203166002900490600052602060002090601f016020900481019282601f106200015f57805160ff191683800117855562000190565b8280016001018555821562000190579182015b828111156200018f57825182559160200191906001019062000172565b5b5090506200019f9190620001a3565b5090565b620001c891905b80821115620001c4576000816000905550600101620001aa565b5090565b90565b610fcf80620001db6000396000f3006080604052600436106100c5576000357c0100000000000000000000000000000000000000000000000000000000900463ffffffff16806317d7de7c146100ca5780631e2c74f61461015a5780631ed83fd414610189578063252498a2146101f2578063715018a61461025b578063893d20e8146102725780638da5cb5b146102c9578063ad2e8c9b14610320578063c47f00271461034b578063d13319c4146103b4578063d6bd872714610444578063f1152677146104d4578063f2fde38b1461063c575b600080fd5b3480156100d657600080fd5b506100df61067f565b6040518080602001828103825283818151815260200191508051906020019080838360005b8381101561011f578082015181840152602081019050610104565b50505050905090810190601f16801561014c5780820380516001836020036101000a031916815260200191505b509250505060405180910390f35b34801561016657600080fd5b50610187600480360381019080803515159060200190929190505050610721565b005b34801561019557600080fd5b506101f0600480360381019080803590602001908201803590602001908080601f01602080910402602001604051908101604052809392919081815260200183838082843782019150505050505091929192905050506107c2565b005b3480156101fe57600080fd5b50610259600480360381019080803590602001908201803590602001908080601f0160208091040260200160405190810160405280939291908181526020018383808284378201915050505050509192919290505050610837565b005b34801561026757600080fd5b506102706108ac565b005b34801561027e57600080fd5b506102876109ae565b604051808273ffffffffffffffffffffffffffffffffffffffff1673ffffffffffffffffffffffffffffffffffffffff16815260200191505060405180910390f35b3480156102d557600080fd5b506102de6109d7565b604051808273ffffffffffffffffffffffffffffffffffffffff1673ffffffffffffffffffffffffffffffffffffffff16815260200191505060405180910390f35b34801561032c57600080fd5b506103356109fc565b6040518082815260200191505060405180910390f35b34801561035757600080fd5b506103b2600480360381019080803590602001908201803590602001908080601f0160208091040260200160405190810160405280939291908181526020018383808284378201915050505050509192919290505050610a06565b005b3480156103c057600080fd5b506103c9610a7b565b6040518080602001828103825283818151815260200191508051906020019080838360005b838110156104095780820151818401526020810190506103ee565b50505050905090810190601f1680156104365780820380516001836020036101000a031916815260200191505b509250505060405180910390f35b34801561045057600080fd5b50610459610b1d565b6040518080602001828103825283818151815260200191508051906020019080838360005b8381101561049957808201518184015260208101905061047e565b50505050905090810190601f1680156104c65780820380516001836020036101000a031916815260200191505b509250505060405180910390f35b3480156104e057600080fd5b506104e9610bbf565b60405180806020018060200180602001848103845287818151815260200191508051906020019080838360005b83811015610531578082015181840152602081019050610516565b50505050905090810190601f16801561055e5780820380516001836020036101000a031916815260200191505b50848103835286818151815260200191508051906020019080838360005b8381101561059757808201518184015260208101905061057c565b50505050905090810190601f1680156105c45780820380516001836020036101000a031916815260200191505b50848103825285818151815260200191508051906020019080838360005b838110156105fd5780820151818401526020810190506105e2565b50505050905090810190601f16801561062a5780820380516001836020036101000a031916815260200191505b50965050505050505060405180910390f35b34801561064857600080fd5b5061067d600480360381019080803573ffffffffffffffffffffffffffffffffffffffff169060200190929190505050610da9565b005b606060018054600181600116156101000203166002900480601f0160208091040260200160405190810160405280929190818152602001828054600181600116156101000203166002900480156107175780601f106106ec57610100808354040283529160200191610717565b820191906000526020600020905b8154815290600101906020018083116106fa57829003601f168201915b5050505050905090565b6000809054906101000a900473ffffffffffffffffffffffffffffffffffffffff1673ffffffffffffffffffffffffffffffffffffffff163373ffffffffffffffffffffffffffffffffffffffff1614151561077c57600080fd5b80151561078857600080fd5b6000809054906101000a900473ffffffffffffffffffffffffffffffffffffffff1673ffffffffffffffffffffffffffffffffffffffff16ff5b6000809054906101000a900473ffffffffffffffffffffffffffffffffffffffff1673ffffffffffffffffffffffffffffffffffffffff163373ffffffffffffffffffffffffffffffffffffffff1614151561081d57600080fd5b8060039080519060200190610833929190610efe565b5050565b6000809054906101000a900473ffffffffffffffffffffffffffffffffffffffff1673ffffffffffffffffffffffffffffffffffffffff163373ffffffffffffffffffffffffffffffffffffffff1614151561089257600080fd5b80600290805190602001906108a8929190610efe565b5050565b6000809054906101000a900473ffffffffffffffffffffffffffffffffffffffff1673ffffffffffffffffffffffffffffffffffffffff163373ffffffffffffffffffffffffffffffffffffffff1614151561090757600080fd5b6000809054906101000a900473ffffffffffffffffffffffffffffffffffffffff1673ffffffffffffffffffffffffffffffffffffffff167ff8df31144d9c2f0f6b59d69b8b98abd5459d07f2742c4df920b25aae33c6482060405160405180910390a260008060006101000a81548173ffffffffffffffffffffffffffffffffffffffff021916908373ffffffffffffffffffffffffffffffffffffffff160217905550565b60008060009054906101000a900473ffffffffffffffffffffffffffffffffffffffff16905090565b6000809054906101000a900473ffffffffffffffffffffffffffffffffffffffff1681565b6000600554905090565b6000809054906101000a900473ffffffffffffffffffffffffffffffffffffffff1673ffffffffffffffffffffffffffffffffffffffff163373ffffffffffffffffffffffffffffffffffffffff16141515610a6157600080fd5b8060019080519060200190610a77929190610efe565b5050565b606060038054600181600116156101000203166002900480601f016020809104026020016040519081016040528092919081815260200182805460018160011615610100020316600290048015610b135780601f10610ae857610100808354040283529160200191610b13565b820191906000526020600020905b815481529060010190602001808311610af657829003601f168201915b5050505050905090565b606060028054600181600116156101000203166002900480601f016020809104026020016040519081016040528092919081815260200182805460018160011615610100020316600290048015610bb55780601f10610b8a57610100808354040283529160200191610bb5565b820191906000526020600020905b815481529060010190602001808311610b9857829003601f168201915b5050505050905090565b6060806060600160026003828054600181600116156101000203166002900480601f016020809104026020016040519081016040528092919081815260200182805460018160011615610100020316600290048015610c5f5780601f10610c3457610100808354040283529160200191610c5f565b820191906000526020600020905b815481529060010190602001808311610c4257829003601f168201915b50505050509250818054600181600116156101000203166002900480601f016020809104026020016040519081016040528092919081815260200182805460018160011615610100020316600290048015610cfb5780601f10610cd057610100808354040283529160200191610cfb565b820191906000526020600020905b815481529060010190602001808311610cde57829003601f168201915b50505050509150808054600181600116156101000203166002900480601f016020809104026020016040519081016040528092919081815260200182805460018160011615610100020316600290048015610d975780601f10610d6c57610100808354040283529160200191610d97565b820191906000526020600020905b815481529060010190602001808311610d7a57829003601f168201915b50505050509050925092509250909192565b6000809054906101000a900473ffffffffffffffffffffffffffffffffffffffff1673ffffffffffffffffffffffffffffffffffffffff163373ffffffffffffffffffffffffffffffffffffffff16141515610e0457600080fd5b600073ffffffffffffffffffffffffffffffffffffffff168173ffffffffffffffffffffffffffffffffffffffff1614151515610e4057600080fd5b8073ffffffffffffffffffffffffffffffffffffffff166000809054906101000a900473ffffffffffffffffffffffffffffffffffffffff1673ffffffffffffffffffffffffffffffffffffffff167f8be0079c531659141344cd1fd0a4f28419497f9722a3daafe3b4186f6b6457e060405160405180910390a3806000806101000a81548173ffffffffffffffffffffffffffffffffffffffff021916908373ffffffffffffffffffffffffffffffffffffffff16021790555050565b828054600181600116156101000203166002900490600052602060002090601f016020900481019282601f10610f3f57805160ff1916838001178555610f6d565b82800160010185558215610f6d579182015b82811115610f6c578251825591602001919060010190610f51565b5b509050610f7a9190610f7e565b5090565b610fa091905b80821115610f9c576000816000905550600101610f84565b5090565b905600a165627a7a72305820d06d38bfcf023602fbb6bf311f7419dde9cf2ee09934ef85c72c7e1dfc3207d80029a165627a7a72305820c823e1bf11439e39ebd22442637e50f484925a2973c7d0f09ef5c02edc8b73e70029",
  "source": "pragma solidity ^0.4.17;\n\nimport \"./Sponsor.sol\";\nimport \"./Ownable.sol\";\n//expire\n//pending\ncontract FactorySponsor is Ownable{\n\n\n    bool isActive;\n    uint sponsorLimit;\n    uint sponsorCount;\n    uint price;\n\n\n    address[] public Sponsors;//\n    mapping (address => address) public addressToSponsor;\n\n    event beenSponsor(address indexed sponsor, string name, uint month, uint timestamp);\n    event removedSponsor(address indexed sponsor, string name,uint month, uint timestamp);\n    event expiredSponsor(address indexed sponsor, string name,uint month, uint timestamp);\n\n    modifier Active(){\n        require(isActive);\n        _;\n    }\n\n    constructor(uint _sponsorLimit,uint _price)public{\n        sponsorLimit=_sponsorLimit;\n        price=_price;\n\n    }\n    //expire need\n    function beSponsor(string _name,string _url,string _imageHash,uint _duration)\n    payable\n    Active\n    public{\n        require(msg.value >= price * (1 finney) );\n        require(sponsorCount < sponsorLimit);\n        // require(addressToSponsor[msg.sender]==address(0));\n\n        Sponsor _sponsor=new Sponsor(_name,_url,_imageHash,_duration);\n        Sponsors.push(address(_sponsor));\n        addressToSponsor[msg.sender]=address(_sponsor);\n        sponsorCount+=1;\n        emit beenSponsor(address(_sponsor),_name,_duration, now);\n\n    }\n\n    //admin methods\n    function removeSponsor(uint _index) public onlyOwner\n    {\n        Sponsor _temp=Sponsor(Sponsors[_index]);\n        delete addressToSponsor[_temp.getOwner()];\n        delete Sponsors[_index];\n        sponsorCount-=1;\n        emit removedSponsor(address(_temp), _temp.getName(), _temp.getDuration(), now);\n    }\n\n    function setLimit(uint _limit) public onlyOwner{\n        require(_limit>=sponsorCount);\n        sponsorLimit=_limit;\n    }\n    function getLimit() public view returns(uint){\n        return sponsorLimit;\n    }\n    function setActive(bool _isActive) public onlyOwner(){\n        isActive=_isActive;\n    }\n    function getActive() public view returns(bool){\n        return isActive;\n    }\n    function setPrice(uint _price) public onlyOwner(){\n        price=_price;\n    }\n    function getPrice() public view returns(uint){\n        return price;\n    }\n    function getSponsor(uint _index) public view returns(address){\n        return Sponsors[_index];\n    }\n    function getSponsorCount() public view returns(uint){\n        return sponsorCount;\n    }\n}",
  "sourcePath": "/home/mevlana/Documents/blockchain-workspace/adhereum/contracts/FactorySponsor.sol",
  "compiler": {
    "name": "solc",
    "version": "0.4.24+commit.e67f0147.Emscripten.clang"
  },
  "schemaVersion": "2.0.1",
  "updatedAt": "2018-06-30T07:22:36.729Z"
}