{
  "contractName": "FactorySponsor",
  "abi": [
    {
      "constant": true,
      "inputs": [
        {
          "name": "",
          "type": "uint256"
        }
      ],
      "name": "pendingList",
      "outputs": [
        {
          "name": "name",
          "type": "string"
        },
        {
          "name": "url",
          "type": "string"
        },
        {
          "name": "imageHash",
          "type": "string"
        },
        {
          "name": "duration",
          "type": "uint256"
        },
        {
          "name": "status",
          "type": "uint256"
        },
        {
          "name": "owner",
          "type": "address"
        }
      ],
      "payable": false,
      "stateMutability": "view",
      "type": "function"
    },
    {
      "constant": true,
      "inputs": [
        {
          "name": "",
          "type": "address"
        }
      ],
      "name": "addressToSponsor",
      "outputs": [
        {
          "name": "",
          "type": "address"
        }
      ],
      "payable": false,
      "stateMutability": "view",
      "type": "function"
    },
    {
      "constant": false,
      "inputs": [],
      "name": "renounceOwnership",
      "outputs": [],
      "payable": false,
      "stateMutability": "nonpayable",
      "type": "function"
    },
    {
      "constant": true,
      "inputs": [],
      "name": "getOwner",
      "outputs": [
        {
          "name": "",
          "type": "address"
        }
      ],
      "payable": false,
      "stateMutability": "view",
      "type": "function"
    },
    {
      "constant": true,
      "inputs": [],
      "name": "owner",
      "outputs": [
        {
          "name": "",
          "type": "address"
        }
      ],
      "payable": false,
      "stateMutability": "view",
      "type": "function"
    },
    {
      "constant": true,
      "inputs": [
        {
          "name": "",
          "type": "uint256"
        }
      ],
      "name": "Sponsors",
      "outputs": [
        {
          "name": "",
          "type": "address"
        }
      ],
      "payable": false,
      "stateMutability": "view",
      "type": "function"
    },
    {
      "constant": false,
      "inputs": [
        {
          "name": "newOwner",
          "type": "address"
        }
      ],
      "name": "transferOwnership",
      "outputs": [],
      "payable": false,
      "stateMutability": "nonpayable",
      "type": "function"
    },
    {
      "inputs": [
        {
          "name": "_sponsorLimit",
          "type": "uint256"
        },
        {
          "name": "_price",
          "type": "uint256"
        }
      ],
      "payable": false,
      "stateMutability": "nonpayable",
      "type": "constructor"
    },
    {
      "anonymous": false,
      "inputs": [
        {
          "indexed": false,
          "name": "_sponsor",
          "type": "address"
        },
        {
          "indexed": false,
          "name": "_name",
          "type": "string"
        }
      ],
      "name": "beenSponsor",
      "type": "event"
    },
    {
      "anonymous": false,
      "inputs": [
        {
          "indexed": false,
          "name": "_name",
          "type": "string"
        },
        {
          "indexed": false,
          "name": "_url",
          "type": "string"
        },
        {
          "indexed": false,
          "name": "_hash",
          "type": "string"
        },
        {
          "indexed": false,
          "name": "_duration",
          "type": "uint256"
        }
      ],
      "name": "pendedList",
      "type": "event"
    },
    {
      "anonymous": false,
      "inputs": [
        {
          "indexed": false,
          "name": "_address",
          "type": "address"
        },
        {
          "indexed": false,
          "name": "_name",
          "type": "string"
        }
      ],
      "name": "denySponsor",
      "type": "event"
    },
    {
      "anonymous": false,
      "inputs": [
        {
          "indexed": true,
          "name": "sponsor",
          "type": "address"
        },
        {
          "indexed": false,
          "name": "name",
          "type": "string"
        },
        {
          "indexed": false,
          "name": "month",
          "type": "uint256"
        }
      ],
      "name": "removedSponsor",
      "type": "event"
    },
    {
      "anonymous": false,
      "inputs": [
        {
          "indexed": true,
          "name": "sponsor",
          "type": "address"
        },
        {
          "indexed": false,
          "name": "name",
          "type": "string"
        },
        {
          "indexed": false,
          "name": "month",
          "type": "uint256"
        }
      ],
      "name": "expiredSponsor",
      "type": "event"
    },
    {
      "anonymous": false,
      "inputs": [
        {
          "indexed": true,
          "name": "previousOwner",
          "type": "address"
        }
      ],
      "name": "OwnershipRenounced",
      "type": "event"
    },
    {
      "anonymous": false,
      "inputs": [
        {
          "indexed": true,
          "name": "previousOwner",
          "type": "address"
        },
        {
          "indexed": true,
          "name": "newOwner",
          "type": "address"
        }
      ],
      "name": "OwnershipTransferred",
      "type": "event"
    },
    {
      "constant": false,
      "inputs": [
        {
          "name": "_name",
          "type": "string"
        },
        {
          "name": "_url",
          "type": "string"
        },
        {
          "name": "_imageHash",
          "type": "string"
        },
        {
          "name": "_duration",
          "type": "uint256"
        }
      ],
      "name": "beSponsor",
      "outputs": [],
      "payable": true,
      "stateMutability": "payable",
      "type": "function"
    },
    {
      "constant": false,
      "inputs": [
        {
          "name": "_index",
          "type": "uint256"
        }
      ],
      "name": "removeSponsor",
      "outputs": [],
      "payable": false,
      "stateMutability": "nonpayable",
      "type": "function"
    },
    {
      "constant": false,
      "inputs": [
        {
          "name": "_index",
          "type": "uint256"
        }
      ],
      "name": "confirm",
      "outputs": [],
      "payable": false,
      "stateMutability": "nonpayable",
      "type": "function"
    },
    {
      "constant": false,
      "inputs": [
        {
          "name": "_index",
          "type": "uint256"
        }
      ],
      "name": "deny",
      "outputs": [],
      "payable": false,
      "stateMutability": "nonpayable",
      "type": "function"
    },
    {
      "constant": true,
      "inputs": [],
      "name": "isAdmin",
      "outputs": [
        {
          "name": "",
          "type": "bool"
        }
      ],
      "payable": false,
      "stateMutability": "view",
      "type": "function"
    },
    {
      "constant": true,
      "inputs": [],
      "name": "getAdmin",
      "outputs": [
        {
          "name": "",
          "type": "address"
        }
      ],
      "payable": false,
      "stateMutability": "view",
      "type": "function"
    },
    {
      "constant": false,
      "inputs": [
        {
          "name": "_limit",
          "type": "uint256"
        }
      ],
      "name": "setLimit",
      "outputs": [],
      "payable": false,
      "stateMutability": "nonpayable",
      "type": "function"
    },
    {
      "constant": true,
      "inputs": [],
      "name": "getLimit",
      "outputs": [
        {
          "name": "",
          "type": "uint256"
        }
      ],
      "payable": false,
      "stateMutability": "view",
      "type": "function"
    },
    {
      "constant": false,
      "inputs": [
        {
          "name": "_isActive",
          "type": "bool"
        }
      ],
      "name": "setActive",
      "outputs": [],
      "payable": false,
      "stateMutability": "nonpayable",
      "type": "function"
    },
    {
      "constant": true,
      "inputs": [],
      "name": "getActive",
      "outputs": [
        {
          "name": "",
          "type": "bool"
        }
      ],
      "payable": false,
      "stateMutability": "view",
      "type": "function"
    },
    {
      "constant": false,
      "inputs": [
        {
          "name": "_price",
          "type": "uint256"
        }
      ],
      "name": "setPrice",
      "outputs": [],
      "payable": false,
      "stateMutability": "nonpayable",
      "type": "function"
    },
    {
      "constant": true,
      "inputs": [],
      "name": "getPrice",
      "outputs": [
        {
          "name": "",
          "type": "uint256"
        }
      ],
      "payable": false,
      "stateMutability": "view",
      "type": "function"
    },
    {
      "constant": true,
      "inputs": [
        {
          "name": "_index",
          "type": "uint256"
        }
      ],
      "name": "getSponsor",
      "outputs": [
        {
          "name": "",
          "type": "address"
        }
      ],
      "payable": false,
      "stateMutability": "view",
      "type": "function"
    },
    {
      "constant": true,
      "inputs": [],
      "name": "getSponsorCount",
      "outputs": [
        {
          "name": "",
          "type": "uint256"
        }
      ],
      "payable": false,
      "stateMutability": "view",
      "type": "function"
    },
    {
      "constant": true,
      "inputs": [
        {
          "name": "_ind",
          "type": "uint256"
        }
      ],
      "name": "getPendingList",
      "outputs": [
        {
          "name": "",
          "type": "string"
        },
        {
          "name": "",
          "type": "string"
        },
        {
          "name": "",
          "type": "string"
        },
        {
          "name": "",
          "type": "uint256"
        },
        {
          "name": "",
          "type": "uint256"
        }
      ],
      "payable": false,
      "stateMutability": "view",
      "type": "function"
    },
    {
      "constant": true,
      "inputs": [],
      "name": "getNumberPending",
      "outputs": [
        {
          "name": "",
          "type": "uint256"
        }
      ],
      "payable": false,
      "stateMutability": "view",
      "type": "function"
    },
    {
      "constant": true,
      "inputs": [],
      "name": "getInfo",
      "outputs": [
        {
          "name": "",
          "type": "uint256"
        },
        {
          "name": "",
          "type": "uint256"
        },
        {
          "name": "",
          "type": "uint256"
        },
        {
          "name": "",
          "type": "uint256"
        }
      ],
      "payable": false,
      "stateMutability": "view",
      "type": "function"
    }
  ],
  "bytecode": "0x608060405234801561001057600080fd5b506040516040806138c38339810180604052810190808051906020019092919080519060200190929190505050336000806101000a81548173ffffffffffffffffffffffffffffffffffffffff021916908373ffffffffffffffffffffffffffffffffffffffff16021790555081600181905550806003819055506001600060146101000a81548160ff021916908315150217905550505061380c806100b76000396000f30060806040526004361062000155576000357c0100000000000000000000000000000000000000000000000000000000900463ffffffff1680629ebb10146200015a578062c2527b146200018c57806303aca79214620001ba57806327ea6f2b146200038557806339d4397214620003b55780634485b5f9146200042557806350017f55146200045557806356f6628214620004db5780635a9b0b89146200050b57806363b3178a146200054e5780636e9960c3146200057c578063715018a614620005d657806384bcd25914620005f0578063893d20e814620006e45780638da5cb5b146200073e57806391b7f5ed146200079857806398d5fdca14620007c8578063acec338a14620007f6578063b295a00e1462000828578063b6db75a01462000856578063ba0179b51462000888578063bb18840914620008b8578063e122ec101462000a50578063f2fde38b1462000ac0575b600080fd5b3480156200016757600080fd5b506200017262000b06565b604051808215151515815260200191505060405180910390f35b3480156200019957600080fd5b50620001a462000b1c565b6040518082815260200191505060405180910390f35b348015620001c757600080fd5b50620001e86004803603810190808035906020019092919050505062000b26565b604051808060200180602001806020018781526020018681526020018573ffffffffffffffffffffffffffffffffffffffff1673ffffffffffffffffffffffffffffffffffffffff16815260200184810384528a818151815260200191508051906020019080838360005b838110156200027057808201518184015260208101905062000253565b50505050905090810190601f1680156200029e5780820380516001836020036101000a031916815260200191505b50848103835289818151815260200191508051906020019080838360005b83811015620002d9578082015181840152602081019050620002bc565b50505050905090810190601f168015620003075780820380516001836020036101000a031916815260200191505b50848103825288818151815260200191508051906020019080838360005b838110156200034257808201518184015260208101905062000325565b50505050905090810190601f168015620003705780820380516001836020036101000a031916815260200191505b50995050505050505050505060405180910390f35b3480156200039257600080fd5b50620003b36004803603810190808035906020019092919050505062000d66565b005b348015620003c257600080fd5b50620003e36004803603810190808035906020019092919050505062000dde565b604051808273ffffffffffffffffffffffffffffffffffffffff1673ffffffffffffffffffffffffffffffffffffffff16815260200191505060405180910390f35b3480156200043257600080fd5b50620004536004803603810190808035906020019092919050505062000e22565b005b3480156200046257600080fd5b5062000499600480360381019080803573ffffffffffffffffffffffffffffffffffffffff1690602001909291905050506200126b565b604051808273ffffffffffffffffffffffffffffffffffffffff1673ffffffffffffffffffffffffffffffffffffffff16815260200191505060405180910390f35b348015620004e857600080fd5b5062000509600480360381019080803590602001909291905050506200129e565b005b3480156200051857600080fd5b5062000523620014d3565b6040518085815260200184815260200183815260200182815260200194505050505060405180910390f35b3480156200055b57600080fd5b50620005666200150b565b6040518082815260200191505060405180910390f35b3480156200058957600080fd5b506200059462001518565b604051808273ffffffffffffffffffffffffffffffffffffffff1673ffffffffffffffffffffffffffffffffffffffff16815260200191505060405180910390f35b348015620005e357600080fd5b50620005ee62001541565b005b620006e2600480360381019080803590602001908201803590602001908080601f0160208091040260200160405190810160405280939291908181526020018383808284378201915050505050509192919290803590602001908201803590602001908080601f0160208091040260200160405190810160405280939291908181526020018383808284378201915050505050509192919290803590602001908201803590602001908080601f01602080910402602001604051908101604052809392919081815260200183838082843782019150505050505091929192908035906020019092919050505062001644565b005b348015620006f157600080fd5b50620006fc620019e5565b604051808273ffffffffffffffffffffffffffffffffffffffff1673ffffffffffffffffffffffffffffffffffffffff16815260200191505060405180910390f35b3480156200074b57600080fd5b506200075662001a0e565b604051808273ffffffffffffffffffffffffffffffffffffffff1673ffffffffffffffffffffffffffffffffffffffff16815260200191505060405180910390f35b348015620007a557600080fd5b50620007c66004803603810190808035906020019092919050505062001a33565b005b348015620007d557600080fd5b50620007e062001a99565b6040518082815260200191505060405180910390f35b3480156200080357600080fd5b506200082660048036038101908080351515906020019092919050505062001aa3565b005b3480156200083557600080fd5b506200084062001b1c565b6040518082815260200191505060405180910390f35b3480156200086357600080fd5b506200086e62001b26565b604051808215151515815260200191505060405180910390f35b3480156200089557600080fd5b50620008b66004803603810190808035906020019092919050505062001b7d565b005b348015620008c557600080fd5b50620008e66004803603810190808035906020019092919050505062002018565b60405180806020018060200180602001868152602001858152602001848103845289818151815260200191508051906020019080838360005b838110156200093c5780820151818401526020810190506200091f565b50505050905090810190601f1680156200096a5780820380516001836020036101000a031916815260200191505b50848103835288818151815260200191508051906020019080838360005b83811015620009a557808201518184015260208101905062000988565b50505050905090810190601f168015620009d35780820380516001836020036101000a031916815260200191505b50848103825287818151815260200191508051906020019080838360005b8381101562000a0e578082015181840152602081019050620009f1565b50505050905090810190601f16801562000a3c5780820380516001836020036101000a031916815260200191505b509850505050505050505060405180910390f35b34801562000a5d57600080fd5b5062000a7e60048036038101908080359060200190929190505050620022ba565b604051808273ffffffffffffffffffffffffffffffffffffffff1673ffffffffffffffffffffffffffffffffffffffff16815260200191505060405180910390f35b34801562000acd57600080fd5b5062000b04600480360381019080803573ffffffffffffffffffffffffffffffffffffffff169060200190929190505050620022f9565b005b60008060149054906101000a900460ff16905090565b6000600254905090565b60068181548110151562000b3657fe5b9060005260206000209060060201600091509050806000018054600181600116156101000203166002900480601f01602080910402602001604051908101604052809291908181526020018280546001816001161561010002031660029004801562000be65780601f1062000bba5761010080835404028352916020019162000be6565b820191906000526020600020905b81548152906001019060200180831162000bc857829003601f168201915b505050505090806001018054600181600116156101000203166002900480601f01602080910402602001604051908101604052809291908181526020018280546001816001161561010002031660029004801562000c885780601f1062000c5c5761010080835404028352916020019162000c88565b820191906000526020600020905b81548152906001019060200180831162000c6a57829003601f168201915b505050505090806002018054600181600116156101000203166002900480601f01602080910402602001604051908101604052809291908181526020018280546001816001161561010002031660029004801562000d2a5780601f1062000cfe5761010080835404028352916020019162000d2a565b820191906000526020600020905b81548152906001019060200180831162000d0c57829003601f168201915b5050505050908060030154908060040154908060050160009054906101000a900473ffffffffffffffffffffffffffffffffffffffff16905086565b6000809054906101000a900473ffffffffffffffffffffffffffffffffffffffff1673ffffffffffffffffffffffffffffffffffffffff163373ffffffffffffffffffffffffffffffffffffffff1614151562000dc257600080fd5b600254811015151562000dd457600080fd5b8060018190555050565b600060048281548110151562000df057fe5b9060005260206000200160009054906101000a900473ffffffffffffffffffffffffffffffffffffffff169050919050565b60008060009054906101000a900473ffffffffffffffffffffffffffffffffffffffff1673ffffffffffffffffffffffffffffffffffffffff163373ffffffffffffffffffffffffffffffffffffffff1614151562000e8057600080fd5b60048281548110151562000e9057fe5b9060005260206000200160009054906101000a900473ffffffffffffffffffffffffffffffffffffffff169050600560008273ffffffffffffffffffffffffffffffffffffffff1663893d20e86040518163ffffffff167c0100000000000000000000000000000000000000000000000000000000028152600401602060405180830381600087803b15801562000f2657600080fd5b505af115801562000f3b573d6000803e3d6000fd5b505050506040513d602081101562000f5257600080fd5b810190808051906020019092919050505073ffffffffffffffffffffffffffffffffffffffff1673ffffffffffffffffffffffffffffffffffffffff16815260200190815260200160002060006101000a81549073ffffffffffffffffffffffffffffffffffffffff021916905560048281548110151562000fd057fe5b9060005260206000200160006101000a81549073ffffffffffffffffffffffffffffffffffffffff021916905560016002600082825403925050819055508073ffffffffffffffffffffffffffffffffffffffff167f48e9b020740944701933bca8e3d5e864bbd8daf274894e92175030a9caf196288273ffffffffffffffffffffffffffffffffffffffff166317d7de7c6040518163ffffffff167c0100000000000000000000000000000000000000000000000000000000028152600401600060405180830381600087803b158015620010ab57600080fd5b505af1158015620010c0573d6000803e3d6000fd5b505050506040513d6000823e3d601f19601f820116820180604052506020811015620010eb57600080fd5b8101908080516401000000008111156200110457600080fd5b828101905060208101848111156200111b57600080fd5b81518560018202830111640100000000821117156200113957600080fd5b50509291905050508373ffffffffffffffffffffffffffffffffffffffff1663ad2e8c9b6040518163ffffffff167c0100000000000000000000000000000000000000000000000000000000028152600401602060405180830381600087803b158015620011a657600080fd5b505af1158015620011bb573d6000803e3d6000fd5b505050506040513d6020811015620011d257600080fd5b81019080805190602001909291905050506040518080602001838152602001828103825284818151815260200191508051906020019080838360005b838110156200122b5780820151818401526020810190506200120e565b50505050905090810190601f168015620012595780820380516001836020036101000a031916815260200191505b50935050505060405180910390a25050565b60056020528060005260406000206000915054906101000a900473ffffffffffffffffffffffffffffffffffffffff1681565b60008060009054906101000a900473ffffffffffffffffffffffffffffffffffffffff1673ffffffffffffffffffffffffffffffffffffffff163373ffffffffffffffffffffffffffffffffffffffff16141515620012fc57600080fd5b6006828154811015156200130c57fe5b90600052602060002090600602019050600081600401541415156200133057600080fd5b600281600401819055508060050160009054906101000a900473ffffffffffffffffffffffffffffffffffffffff1673ffffffffffffffffffffffffffffffffffffffff166108fc826003015466038d7ea4c6800060035402029081150290604051600060405180830381858888f19350505050158015620013b6573d6000803e3d6000fd5b507f7ee82883a2c3c3a5240320927ae45b64cc2ea63125044f3ebd009af41e06124e8160050160009054906101000a900473ffffffffffffffffffffffffffffffffffffffff1682600001604051808373ffffffffffffffffffffffffffffffffffffffff1673ffffffffffffffffffffffffffffffffffffffff16815260200180602001828103825283818154600181600116156101000203166002900481526020019150805460018160011615610100020316600290048015620014c05780601f106200149457610100808354040283529160200191620014c0565b820191906000526020600020905b815481529060010190602001808311620014a257829003601f168201915b5050935050505060405180910390a15050565b6000806000806002546006805490506001543073ffffffffffffffffffffffffffffffffffffffff1631935093509350935090919293565b6000600680549050905090565b60008060009054906101000a900473ffffffffffffffffffffffffffffffffffffffff16905090565b6000809054906101000a900473ffffffffffffffffffffffffffffffffffffffff1673ffffffffffffffffffffffffffffffffffffffff163373ffffffffffffffffffffffffffffffffffffffff161415156200159d57600080fd5b6000809054906101000a900473ffffffffffffffffffffffffffffffffffffffff1673ffffffffffffffffffffffffffffffffffffffff167ff8df31144d9c2f0f6b59d69b8b98abd5459d07f2742c4df920b25aae33c6482060405160405180910390a260008060006101000a81548173ffffffffffffffffffffffffffffffffffffffff021916908373ffffffffffffffffffffffffffffffffffffffff160217905550565b600060149054906101000a900460ff1615156200166057600080fd5b8066038d7ea4c68000600354020234101515156200167d57600080fd5b6001546002541015156200169057600080fd5b600073ffffffffffffffffffffffffffffffffffffffff16600560003373ffffffffffffffffffffffffffffffffffffffff1673ffffffffffffffffffffffffffffffffffffffff16815260200190815260200160002060009054906101000a900473ffffffffffffffffffffffffffffffffffffffff1673ffffffffffffffffffffffffffffffffffffffff161415156200172b57600080fd5b600660c060405190810160405280868152602001858152602001848152602001838152602001600081526020013373ffffffffffffffffffffffffffffffffffffffff16815250908060018154018082558091505090600182039060005260206000209060060201600090919290919091506000820151816000019080519060200190620017bb92919062002450565b506020820151816001019080519060200190620017da92919062002450565b506040820151816002019080519060200190620017f992919062002450565b50606082015181600301556080820151816004015560a08201518160050160006101000a81548173ffffffffffffffffffffffffffffffffffffffff021916908373ffffffffffffffffffffffffffffffffffffffff1602179055505050507fc0fc46507beefa45fe41b380bcc3cc7cbcef06a7c1e4dbd4c63e4bcfa847261f8484848460405180806020018060200180602001858152602001848103845288818151815260200191508051906020019080838360005b83811015620018cd578082015181840152602081019050620018b0565b50505050905090810190601f168015620018fb5780820380516001836020036101000a031916815260200191505b50848103835287818151815260200191508051906020019080838360005b838110156200193657808201518184015260208101905062001919565b50505050905090810190601f168015620019645780820380516001836020036101000a031916815260200191505b50848103825286818151815260200191508051906020019080838360005b838110156200199f57808201518184015260208101905062001982565b50505050905090810190601f168015620019cd5780820380516001836020036101000a031916815260200191505b5097505050505050505060405180910390a150505050565b60008060009054906101000a900473ffffffffffffffffffffffffffffffffffffffff16905090565b6000809054906101000a900473ffffffffffffffffffffffffffffffffffffffff1681565b6000809054906101000a900473ffffffffffffffffffffffffffffffffffffffff1673ffffffffffffffffffffffffffffffffffffffff163373ffffffffffffffffffffffffffffffffffffffff1614151562001a8f57600080fd5b8060038190555050565b6000600354905090565b6000809054906101000a900473ffffffffffffffffffffffffffffffffffffffff1673ffffffffffffffffffffffffffffffffffffffff163373ffffffffffffffffffffffffffffffffffffffff1614151562001aff57600080fd5b80600060146101000a81548160ff02191690831515021790555050565b6000600154905090565b60008060009054906101000a900473ffffffffffffffffffffffffffffffffffffffff1673ffffffffffffffffffffffffffffffffffffffff163373ffffffffffffffffffffffffffffffffffffffff1614905090565b6000806000809054906101000a900473ffffffffffffffffffffffffffffffffffffffff1673ffffffffffffffffffffffffffffffffffffffff163373ffffffffffffffffffffffffffffffffffffffff1614151562001bdc57600080fd5b60068381548110151562001bec57fe5b906000526020600020906006020191506000826004015414151562001c1057600080fd5b816000018260010183600201846003015462001c2b620024d7565b8080602001806020018060200185815260200184810384528881815460018160011615610100020316600290048152602001915080546001816001161561010002031660029004801562001cc35780601f1062001c975761010080835404028352916020019162001cc3565b820191906000526020600020905b81548152906001019060200180831162001ca557829003601f168201915b505084810383528781815460018160011615610100020316600290048152602001915080546001816001161561010002031660029004801562001d4a5780601f1062001d1e5761010080835404028352916020019162001d4a565b820191906000526020600020905b81548152906001019060200180831162001d2c57829003601f168201915b505084810382528681815460018160011615610100020316600290048152602001915080546001816001161561010002031660029004801562001dd15780601f1062001da55761010080835404028352916020019162001dd1565b820191906000526020600020905b81548152906001019060200180831162001db357829003601f168201915b5050975050505050505050604051809103906000f08015801562001df9573d6000803e3d6000fd5b50905060048190806001815401808255809150509060018203906000526020600020016000909192909190916101000a81548173ffffffffffffffffffffffffffffffffffffffff021916908373ffffffffffffffffffffffffffffffffffffffff1602179055505080600560008460050160009054906101000a900473ffffffffffffffffffffffffffffffffffffffff1673ffffffffffffffffffffffffffffffffffffffff1673ffffffffffffffffffffffffffffffffffffffff16815260200190815260200160002060006101000a81548173ffffffffffffffffffffffffffffffffffffffff021916908373ffffffffffffffffffffffffffffffffffffffff1602179055506001600260008282540192505081905550600182600401819055507fa10ad3d048bea14dee21673def6205be8cb75e51edf23f1030213074a61365ac8183600001604051808373ffffffffffffffffffffffffffffffffffffffff1673ffffffffffffffffffffffffffffffffffffffff16815260200180602001828103825283818154600181600116156101000203166002900481526020019150805460018160011615610100020316600290048015620020045780601f1062001fd85761010080835404028352916020019162002004565b820191906000526020600020905b81548152906001019060200180831162001fe657829003601f168201915b5050935050505060405180910390a1505050565b60608060606000806006868154811015156200203057fe5b90600052602060002090600602016000016006878154811015156200205157fe5b90600052602060002090600602016001016006888154811015156200207257fe5b90600052602060002090600602016002016006898154811015156200209357fe5b90600052602060002090600602016003015460068a815481101515620020b557fe5b906000526020600020906006020160040154848054600181600116156101000203166002900480601f016020809104026020016040519081016040528092919081815260200182805460018160011615610100020316600290048015620021605780601f10620021345761010080835404028352916020019162002160565b820191906000526020600020905b8154815290600101906020018083116200214257829003601f168201915b50505050509450838054600181600116156101000203166002900480601f016020809104026020016040519081016040528092919081815260200182805460018160011615610100020316600290048015620022005780601f10620021d45761010080835404028352916020019162002200565b820191906000526020600020905b815481529060010190602001808311620021e257829003601f168201915b50505050509350828054600181600116156101000203166002900480601f016020809104026020016040519081016040528092919081815260200182805460018160011615610100020316600290048015620022a05780601f106200227457610100808354040283529160200191620022a0565b820191906000526020600020905b8154815290600101906020018083116200228257829003601f168201915b505050505092509450945094509450945091939590929450565b600481815481101515620022ca57fe5b906000526020600020016000915054906101000a900473ffffffffffffffffffffffffffffffffffffffff1681565b6000809054906101000a900473ffffffffffffffffffffffffffffffffffffffff1673ffffffffffffffffffffffffffffffffffffffff163373ffffffffffffffffffffffffffffffffffffffff161415156200235557600080fd5b600073ffffffffffffffffffffffffffffffffffffffff168173ffffffffffffffffffffffffffffffffffffffff16141515156200239257600080fd5b8073ffffffffffffffffffffffffffffffffffffffff166000809054906101000a900473ffffffffffffffffffffffffffffffffffffffff1673ffffffffffffffffffffffffffffffffffffffff167f8be0079c531659141344cd1fd0a4f28419497f9722a3daafe3b4186f6b6457e060405160405180910390a3806000806101000a81548173ffffffffffffffffffffffffffffffffffffffff021916908373ffffffffffffffffffffffffffffffffffffffff16021790555050565b828054600181600116156101000203166002900490600052602060002090601f016020900481019282601f106200249357805160ff1916838001178555620024c4565b82800160010185558215620024c4579182015b82811115620024c3578251825591602001919060010190620024a6565b5b509050620024d39190620024e8565b5090565b6040516112d0806200251183390190565b6200250d91905b8082111562002509576000816000905550600101620024ef565b5090565b90560060806040523480156200001157600080fd5b50604051620012d0380380620012d083398101806040528101908080518201929190602001805182019291906020018051820192919060200180519060200190929190505050336000806101000a81548173ffffffffffffffffffffffffffffffffffffffff021916908373ffffffffffffffffffffffffffffffffffffffff1602179055508360019080519060200190620000af92919062000173565b508260029080519060200190620000c892919062000173565b508160039080519060200190620000e192919062000173565b5042600460006101000a81548167ffffffffffffffff021916908367ffffffffffffffff160217905550806005819055506200014381600460009054906101000a900467ffffffffffffffff1662000153640100000000026401000000009004565b6006819055505050505062000222565b60008167ffffffffffffffff168301600681905550600654905092915050565b828054600181600116156101000203166002900490600052602060002090601f016020900481019282601f10620001b657805160ff1916838001178555620001e7565b82800160010185558215620001e7579182015b82811115620001e6578251825591602001919060010190620001c9565b5b509050620001f69190620001fa565b5090565b6200021f91905b808211156200021b57600081600090555060010162000201565b5090565b90565b61109e80620002326000396000f3006080604052600436106100db576000357c0100000000000000000000000000000000000000000000000000000000900463ffffffff16806317d7de7c146100e05780631e2c74f6146101705780631ed83fd41461019f578063252498a214610208578063447f69e614610271578063715018a6146102c65780637eb0e5e5146102dd578063893d20e8146103085780638da5cb5b1461035f578063ad2e8c9b146103b6578063c47f0027146103e1578063d13319c41461044a578063d6bd8727146104da578063f11526771461056a578063f2fde38b146106d9575b600080fd5b3480156100ec57600080fd5b506100f561071c565b6040518080602001828103825283818151815260200191508051906020019080838360005b8381101561013557808201518184015260208101905061011a565b50505050905090810190601f1680156101625780820380516001836020036101000a031916815260200191505b509250505060405180910390f35b34801561017c57600080fd5b5061019d6004803603810190808035151590602001909291905050506107be565b005b3480156101ab57600080fd5b50610206600480360381019080803590602001908201803590602001908080601f016020809104026020016040519081016040528093929190818152602001838380828437820191505050505050919291929050505061085f565b005b34801561021457600080fd5b5061026f600480360381019080803590602001908201803590602001908080601f01602080910402602001604051908101604052809392919081815260200183838082843782019150505050505091929192905050506108d4565b005b34801561027d57600080fd5b506102b060048036038101908080359060200190929190803567ffffffffffffffff169060200190929190505050610949565b6040518082815260200191505060405180910390f35b3480156102d257600080fd5b506102db610969565b005b3480156102e957600080fd5b506102f2610a6b565b6040518082815260200191505060405180910390f35b34801561031457600080fd5b5061031d610a75565b604051808273ffffffffffffffffffffffffffffffffffffffff1673ffffffffffffffffffffffffffffffffffffffff16815260200191505060405180910390f35b34801561036b57600080fd5b50610374610a9e565b604051808273ffffffffffffffffffffffffffffffffffffffff1673ffffffffffffffffffffffffffffffffffffffff16815260200191505060405180910390f35b3480156103c257600080fd5b506103cb610ac3565b6040518082815260200191505060405180910390f35b3480156103ed57600080fd5b50610448600480360381019080803590602001908201803590602001908080601f0160208091040260200160405190810160405280939291908181526020018383808284378201915050505050509192919290505050610acd565b005b34801561045657600080fd5b5061045f610b42565b6040518080602001828103825283818151815260200191508051906020019080838360005b8381101561049f578082015181840152602081019050610484565b50505050905090810190601f1680156104cc5780820380516001836020036101000a031916815260200191505b509250505060405180910390f35b3480156104e657600080fd5b506104ef610be4565b6040518080602001828103825283818151815260200191508051906020019080838360005b8381101561052f578082015181840152602081019050610514565b50505050905090810190601f16801561055c5780820380516001836020036101000a031916815260200191505b509250505060405180910390f35b34801561057657600080fd5b5061057f610c86565b60405180806020018060200180602001858152602001848103845288818151815260200191508051906020019080838360005b838110156105cd5780820151818401526020810190506105b2565b50505050905090810190601f1680156105fa5780820380516001836020036101000a031916815260200191505b50848103835287818151815260200191508051906020019080838360005b83811015610633578082015181840152602081019050610618565b50505050905090810190601f1680156106605780820380516001836020036101000a031916815260200191505b50848103825286818151815260200191508051906020019080838360005b8381101561069957808201518184015260208101905061067e565b50505050905090810190601f1680156106c65780820380516001836020036101000a031916815260200191505b5097505050505050505060405180910390f35b3480156106e557600080fd5b5061071a600480360381019080803573ffffffffffffffffffffffffffffffffffffffff169060200190929190505050610e78565b005b606060018054600181600116156101000203166002900480601f0160208091040260200160405190810160405280929190818152602001828054600181600116156101000203166002900480156107b45780601f10610789576101008083540402835291602001916107b4565b820191906000526020600020905b81548152906001019060200180831161079757829003601f168201915b5050505050905090565b6000809054906101000a900473ffffffffffffffffffffffffffffffffffffffff1673ffffffffffffffffffffffffffffffffffffffff163373ffffffffffffffffffffffffffffffffffffffff1614151561081957600080fd5b80151561082557600080fd5b6000809054906101000a900473ffffffffffffffffffffffffffffffffffffffff1673ffffffffffffffffffffffffffffffffffffffff16ff5b6000809054906101000a900473ffffffffffffffffffffffffffffffffffffffff1673ffffffffffffffffffffffffffffffffffffffff163373ffffffffffffffffffffffffffffffffffffffff161415156108ba57600080fd5b80600390805190602001906108d0929190610fcd565b5050565b6000809054906101000a900473ffffffffffffffffffffffffffffffffffffffff1673ffffffffffffffffffffffffffffffffffffffff163373ffffffffffffffffffffffffffffffffffffffff1614151561092f57600080fd5b8060029080519060200190610945929190610fcd565b5050565b60008167ffffffffffffffff168301600681905550600654905092915050565b6000809054906101000a900473ffffffffffffffffffffffffffffffffffffffff1673ffffffffffffffffffffffffffffffffffffffff163373ffffffffffffffffffffffffffffffffffffffff161415156109c457600080fd5b6000809054906101000a900473ffffffffffffffffffffffffffffffffffffffff1673ffffffffffffffffffffffffffffffffffffffff167ff8df31144d9c2f0f6b59d69b8b98abd5459d07f2742c4df920b25aae33c6482060405160405180910390a260008060006101000a81548173ffffffffffffffffffffffffffffffffffffffff021916908373ffffffffffffffffffffffffffffffffffffffff160217905550565b6000600654905090565b60008060009054906101000a900473ffffffffffffffffffffffffffffffffffffffff16905090565b6000809054906101000a900473ffffffffffffffffffffffffffffffffffffffff1681565b6000600554905090565b6000809054906101000a900473ffffffffffffffffffffffffffffffffffffffff1673ffffffffffffffffffffffffffffffffffffffff163373ffffffffffffffffffffffffffffffffffffffff16141515610b2857600080fd5b8060019080519060200190610b3e929190610fcd565b5050565b606060038054600181600116156101000203166002900480601f016020809104026020016040519081016040528092919081815260200182805460018160011615610100020316600290048015610bda5780601f10610baf57610100808354040283529160200191610bda565b820191906000526020600020905b815481529060010190602001808311610bbd57829003601f168201915b5050505050905090565b606060028054600181600116156101000203166002900480601f016020809104026020016040519081016040528092919081815260200182805460018160011615610100020316600290048015610c7c5780601f10610c5157610100808354040283529160200191610c7c565b820191906000526020600020905b815481529060010190602001808311610c5f57829003601f168201915b5050505050905090565b60608060606000600160026003600554838054600181600116156101000203166002900480601f016020809104026020016040519081016040528092919081815260200182805460018160011615610100020316600290048015610d2b5780601f10610d0057610100808354040283529160200191610d2b565b820191906000526020600020905b815481529060010190602001808311610d0e57829003601f168201915b50505050509350828054600181600116156101000203166002900480601f016020809104026020016040519081016040528092919081815260200182805460018160011615610100020316600290048015610dc75780601f10610d9c57610100808354040283529160200191610dc7565b820191906000526020600020905b815481529060010190602001808311610daa57829003601f168201915b50505050509250818054600181600116156101000203166002900480601f016020809104026020016040519081016040528092919081815260200182805460018160011615610100020316600290048015610e635780601f10610e3857610100808354040283529160200191610e63565b820191906000526020600020905b815481529060010190602001808311610e4657829003601f168201915b50505050509150935093509350935090919293565b6000809054906101000a900473ffffffffffffffffffffffffffffffffffffffff1673ffffffffffffffffffffffffffffffffffffffff163373ffffffffffffffffffffffffffffffffffffffff16141515610ed357600080fd5b600073ffffffffffffffffffffffffffffffffffffffff168173ffffffffffffffffffffffffffffffffffffffff1614151515610f0f57600080fd5b8073ffffffffffffffffffffffffffffffffffffffff166000809054906101000a900473ffffffffffffffffffffffffffffffffffffffff1673ffffffffffffffffffffffffffffffffffffffff167f8be0079c531659141344cd1fd0a4f28419497f9722a3daafe3b4186f6b6457e060405160405180910390a3806000806101000a81548173ffffffffffffffffffffffffffffffffffffffff021916908373ffffffffffffffffffffffffffffffffffffffff16021790555050565b828054600181600116156101000203166002900490600052602060002090601f016020900481019282601f1061100e57805160ff191683800117855561103c565b8280016001018555821561103c579182015b8281111561103b578251825591602001919060010190611020565b5b509050611049919061104d565b5090565b61106f91905b8082111561106b576000816000905550600101611053565b5090565b905600a165627a7a72305820032009a444a6f9e4c0ae387e5796f8dce6a936c3eb51b21dc2334909efab00960029a165627a7a72305820ad86aec592c1c28e31addf38b8157f25c33f524eab88cd20e32b78424a145aa90029",
  "source": "pragma solidity ^0.4.17;\n\nimport \"./Sponsor.sol\";\nimport \"./Ownable.sol\";\n//expire\n//pending\ncontract FactorySponsor is Ownable{\n\n\n    bool isActive;\n    uint sponsorLimit;\n    uint sponsorCount;\n    uint price;\n\n\n    address[] public Sponsors;//\n    mapping (address => address) public addressToSponsor;\n\n    struct Pending{\n        string name;\n        string url;\n        string imageHash;\n        uint duration;\n        uint    status;//0->pending,1->confirm,2->deny and money back\n        address owner;\n    }\n\n    Pending[] public pendingList;\n\n//    [\"Finartz\",\"www.finartz.com\",\"QmV8aySCTTvkpHPS4RjBpMnPhuTbt6EdmMhrBVPFPRAZSb\",1,true],\n//    [\"Apple\",\"www.apple.com\",\"QmdLPh8Wk9aCHQTgPotkPG9Gbbc6Z7hUdrcdKUcfZ7nFTu*\",2,true],\n//    [\"Inoix\",\"www.inoix.com\",\"QmZQAZd9M7W7vj7HdzAifLBNZTnapZbD32LmcqM1Fj1h2h\",3,true],\n//    [\"Instagram\",\"www.google.com\",\"QmdLS83tKTBsAQQ3wGSqRUfrY3eKZcr5WWinDAJMv1GfNv\",3,false],\n//    [\"ConsenSys\",\"https://new.consensys.net\",\"QmaQUfuFuF4uGtoj4o6LdvPJu9DJE99bra7zk3eCYyDhEt\",2,true],\n//    [\"BKM\",\"https://bkm.com.tr/\",\"QmcoMVbowwHkwyQtySyVbL5vknU7UZ6ojP1vszZdfoNgmh\",2,true],\n\n\n    event beenSponsor(address _sponsor , string _name);\n    event pendedList(string _name, string _url,string _hash,uint _duration);\n\n    event denySponsor(address _address,string _name);\n\n    event removedSponsor(address indexed sponsor, string name,uint month);\n    event expiredSponsor(address indexed sponsor, string name,uint month);\n\n    modifier Active(){\n        require(isActive);\n        _;\n    }\n\n    constructor(uint _sponsorLimit,uint _price) public{\n        sponsorLimit=_sponsorLimit;\n        price=_price;\n        isActive=true;\n\n    }\n    //expire need\n    function beSponsor(string _name,string _url,string _imageHash,uint _duration)\n    payable\n    Active\n    public{\n        require(msg.value >= price * (1 finney) * _duration );\n        require(sponsorCount < sponsorLimit);\n\n        require(addressToSponsor[msg.sender]==address(0));//ayni hesapdan kayit yasak\n\n        pendingList.push(Pending({name:_name,url:_url,imageHash:_imageHash,duration:_duration,status:0,owner:msg.sender}));\n\n        emit pendedList(_name,_url,_imageHash,_duration);\n\n    }\n\n\n    //admin methods\n    function removeSponsor(uint _index)\n    onlyOwner\n    public\n    {\n        Sponsor _temp=Sponsor(Sponsors[_index]);\n        delete addressToSponsor[_temp.getOwner()];\n        delete Sponsors[_index];\n        sponsorCount-=1;\n        emit removedSponsor(address(_temp), _temp.getName(), _temp.getDuration());\n    }\n\n    function confirm(uint _index)\n    onlyOwner\n    public{\n\n        Pending storage  tmp=pendingList[_index];\n        require(tmp.status==0);  //if\n        Sponsor _sponsor=new Sponsor(tmp.name,tmp.url,tmp.imageHash,tmp.duration);\n        Sponsors.push(address(_sponsor));\n        addressToSponsor[tmp.owner]=address(_sponsor);\n        sponsorCount+=1;\n        tmp.status=1;\n        emit beenSponsor(address(_sponsor),tmp.name);\n\n    }\n    function deny(uint _index)\n    onlyOwner\n    public{\n        Pending storage  tmp=pendingList[_index];\n        require(tmp.status==0);\n        tmp.status=2;\n        tmp.owner.transfer(price * (1 finney) * tmp.duration);\n        emit denySponsor(tmp.owner,tmp.name);\n\n    }\n    function isAdmin() public view returns(bool){\n        return (msg.sender==owner);\n    }\n\n    function getAdmin() public view returns(address){\n        return owner;\n    }\n\n    function setLimit(uint _limit)\n    onlyOwner\n    public{\n        require(_limit>=sponsorCount);\n        sponsorLimit=_limit;\n    }\n\n    function getLimit() public view returns(uint){\n        return sponsorLimit;\n    }\n\n    function setActive(bool _isActive)\n    onlyOwner()\n    public{\n        isActive=_isActive;\n    }\n\n    function getActive() public view returns(bool){\n        return isActive;\n    }\n\n    function setPrice(uint _price) public onlyOwner(){\n        price=_price;\n    }\n\n    function getPrice() public view returns(uint){\n        return price;\n    }\n\n    function getSponsor(uint _index) public view returns(address){\n        return Sponsors[_index];\n    }\n\n    function getSponsorCount() public view returns(uint){\n        return sponsorCount;\n    }\n\n    function getPendingList(uint _ind) public view returns(string,string,string,uint,uint){\n        return (pendingList[_ind].name, pendingList[_ind].url,pendingList[_ind].imageHash,pendingList[_ind].duration,pendingList[_ind].status);\n    }\n\n    function getNumberPending() public view returns(uint){\n        return pendingList.length;\n    }\n\n    function getInfo() public view returns(uint,uint,uint,uint){\n        return (sponsorCount,pendingList.length,sponsorLimit,address(this).balance);\n    }\n\n    function expireDetect()\n    internal\n    {\n        uint i = 0;\n        for(i;i<sponsorCount;i++){\n        Sponsor _temp=Sponsor(Sponsors[i]);\n        require(uint64(now) >= _temp.getDeadTime());\n        delete addressToSponsor[_temp.getOwner()];\n        delete Sponsors[i];\n        sponsorCount-=1;\n        }\n    }\n\n\n}",
  "sourcePath": "/Users/fatih/Desktop/--Etherium--/adhereum/contracts/FactorySponsor.sol",
  "compiler": {
    "name": "solc",
    "version": "0.4.24+commit.e67f0147.Emscripten.clang"
  },
  "schemaVersion": "2.0.1",
  "updatedAt": "2018-08-20T14:13:58.447Z"
}