{
  "contractName": "FactorySponsor",
  "abi": [
    {
      "constant": true,
      "inputs": [
        {
          "name": "",
          "type": "address"
        }
      ],
      "name": "addressToSponsor",
      "outputs": [
        {
          "name": "",
          "type": "address"
        }
      ],
      "payable": false,
      "stateMutability": "view",
      "type": "function"
    },
    {
      "constant": false,
      "inputs": [],
      "name": "renounceOwnership",
      "outputs": [],
      "payable": false,
      "stateMutability": "nonpayable",
      "type": "function"
    },
    {
      "constant": true,
      "inputs": [],
      "name": "getOwner",
      "outputs": [
        {
          "name": "",
          "type": "address"
        }
      ],
      "payable": false,
      "stateMutability": "view",
      "type": "function"
    },
    {
      "constant": true,
      "inputs": [],
      "name": "owner",
      "outputs": [
        {
          "name": "",
          "type": "address"
        }
      ],
      "payable": false,
      "stateMutability": "view",
      "type": "function"
    },
    {
      "constant": true,
      "inputs": [
        {
          "name": "",
          "type": "uint256"
        }
      ],
      "name": "Sponsors",
      "outputs": [
        {
          "name": "",
          "type": "address"
        }
      ],
      "payable": false,
      "stateMutability": "view",
      "type": "function"
    },
    {
      "constant": false,
      "inputs": [
        {
          "name": "newOwner",
          "type": "address"
        }
      ],
      "name": "transferOwnership",
      "outputs": [],
      "payable": false,
      "stateMutability": "nonpayable",
      "type": "function"
    },
    {
      "inputs": [
        {
          "name": "_sponsorLimit",
          "type": "uint256"
        },
        {
          "name": "_price",
          "type": "uint256"
        }
      ],
      "payable": false,
      "stateMutability": "nonpayable",
      "type": "constructor"
    },
    {
      "anonymous": false,
      "inputs": [
        {
          "indexed": true,
          "name": "sponsor",
          "type": "address"
        },
        {
          "indexed": false,
          "name": "name",
          "type": "string"
        },
        {
          "indexed": false,
          "name": "month",
          "type": "uint256"
        },
        {
          "indexed": false,
          "name": "timestamp",
          "type": "uint256"
        }
      ],
      "name": "beenSponsor",
      "type": "event"
    },
    {
      "anonymous": false,
      "inputs": [
        {
          "indexed": true,
          "name": "sponsor",
          "type": "address"
        },
        {
          "indexed": false,
          "name": "name",
          "type": "string"
        },
        {
          "indexed": false,
          "name": "month",
          "type": "uint256"
        },
        {
          "indexed": false,
          "name": "timestamp",
          "type": "uint256"
        }
      ],
      "name": "removedSponsor",
      "type": "event"
    },
    {
      "anonymous": false,
      "inputs": [
        {
          "indexed": true,
          "name": "sponsor",
          "type": "address"
        },
        {
          "indexed": false,
          "name": "name",
          "type": "string"
        },
        {
          "indexed": false,
          "name": "month",
          "type": "uint256"
        },
        {
          "indexed": false,
          "name": "timestamp",
          "type": "uint256"
        }
      ],
      "name": "expiredSponsor",
      "type": "event"
    },
    {
      "anonymous": false,
      "inputs": [
        {
          "indexed": true,
          "name": "previousOwner",
          "type": "address"
        }
      ],
      "name": "OwnershipRenounced",
      "type": "event"
    },
    {
      "anonymous": false,
      "inputs": [
        {
          "indexed": true,
          "name": "previousOwner",
          "type": "address"
        },
        {
          "indexed": true,
          "name": "newOwner",
          "type": "address"
        }
      ],
      "name": "OwnershipTransferred",
      "type": "event"
    },
    {
      "constant": false,
      "inputs": [
        {
          "name": "_name",
          "type": "string"
        },
        {
          "name": "_url",
          "type": "string"
        },
        {
          "name": "_imageHash",
          "type": "bytes32"
        },
        {
          "name": "_duration",
          "type": "uint256"
        }
      ],
      "name": "beSponsor",
      "outputs": [],
      "payable": true,
      "stateMutability": "payable",
      "type": "function"
    },
    {
      "constant": false,
      "inputs": [
        {
          "name": "_index",
          "type": "uint256"
        }
      ],
      "name": "removeSponsor",
      "outputs": [],
      "payable": false,
      "stateMutability": "nonpayable",
      "type": "function"
    },
    {
      "constant": false,
      "inputs": [
        {
          "name": "_limit",
          "type": "uint256"
        }
      ],
      "name": "setLimit",
      "outputs": [],
      "payable": false,
      "stateMutability": "nonpayable",
      "type": "function"
    },
    {
      "constant": true,
      "inputs": [],
      "name": "getLimit",
      "outputs": [
        {
          "name": "",
          "type": "uint256"
        }
      ],
      "payable": false,
      "stateMutability": "view",
      "type": "function"
    },
    {
      "constant": false,
      "inputs": [
        {
          "name": "_isActive",
          "type": "bool"
        }
      ],
      "name": "setActive",
      "outputs": [],
      "payable": false,
      "stateMutability": "nonpayable",
      "type": "function"
    },
    {
      "constant": true,
      "inputs": [],
      "name": "getActive",
      "outputs": [
        {
          "name": "",
          "type": "bool"
        }
      ],
      "payable": false,
      "stateMutability": "view",
      "type": "function"
    },
    {
      "constant": false,
      "inputs": [
        {
          "name": "_price",
          "type": "uint256"
        }
      ],
      "name": "setPrice",
      "outputs": [],
      "payable": false,
      "stateMutability": "nonpayable",
      "type": "function"
    },
    {
      "constant": true,
      "inputs": [],
      "name": "getPrice",
      "outputs": [
        {
          "name": "",
          "type": "uint256"
        }
      ],
      "payable": false,
      "stateMutability": "view",
      "type": "function"
    },
    {
      "constant": true,
      "inputs": [
        {
          "name": "_index",
          "type": "uint256"
        }
      ],
      "name": "getSponsor",
      "outputs": [
        {
          "name": "",
          "type": "address"
        }
      ],
      "payable": false,
      "stateMutability": "view",
      "type": "function"
    },
    {
      "constant": true,
      "inputs": [],
      "name": "getSponsorCount",
      "outputs": [
        {
          "name": "",
          "type": "uint256"
        }
      ],
      "payable": false,
      "stateMutability": "view",
      "type": "function"
    }
  ],
  "bytecode": "0x608060405234801561001057600080fd5b506040516040806121e08339810180604052810190808051906020019092919080519060200190929190505050336000806101000a81548173ffffffffffffffffffffffffffffffffffffffff021916908373ffffffffffffffffffffffffffffffffffffffff160217905550816001819055508060038190555050506121448061009c6000396000f3006080604052600436106100e4576000357c0100000000000000000000000000000000000000000000000000000000900463ffffffff1680629ebb10146100e9578062c2527b1461011857806327ea6f2b1461014357806339d43972146101705780634485b5f9146101dd57806350017f551461020a578063715018a61461028d578063893d20e8146102a45780638da5cb5b146102fb57806391b7f5ed1461035257806398d5fdca1461037f5780639bc09fba146103aa578063acec338a14610464578063b295a00e14610493578063e122ec10146104be578063f2fde38b1461052b575b600080fd5b3480156100f557600080fd5b506100fe61056e565b604051808215151515815260200191505060405180910390f35b34801561012457600080fd5b5061012d610584565b6040518082815260200191505060405180910390f35b34801561014f57600080fd5b5061016e6004803603810190808035906020019092919050505061058e565b005b34801561017c57600080fd5b5061019b60048036038101908080359060200190929190505050610604565b604051808273ffffffffffffffffffffffffffffffffffffffff1673ffffffffffffffffffffffffffffffffffffffff16815260200191505060405180910390f35b3480156101e957600080fd5b5061020860048036038101908080359060200190929190505050610647565b005b34801561021657600080fd5b5061024b600480360381019080803573ffffffffffffffffffffffffffffffffffffffff169060200190929190505050610a86565b604051808273ffffffffffffffffffffffffffffffffffffffff1673ffffffffffffffffffffffffffffffffffffffff16815260200191505060405180910390f35b34801561029957600080fd5b506102a2610ab9565b005b3480156102b057600080fd5b506102b9610bbb565b604051808273ffffffffffffffffffffffffffffffffffffffff1673ffffffffffffffffffffffffffffffffffffffff16815260200191505060405180910390f35b34801561030757600080fd5b50610310610be4565b604051808273ffffffffffffffffffffffffffffffffffffffff1673ffffffffffffffffffffffffffffffffffffffff16815260200191505060405180910390f35b34801561035e57600080fd5b5061037d60048036038101908080359060200190929190505050610c09565b005b34801561038b57600080fd5b50610394610c6e565b6040518082815260200191505060405180910390f35b610462600480360381019080803590602001908201803590602001908080601f0160208091040260200160405190810160405280939291908181526020018383808284378201915050505050509192919290803590602001908201803590602001908080601f0160208091040260200160405190810160405280939291908181526020018383808284378201915050505050509192919290803560001916906020019092919080359060200190929190505050610c78565b005b34801561047057600080fd5b50610491600480360381019080803515159060200190929190505050610f9b565b005b34801561049f57600080fd5b506104a8611013565b6040518082815260200191505060405180910390f35b3480156104ca57600080fd5b506104e96004803603810190808035906020019092919050505061101d565b604051808273ffffffffffffffffffffffffffffffffffffffff1673ffffffffffffffffffffffffffffffffffffffff16815260200191505060405180910390f35b34801561053757600080fd5b5061056c600480360381019080803573ffffffffffffffffffffffffffffffffffffffff16906020019092919050505061105b565b005b60008060149054906101000a900460ff16905090565b6000600254905090565b6000809054906101000a900473ffffffffffffffffffffffffffffffffffffffff1673ffffffffffffffffffffffffffffffffffffffff163373ffffffffffffffffffffffffffffffffffffffff161415156105e957600080fd5b60025481101515156105fa57600080fd5b8060018190555050565b600060048281548110151561061557fe5b9060005260206000200160009054906101000a900473ffffffffffffffffffffffffffffffffffffffff169050919050565b60008060009054906101000a900473ffffffffffffffffffffffffffffffffffffffff1673ffffffffffffffffffffffffffffffffffffffff163373ffffffffffffffffffffffffffffffffffffffff161415156106a457600080fd5b6004828154811015156106b357fe5b9060005260206000200160009054906101000a900473ffffffffffffffffffffffffffffffffffffffff169050600560008273ffffffffffffffffffffffffffffffffffffffff1663893d20e86040518163ffffffff167c0100000000000000000000000000000000000000000000000000000000028152600401602060405180830381600087803b15801561074857600080fd5b505af115801561075c573d6000803e3d6000fd5b505050506040513d602081101561077257600080fd5b810190808051906020019092919050505073ffffffffffffffffffffffffffffffffffffffff1673ffffffffffffffffffffffffffffffffffffffff16815260200190815260200160002060006101000a81549073ffffffffffffffffffffffffffffffffffffffff02191690556004828154811015156107ef57fe5b9060005260206000200160006101000a81549073ffffffffffffffffffffffffffffffffffffffff021916905560016002600082825403925050819055508073ffffffffffffffffffffffffffffffffffffffff167f97e15dc6f061f439ea240096e3ead4f92c6425820aa138ba10d51c61cf389cf28273ffffffffffffffffffffffffffffffffffffffff166317d7de7c6040518163ffffffff167c0100000000000000000000000000000000000000000000000000000000028152600401600060405180830381600087803b1580156108c957600080fd5b505af11580156108dd573d6000803e3d6000fd5b505050506040513d6000823e3d601f19601f82011682018060405250602081101561090757600080fd5b81019080805164010000000081111561091f57600080fd5b8281019050602081018481111561093557600080fd5b815185600182028301116401000000008211171561095257600080fd5b50509291905050508373ffffffffffffffffffffffffffffffffffffffff1663ad2e8c9b6040518163ffffffff167c0100000000000000000000000000000000000000000000000000000000028152600401602060405180830381600087803b1580156109be57600080fd5b505af11580156109d2573d6000803e3d6000fd5b505050506040513d60208110156109e857600080fd5b8101908080519060200190929190505050426040518080602001848152602001838152602001828103825285818151815260200191508051906020019080838360005b83811015610a46578082015181840152602081019050610a2b565b50505050905090810190601f168015610a735780820380516001836020036101000a031916815260200191505b5094505050505060405180910390a25050565b60056020528060005260406000206000915054906101000a900473ffffffffffffffffffffffffffffffffffffffff1681565b6000809054906101000a900473ffffffffffffffffffffffffffffffffffffffff1673ffffffffffffffffffffffffffffffffffffffff163373ffffffffffffffffffffffffffffffffffffffff16141515610b1457600080fd5b6000809054906101000a900473ffffffffffffffffffffffffffffffffffffffff1673ffffffffffffffffffffffffffffffffffffffff167ff8df31144d9c2f0f6b59d69b8b98abd5459d07f2742c4df920b25aae33c6482060405160405180910390a260008060006101000a81548173ffffffffffffffffffffffffffffffffffffffff021916908373ffffffffffffffffffffffffffffffffffffffff160217905550565b60008060009054906101000a900473ffffffffffffffffffffffffffffffffffffffff16905090565b6000809054906101000a900473ffffffffffffffffffffffffffffffffffffffff1681565b6000809054906101000a900473ffffffffffffffffffffffffffffffffffffffff1673ffffffffffffffffffffffffffffffffffffffff163373ffffffffffffffffffffffffffffffffffffffff16141515610c6457600080fd5b8060038190555050565b6000600354905090565b60008060149054906101000a900460ff161515610c9457600080fd5b66038d7ea4c68000600354023410151515610cae57600080fd5b600154600254101515610cc057600080fd5b84848484610ccc6111b0565b8080602001806020018560001916600019168152602001848152602001838103835287818151815260200191508051906020019080838360005b83811015610d21578082015181840152602081019050610d06565b50505050905090810190601f168015610d4e5780820380516001836020036101000a031916815260200191505b50838103825286818151815260200191508051906020019080838360005b83811015610d87578082015181840152602081019050610d6c565b50505050905090810190601f168015610db45780820380516001836020036101000a031916815260200191505b509650505050505050604051809103906000f080158015610dd9573d6000803e3d6000fd5b50905060048190806001815401808255809150509060018203906000526020600020016000909192909190916101000a81548173ffffffffffffffffffffffffffffffffffffffff021916908373ffffffffffffffffffffffffffffffffffffffff1602179055505080600560003373ffffffffffffffffffffffffffffffffffffffff1673ffffffffffffffffffffffffffffffffffffffff16815260200190815260200160002060006101000a81548173ffffffffffffffffffffffffffffffffffffffff021916908373ffffffffffffffffffffffffffffffffffffffff16021790555060016002600082825401925050819055508073ffffffffffffffffffffffffffffffffffffffff167fbda39769c9e35f448632f2601173736722be57affbe9baabe6e75f0d1cad23dc8684426040518080602001848152602001838152602001828103825285818151815260200191508051906020019080838360005b83811015610f58578082015181840152602081019050610f3d565b50505050905090810190601f168015610f855780820380516001836020036101000a031916815260200191505b5094505050505060405180910390a25050505050565b6000809054906101000a900473ffffffffffffffffffffffffffffffffffffffff1673ffffffffffffffffffffffffffffffffffffffff163373ffffffffffffffffffffffffffffffffffffffff16141515610ff657600080fd5b80600060146101000a81548160ff02191690831515021790555050565b6000600154905090565b60048181548110151561102c57fe5b906000526020600020016000915054906101000a900473ffffffffffffffffffffffffffffffffffffffff1681565b6000809054906101000a900473ffffffffffffffffffffffffffffffffffffffff1673ffffffffffffffffffffffffffffffffffffffff163373ffffffffffffffffffffffffffffffffffffffff161415156110b657600080fd5b600073ffffffffffffffffffffffffffffffffffffffff168173ffffffffffffffffffffffffffffffffffffffff16141515156110f257600080fd5b8073ffffffffffffffffffffffffffffffffffffffff166000809054906101000a900473ffffffffffffffffffffffffffffffffffffffff1673ffffffffffffffffffffffffffffffffffffffff167f8be0079c531659141344cd1fd0a4f28419497f9722a3daafe3b4186f6b6457e060405160405180910390a3806000806101000a81548173ffffffffffffffffffffffffffffffffffffffff021916908373ffffffffffffffffffffffffffffffffffffffff16021790555050565b604051610f58806111c1833901905600608060405234801561001057600080fd5b50604051610f58380380610f5883398101806040528101908080518201929190602001805182019291906020018051906020019092919080519060200190929190505050336000806101000a81548173ffffffffffffffffffffffffffffffffffffffff021916908373ffffffffffffffffffffffffffffffffffffffff16021790555083600190805190602001906100aa929190610106565b5082600290805190602001906100c1929190610106565b50816003816000191690555042600460006101000a81548167ffffffffffffffff021916908367ffffffffffffffff16021790555080600581905550505050506101ab565b828054600181600116156101000203166002900490600052602060002090601f016020900481019282601f1061014757805160ff1916838001178555610175565b82800160010185558215610175579182015b82811115610174578251825591602001919060010190610159565b5b5090506101829190610186565b5090565b6101a891905b808211156101a457600081600090555060010161018c565b5090565b90565b610d9e806101ba6000396000f3006080604052600436106100c5576000357c0100000000000000000000000000000000000000000000000000000000900463ffffffff1680630c4c4285146100ca57806317d7de7c146100fb5780631e2c74f61461018b578063252498a2146101ba578063715018a614610223578063893d20e81461023a5780638da5cb5b14610291578063ad2e8c9b146102e8578063c47f002714610313578063d13319c41461037c578063d6bd8727146103af578063f11526771461043f578063f2fde38b1461054a575b600080fd5b3480156100d657600080fd5b506100f9600480360381019080803560001916906020019092919050505061058d565b005b34801561010757600080fd5b506101106105f6565b6040518080602001828103825283818151815260200191508051906020019080838360005b83811015610150578082015181840152602081019050610135565b50505050905090810190601f16801561017d5780820380516001836020036101000a031916815260200191505b509250505060405180910390f35b34801561019757600080fd5b506101b8600480360381019080803515159060200190929190505050610698565b005b3480156101c657600080fd5b50610221600480360381019080803590602001908201803590602001908080601f0160208091040260200160405190810160405280939291908181526020018383808284378201915050505050509192919290505050610739565b005b34801561022f57600080fd5b506102386107ae565b005b34801561024657600080fd5b5061024f6108b0565b604051808273ffffffffffffffffffffffffffffffffffffffff1673ffffffffffffffffffffffffffffffffffffffff16815260200191505060405180910390f35b34801561029d57600080fd5b506102a66108d9565b604051808273ffffffffffffffffffffffffffffffffffffffff1673ffffffffffffffffffffffffffffffffffffffff16815260200191505060405180910390f35b3480156102f457600080fd5b506102fd6108fe565b6040518082815260200191505060405180910390f35b34801561031f57600080fd5b5061037a600480360381019080803590602001908201803590602001908080601f0160208091040260200160405190810160405280939291908181526020018383808284378201915050505050509192919290505050610908565b005b34801561038857600080fd5b5061039161097d565b60405180826000191660001916815260200191505060405180910390f35b3480156103bb57600080fd5b506103c4610987565b6040518080602001828103825283818151815260200191508051906020019080838360005b838110156104045780820151818401526020810190506103e9565b50505050905090810190601f1680156104315780820380516001836020036101000a031916815260200191505b509250505060405180910390f35b34801561044b57600080fd5b50610454610a29565b6040518080602001806020018460001916600019168152602001838103835286818151815260200191508051906020019080838360005b838110156104a657808201518184015260208101905061048b565b50505050905090810190601f1680156104d35780820380516001836020036101000a031916815260200191505b50838103825285818151815260200191508051906020019080838360005b8381101561050c5780820151818401526020810190506104f1565b50505050905090810190601f1680156105395780820380516001836020036101000a031916815260200191505b509550505050505060405180910390f35b34801561055657600080fd5b5061058b600480360381019080803573ffffffffffffffffffffffffffffffffffffffff169060200190929190505050610b78565b005b6000809054906101000a900473ffffffffffffffffffffffffffffffffffffffff1673ffffffffffffffffffffffffffffffffffffffff163373ffffffffffffffffffffffffffffffffffffffff161415156105e857600080fd5b806003816000191690555050565b606060018054600181600116156101000203166002900480601f01602080910402602001604051908101604052809291908181526020018280546001816001161561010002031660029004801561068e5780601f106106635761010080835404028352916020019161068e565b820191906000526020600020905b81548152906001019060200180831161067157829003601f168201915b5050505050905090565b6000809054906101000a900473ffffffffffffffffffffffffffffffffffffffff1673ffffffffffffffffffffffffffffffffffffffff163373ffffffffffffffffffffffffffffffffffffffff161415156106f357600080fd5b8015156106ff57600080fd5b6000809054906101000a900473ffffffffffffffffffffffffffffffffffffffff1673ffffffffffffffffffffffffffffffffffffffff16ff5b6000809054906101000a900473ffffffffffffffffffffffffffffffffffffffff1673ffffffffffffffffffffffffffffffffffffffff163373ffffffffffffffffffffffffffffffffffffffff1614151561079457600080fd5b80600290805190602001906107aa929190610ccd565b5050565b6000809054906101000a900473ffffffffffffffffffffffffffffffffffffffff1673ffffffffffffffffffffffffffffffffffffffff163373ffffffffffffffffffffffffffffffffffffffff1614151561080957600080fd5b6000809054906101000a900473ffffffffffffffffffffffffffffffffffffffff1673ffffffffffffffffffffffffffffffffffffffff167ff8df31144d9c2f0f6b59d69b8b98abd5459d07f2742c4df920b25aae33c6482060405160405180910390a260008060006101000a81548173ffffffffffffffffffffffffffffffffffffffff021916908373ffffffffffffffffffffffffffffffffffffffff160217905550565b60008060009054906101000a900473ffffffffffffffffffffffffffffffffffffffff16905090565b6000809054906101000a900473ffffffffffffffffffffffffffffffffffffffff1681565b6000600554905090565b6000809054906101000a900473ffffffffffffffffffffffffffffffffffffffff1673ffffffffffffffffffffffffffffffffffffffff163373ffffffffffffffffffffffffffffffffffffffff1614151561096357600080fd5b8060019080519060200190610979929190610ccd565b5050565b6000600354905090565b606060028054600181600116156101000203166002900480601f016020809104026020016040519081016040528092919081815260200182805460018160011615610100020316600290048015610a1f5780601f106109f457610100808354040283529160200191610a1f565b820191906000526020600020905b815481529060010190602001808311610a0257829003601f168201915b5050505050905090565b606080600060016002600354828054600181600116156101000203166002900480601f016020809104026020016040519081016040528092919081815260200182805460018160011615610100020316600290048015610aca5780601f10610a9f57610100808354040283529160200191610aca565b820191906000526020600020905b815481529060010190602001808311610aad57829003601f168201915b50505050509250818054600181600116156101000203166002900480601f016020809104026020016040519081016040528092919081815260200182805460018160011615610100020316600290048015610b665780601f10610b3b57610100808354040283529160200191610b66565b820191906000526020600020905b815481529060010190602001808311610b4957829003601f168201915b50505050509150925092509250909192565b6000809054906101000a900473ffffffffffffffffffffffffffffffffffffffff1673ffffffffffffffffffffffffffffffffffffffff163373ffffffffffffffffffffffffffffffffffffffff16141515610bd357600080fd5b600073ffffffffffffffffffffffffffffffffffffffff168173ffffffffffffffffffffffffffffffffffffffff1614151515610c0f57600080fd5b8073ffffffffffffffffffffffffffffffffffffffff166000809054906101000a900473ffffffffffffffffffffffffffffffffffffffff1673ffffffffffffffffffffffffffffffffffffffff167f8be0079c531659141344cd1fd0a4f28419497f9722a3daafe3b4186f6b6457e060405160405180910390a3806000806101000a81548173ffffffffffffffffffffffffffffffffffffffff021916908373ffffffffffffffffffffffffffffffffffffffff16021790555050565b828054600181600116156101000203166002900490600052602060002090601f016020900481019282601f10610d0e57805160ff1916838001178555610d3c565b82800160010185558215610d3c579182015b82811115610d3b578251825591602001919060010190610d20565b5b509050610d499190610d4d565b5090565b610d6f91905b80821115610d6b576000816000905550600101610d53565b5090565b905600a165627a7a72305820f80bcf9a74e65a78b69402172fb02fd3f0fb7132b644eb72f104f41d81a21a530029a165627a7a7230582047c790bd92beebdc0d2e4624ef4c13be8971cf43d597f87d4b3e39faf4b219120029",
  "source": "pragma solidity ^0.4.17;\n\nimport \"./Sponsor.sol\";\nimport \"./Ownable.sol\";\n//expire\n//pending\ncontract FactorySponsor is Ownable{\n\n\n    bool isActive;\n    uint sponsorLimit;\n    uint sponsorCount;\n    uint price;\n\n\n    address[] public Sponsors;//\n    mapping (address => address) public addressToSponsor;\n\n    event beenSponsor(address indexed sponsor, string name, uint month, uint timestamp);\n    event removedSponsor(address indexed sponsor, string name,uint month, uint timestamp);\n    event expiredSponsor(address indexed sponsor, string name,uint month, uint timestamp);\n\n    modifier Active(){\n        require(isActive);\n        _;\n    }\n\n    constructor(uint _sponsorLimit,uint _price)public{\n        sponsorLimit=_sponsorLimit;\n        price=_price;\n\n    }\n    //expire need\n    function beSponsor(string _name,string _url,bytes32 _imageHash,uint _duration)\n    payable\n    Active\n    public{\n        require(msg.value >= price * (1 finney) );\n        require(sponsorCount < sponsorLimit);\n        // require(addressToSponsor[msg.sender]==address(0));\n\n        Sponsor _sponsor=new Sponsor(_name,_url,_imageHash,_duration);\n        Sponsors.push(address(_sponsor));\n        addressToSponsor[msg.sender]=address(_sponsor);\n        sponsorCount+=1;\n        emit beenSponsor(address(_sponsor),_name,_duration, now);\n\n    }\n\n    //admin methods\n    function removeSponsor(uint _index) public onlyOwner\n    {\n        Sponsor _temp=Sponsor(Sponsors[_index]);\n        delete addressToSponsor[_temp.getOwner()];\n        delete Sponsors[_index];\n        sponsorCount-=1;\n        emit removedSponsor(address(_temp), _temp.getName(), _temp.getDuration(), now);\n    }\n\n    function setLimit(uint _limit) public onlyOwner{\n        require(_limit>=sponsorCount);\n        sponsorLimit=_limit;\n    }\n    function getLimit() public view returns(uint){\n        return sponsorLimit;\n    }\n    function setActive(bool _isActive) public onlyOwner(){\n        isActive=_isActive;\n    }\n    function getActive() public view returns(bool){\n        return isActive;\n    }\n    function setPrice(uint _price) public onlyOwner(){\n        price=_price;\n    }\n    function getPrice() public view returns(uint){\n        return price;\n    }\n    function getSponsor(uint _index) public view returns(address){\n        return Sponsors[_index];\n    }\n    function getSponsorCount() public view returns(uint){\n        return sponsorCount;\n    }\n}",
  "sourcePath": "/home/mevlana/Documents/blockchain-workspace/adhereum/contracts/FactorySponsor.sol",
  "compiler": {
    "name": "solc",
    "version": "0.4.24+commit.e67f0147.Emscripten.clang"
  },
  "schemaVersion": "2.0.1",
  "updatedAt": "2018-06-29T12:32:03.526Z"
}