{
  "contractName": "FactorySponsor",
  "abi": [
    {
      "constant": true,
      "inputs": [
        {
          "name": "",
          "type": "uint256"
        }
      ],
      "name": "pendingList",
      "outputs": [
        {
          "name": "_owner",
          "type": "address"
        },
        {
          "name": "_contract",
          "type": "address"
        },
        {
          "name": "_status",
          "type": "int256"
        }
      ],
      "payable": false,
      "stateMutability": "view",
      "type": "function"
    },
    {
      "constant": true,
      "inputs": [
        {
          "name": "",
          "type": "address"
        }
      ],
      "name": "addressToSponsor",
      "outputs": [
        {
          "name": "",
          "type": "address"
        }
      ],
      "payable": false,
      "stateMutability": "view",
      "type": "function"
    },
    {
      "constant": false,
      "inputs": [],
      "name": "renounceOwnership",
      "outputs": [],
      "payable": false,
      "stateMutability": "nonpayable",
      "type": "function"
    },
    {
      "constant": true,
      "inputs": [],
      "name": "getOwner",
      "outputs": [
        {
          "name": "",
          "type": "address"
        }
      ],
      "payable": false,
      "stateMutability": "view",
      "type": "function"
    },
    {
      "constant": true,
      "inputs": [],
      "name": "owner",
      "outputs": [
        {
          "name": "",
          "type": "address"
        }
      ],
      "payable": false,
      "stateMutability": "view",
      "type": "function"
    },
    {
      "constant": true,
      "inputs": [
        {
          "name": "",
          "type": "uint256"
        }
      ],
      "name": "Sponsors",
      "outputs": [
        {
          "name": "",
          "type": "address"
        }
      ],
      "payable": false,
      "stateMutability": "view",
      "type": "function"
    },
    {
      "constant": false,
      "inputs": [
        {
          "name": "newOwner",
          "type": "address"
        }
      ],
      "name": "transferOwnership",
      "outputs": [],
      "payable": false,
      "stateMutability": "nonpayable",
      "type": "function"
    },
    {
      "inputs": [
        {
          "name": "_sponsorLimit",
          "type": "uint256"
        },
        {
          "name": "_price",
          "type": "uint256"
        }
      ],
      "payable": false,
      "stateMutability": "nonpayable",
      "type": "constructor"
    },
    {
      "anonymous": false,
      "inputs": [
        {
          "indexed": true,
          "name": "sponsor",
          "type": "address"
        },
        {
          "indexed": false,
          "name": "name",
          "type": "string"
        },
        {
          "indexed": false,
          "name": "month",
          "type": "uint256"
        }
      ],
      "name": "beenSponsor",
      "type": "event"
    },
    {
      "anonymous": false,
      "inputs": [
        {
          "indexed": true,
          "name": "sponsor",
          "type": "address"
        },
        {
          "indexed": false,
          "name": "name",
          "type": "string"
        },
        {
          "indexed": false,
          "name": "month",
          "type": "uint256"
        }
      ],
      "name": "pendinglist",
      "type": "event"
    },
    {
      "anonymous": false,
      "inputs": [
        {
          "indexed": false,
          "name": "",
          "type": "address"
        },
        {
          "indexed": false,
          "name": "",
          "type": "address"
        }
      ],
      "name": "confirmSponsor",
      "type": "event"
    },
    {
      "anonymous": false,
      "inputs": [
        {
          "indexed": false,
          "name": "",
          "type": "address"
        },
        {
          "indexed": false,
          "name": "",
          "type": "address"
        }
      ],
      "name": "denySponsor",
      "type": "event"
    },
    {
      "anonymous": false,
      "inputs": [
        {
          "indexed": true,
          "name": "sponsor",
          "type": "address"
        },
        {
          "indexed": false,
          "name": "name",
          "type": "string"
        },
        {
          "indexed": false,
          "name": "month",
          "type": "uint256"
        }
      ],
      "name": "removedSponsor",
      "type": "event"
    },
    {
      "anonymous": false,
      "inputs": [
        {
          "indexed": true,
          "name": "sponsor",
          "type": "address"
        },
        {
          "indexed": false,
          "name": "name",
          "type": "string"
        },
        {
          "indexed": false,
          "name": "month",
          "type": "uint256"
        }
      ],
      "name": "expiredSponsor",
      "type": "event"
    },
    {
      "anonymous": false,
      "inputs": [
        {
          "indexed": true,
          "name": "previousOwner",
          "type": "address"
        }
      ],
      "name": "OwnershipRenounced",
      "type": "event"
    },
    {
      "anonymous": false,
      "inputs": [
        {
          "indexed": true,
          "name": "previousOwner",
          "type": "address"
        },
        {
          "indexed": true,
          "name": "newOwner",
          "type": "address"
        }
      ],
      "name": "OwnershipTransferred",
      "type": "event"
    },
    {
      "constant": false,
      "inputs": [
        {
          "name": "_name",
          "type": "string"
        },
        {
          "name": "_url",
          "type": "string"
        },
        {
          "name": "_imageHash",
          "type": "string"
        },
        {
          "name": "_duration",
          "type": "uint256"
        }
      ],
      "name": "beSponsor",
      "outputs": [],
      "payable": true,
      "stateMutability": "payable",
      "type": "function"
    },
    {
      "constant": false,
      "inputs": [
        {
          "name": "_index",
          "type": "uint256"
        }
      ],
      "name": "removeSponsor",
      "outputs": [],
      "payable": false,
      "stateMutability": "nonpayable",
      "type": "function"
    },
    {
      "constant": false,
      "inputs": [
        {
          "name": "_index",
          "type": "uint256"
        }
      ],
      "name": "confirm",
      "outputs": [],
      "payable": false,
      "stateMutability": "nonpayable",
      "type": "function"
    },
    {
      "constant": false,
      "inputs": [
        {
          "name": "_index",
          "type": "uint256"
        }
      ],
      "name": "deny",
      "outputs": [],
      "payable": false,
      "stateMutability": "nonpayable",
      "type": "function"
    },
    {
      "constant": false,
      "inputs": [
        {
          "name": "_limit",
          "type": "uint256"
        }
      ],
      "name": "setLimit",
      "outputs": [],
      "payable": false,
      "stateMutability": "nonpayable",
      "type": "function"
    },
    {
      "constant": true,
      "inputs": [],
      "name": "getLimit",
      "outputs": [
        {
          "name": "",
          "type": "uint256"
        }
      ],
      "payable": false,
      "stateMutability": "view",
      "type": "function"
    },
    {
      "constant": false,
      "inputs": [
        {
          "name": "_isActive",
          "type": "bool"
        }
      ],
      "name": "setActive",
      "outputs": [],
      "payable": false,
      "stateMutability": "nonpayable",
      "type": "function"
    },
    {
      "constant": true,
      "inputs": [],
      "name": "getActive",
      "outputs": [
        {
          "name": "",
          "type": "bool"
        }
      ],
      "payable": false,
      "stateMutability": "view",
      "type": "function"
    },
    {
      "constant": false,
      "inputs": [
        {
          "name": "_price",
          "type": "uint256"
        }
      ],
      "name": "setPrice",
      "outputs": [],
      "payable": false,
      "stateMutability": "nonpayable",
      "type": "function"
    },
    {
      "constant": true,
      "inputs": [],
      "name": "getPrice",
      "outputs": [
        {
          "name": "",
          "type": "uint256"
        }
      ],
      "payable": false,
      "stateMutability": "view",
      "type": "function"
    },
    {
      "constant": true,
      "inputs": [
        {
          "name": "_index",
          "type": "uint256"
        }
      ],
      "name": "getSponsor",
      "outputs": [
        {
          "name": "",
          "type": "address"
        }
      ],
      "payable": false,
      "stateMutability": "view",
      "type": "function"
    },
    {
      "constant": true,
      "inputs": [],
      "name": "getSponsorCount",
      "outputs": [
        {
          "name": "",
          "type": "uint256"
        }
      ],
      "payable": false,
      "stateMutability": "view",
      "type": "function"
    },
    {
      "constant": true,
      "inputs": [
        {
          "name": "_index",
          "type": "uint256"
        }
      ],
      "name": "getPendingList",
      "outputs": [
        {
          "name": "",
          "type": "address"
        },
        {
          "name": "",
          "type": "address"
        }
      ],
      "payable": false,
      "stateMutability": "view",
      "type": "function"
    },
    {
      "constant": true,
      "inputs": [],
      "name": "getNumberPending",
      "outputs": [
        {
          "name": "",
          "type": "uint256"
        }
      ],
      "payable": false,
      "stateMutability": "view",
      "type": "function"
    },
    {
      "constant": false,
      "inputs": [],
      "name": "expireDetect",
      "outputs": [],
      "payable": false,
      "stateMutability": "nonpayable",
      "type": "function"
    }
  ],
  "bytecode": "0x608060405234801561001057600080fd5b506040516040806130948339810180604052810190808051906020019092919080519060200190929190505050336000806101000a81548173ffffffffffffffffffffffffffffffffffffffff021916908373ffffffffffffffffffffffffffffffffffffffff16021790555081600181905550806003819055506001600060146101000a81548160ff0219169083151502179055505050612fdd806100b76000396000f3006080604052600436106200013d576000357c0100000000000000000000000000000000000000000000000000000000900463ffffffff1680629ebb101462000142578062c2527b146200017457806303aca79214620001a25780631cdbc134146200024c57806327ea6f2b146200026657806339d4397214620002965780634485b5f9146200030657806350017f55146200033657806356f6628214620003bc57806363b3178a14620003ec578063715018a6146200041a57806384bcd2591462000434578063893d20e814620005285780638da5cb5b146200058257806391b7f5ed14620005dc57806398d5fdca146200060c578063acec338a146200063a578063b295a00e146200066c578063ba0179b5146200069a578063bb18840914620006ca578063e122ec10146200076d578063f2fde38b14620007dd575b600080fd5b3480156200014f57600080fd5b506200015a62000823565b604051808215151515815260200191505060405180910390f35b3480156200018157600080fd5b506200018c62000839565b6040518082815260200191505060405180910390f35b348015620001af57600080fd5b50620001d06004803603810190808035906020019092919050505062000843565b604051808473ffffffffffffffffffffffffffffffffffffffff1673ffffffffffffffffffffffffffffffffffffffff1681526020018373ffffffffffffffffffffffffffffffffffffffff1673ffffffffffffffffffffffffffffffffffffffff168152602001828152602001935050505060405180910390f35b3480156200025957600080fd5b5062000264620008bd565b005b3480156200027357600080fd5b50620002946004803603810190808035906020019092919050505062000b2b565b005b348015620002a357600080fd5b50620002c46004803603810190808035906020019092919050505062000ba3565b604051808273ffffffffffffffffffffffffffffffffffffffff1673ffffffffffffffffffffffffffffffffffffffff16815260200191505060405180910390f35b3480156200031357600080fd5b50620003346004803603810190808035906020019092919050505062000be7565b005b3480156200034357600080fd5b506200037a600480360381019080803573ffffffffffffffffffffffffffffffffffffffff16906020019092919050505062001030565b604051808273ffffffffffffffffffffffffffffffffffffffff1673ffffffffffffffffffffffffffffffffffffffff16815260200191505060405180910390f35b348015620003c957600080fd5b50620003ea6004803603810190808035906020019092919050505062001063565b005b348015620003f957600080fd5b5062000404620011e2565b6040518082815260200191505060405180910390f35b3480156200042757600080fd5b5062000432620011ef565b005b62000526600480360381019080803590602001908201803590602001908080601f0160208091040260200160405190810160405280939291908181526020018383808284378201915050505050509192919290803590602001908201803590602001908080601f0160208091040260200160405190810160405280939291908181526020018383808284378201915050505050509192919290803590602001908201803590602001908080601f016020809104026020016040519081016040528093929190818152602001838380828437820191505050505050919291929080359060200190929190505050620012f2565b005b3480156200053557600080fd5b506200054062001698565b604051808273ffffffffffffffffffffffffffffffffffffffff1673ffffffffffffffffffffffffffffffffffffffff16815260200191505060405180910390f35b3480156200058f57600080fd5b506200059a620016c1565b604051808273ffffffffffffffffffffffffffffffffffffffff1673ffffffffffffffffffffffffffffffffffffffff16815260200191505060405180910390f35b348015620005e957600080fd5b506200060a60048036038101908080359060200190929190505050620016e6565b005b3480156200061957600080fd5b50620006246200174c565b6040518082815260200191505060405180910390f35b3480156200064757600080fd5b506200066a60048036038101908080351515906020019092919050505062001756565b005b3480156200067957600080fd5b5062000684620017cf565b6040518082815260200191505060405180910390f35b348015620006a757600080fd5b50620006c860048036038101908080359060200190929190505050620017d9565b005b348015620006d757600080fd5b50620006f86004803603810190808035906020019092919050505062001ab9565b604051808373ffffffffffffffffffffffffffffffffffffffff1673ffffffffffffffffffffffffffffffffffffffff1681526020018273ffffffffffffffffffffffffffffffffffffffff1673ffffffffffffffffffffffffffffffffffffffff1681526020019250505060405180910390f35b3480156200077a57600080fd5b506200079b6004803603810190808035906020019092919050505062001b49565b604051808273ffffffffffffffffffffffffffffffffffffffff1673ffffffffffffffffffffffffffffffffffffffff16815260200191505060405180910390f35b348015620007ea57600080fd5b5062000821600480360381019080803573ffffffffffffffffffffffffffffffffffffffff16906020019092919050505062001b88565b005b60008060149054906101000a900460ff16905090565b6000600254905090565b6006818154811015156200085357fe5b90600052602060002090600302016000915090508060000160009054906101000a900473ffffffffffffffffffffffffffffffffffffffff16908060010160009054906101000a900473ffffffffffffffffffffffffffffffffffffffff16908060020154905083565b600080600091505b60025482101562000b2757600482815481101515620008e057fe5b9060005260206000200160009054906101000a900473ffffffffffffffffffffffffffffffffffffffff1690508073ffffffffffffffffffffffffffffffffffffffff16637eb0e5e56040518163ffffffff167c0100000000000000000000000000000000000000000000000000000000028152600401602060405180830381600087803b1580156200097257600080fd5b505af115801562000987573d6000803e3d6000fd5b505050506040513d60208110156200099e57600080fd5b81019080805190602001909291905050504267ffffffffffffffff1610151515620009c857600080fd5b600560008273ffffffffffffffffffffffffffffffffffffffff1663893d20e86040518163ffffffff167c0100000000000000000000000000000000000000000000000000000000028152600401602060405180830381600087803b15801562000a3157600080fd5b505af115801562000a46573d6000803e3d6000fd5b505050506040513d602081101562000a5d57600080fd5b810190808051906020019092919050505073ffffffffffffffffffffffffffffffffffffffff1673ffffffffffffffffffffffffffffffffffffffff16815260200190815260200160002060006101000a81549073ffffffffffffffffffffffffffffffffffffffff021916905560048281548110151562000adb57fe5b9060005260206000200160006101000a81549073ffffffffffffffffffffffffffffffffffffffff021916905560016002600082825403925050819055508180600101925050620008c5565b5050565b6000809054906101000a900473ffffffffffffffffffffffffffffffffffffffff1673ffffffffffffffffffffffffffffffffffffffff163373ffffffffffffffffffffffffffffffffffffffff1614151562000b8757600080fd5b600254811015151562000b9957600080fd5b8060018190555050565b600060048281548110151562000bb557fe5b9060005260206000200160009054906101000a900473ffffffffffffffffffffffffffffffffffffffff169050919050565b60008060009054906101000a900473ffffffffffffffffffffffffffffffffffffffff1673ffffffffffffffffffffffffffffffffffffffff163373ffffffffffffffffffffffffffffffffffffffff1614151562000c4557600080fd5b60048281548110151562000c5557fe5b9060005260206000200160009054906101000a900473ffffffffffffffffffffffffffffffffffffffff169050600560008273ffffffffffffffffffffffffffffffffffffffff1663893d20e86040518163ffffffff167c0100000000000000000000000000000000000000000000000000000000028152600401602060405180830381600087803b15801562000ceb57600080fd5b505af115801562000d00573d6000803e3d6000fd5b505050506040513d602081101562000d1757600080fd5b810190808051906020019092919050505073ffffffffffffffffffffffffffffffffffffffff1673ffffffffffffffffffffffffffffffffffffffff16815260200190815260200160002060006101000a81549073ffffffffffffffffffffffffffffffffffffffff021916905560048281548110151562000d9557fe5b9060005260206000200160006101000a81549073ffffffffffffffffffffffffffffffffffffffff021916905560016002600082825403925050819055508073ffffffffffffffffffffffffffffffffffffffff167f48e9b020740944701933bca8e3d5e864bbd8daf274894e92175030a9caf196288273ffffffffffffffffffffffffffffffffffffffff166317d7de7c6040518163ffffffff167c0100000000000000000000000000000000000000000000000000000000028152600401600060405180830381600087803b15801562000e7057600080fd5b505af115801562000e85573d6000803e3d6000fd5b505050506040513d6000823e3d601f19601f82011682018060405250602081101562000eb057600080fd5b81019080805164010000000081111562000ec957600080fd5b8281019050602081018481111562000ee057600080fd5b815185600182028301116401000000008211171562000efe57600080fd5b50509291905050508373ffffffffffffffffffffffffffffffffffffffff1663ad2e8c9b6040518163ffffffff167c0100000000000000000000000000000000000000000000000000000000028152600401602060405180830381600087803b15801562000f6b57600080fd5b505af115801562000f80573d6000803e3d6000fd5b505050506040513d602081101562000f9757600080fd5b81019080805190602001909291905050506040518080602001838152602001828103825284818151815260200191508051906020019080838360005b8381101562000ff057808201518184015260208101905062000fd3565b50505050905090810190601f1680156200101e5780820380516001836020036101000a031916815260200191505b50935050505060405180910390a25050565b60056020528060005260406000206000915054906101000a900473ffffffffffffffffffffffffffffffffffffffff1681565b60008060009054906101000a900473ffffffffffffffffffffffffffffffffffffffff1673ffffffffffffffffffffffffffffffffffffffff163373ffffffffffffffffffffffffffffffffffffffff16141515620010c157600080fd5b600682815481101515620010d157fe5b9060005260206000209060030201905060008160020154141515620010f557600080fd5b600281600201819055507fbdf106b574c834c21d41edb459e900d43f1de6784d7e27be2b317e6f735416208160000160009054906101000a900473ffffffffffffffffffffffffffffffffffffffff168260010160009054906101000a900473ffffffffffffffffffffffffffffffffffffffff16604051808373ffffffffffffffffffffffffffffffffffffffff1673ffffffffffffffffffffffffffffffffffffffff1681526020018273ffffffffffffffffffffffffffffffffffffffff1673ffffffffffffffffffffffffffffffffffffffff1681526020019250505060405180910390a15050565b6000600680549050905090565b6000809054906101000a900473ffffffffffffffffffffffffffffffffffffffff1673ffffffffffffffffffffffffffffffffffffffff163373ffffffffffffffffffffffffffffffffffffffff161415156200124b57600080fd5b6000809054906101000a900473ffffffffffffffffffffffffffffffffffffffff1673ffffffffffffffffffffffffffffffffffffffff167ff8df31144d9c2f0f6b59d69b8b98abd5459d07f2742c4df920b25aae33c6482060405160405180910390a260008060006101000a81548173ffffffffffffffffffffffffffffffffffffffff021916908373ffffffffffffffffffffffffffffffffffffffff160217905550565b60008060149054906101000a900460ff1615156200130f57600080fd5b66038d7ea4c680006003540234101515156200132a57600080fd5b6001546002541015156200133d57600080fd5b848484846200134b62001cdf565b80806020018060200180602001858152602001848103845288818151815260200191508051906020019080838360005b83811015620013985780820151818401526020810190506200137b565b50505050905090810190601f168015620013c65780820380516001836020036101000a031916815260200191505b50848103835287818151815260200191508051906020019080838360005b8381101562001401578082015181840152602081019050620013e4565b50505050905090810190601f1680156200142f5780820380516001836020036101000a031916815260200191505b50848103825286818151815260200191508051906020019080838360005b838110156200146a5780820151818401526020810190506200144d565b50505050905090810190601f168015620014985780820380516001836020036101000a031916815260200191505b50975050505050505050604051809103906000f080158015620014bf573d6000803e3d6000fd5b50905060066060604051908101604052803373ffffffffffffffffffffffffffffffffffffffff1681526020018373ffffffffffffffffffffffffffffffffffffffff16815260200160008152509080600181540180825580915050906001820390600052602060002090600302016000909192909190915060008201518160000160006101000a81548173ffffffffffffffffffffffffffffffffffffffff021916908373ffffffffffffffffffffffffffffffffffffffff16021790555060208201518160010160006101000a81548173ffffffffffffffffffffffffffffffffffffffff021916908373ffffffffffffffffffffffffffffffffffffffff160217905550604082015181600201555050508073ffffffffffffffffffffffffffffffffffffffff167ff3e319e648be59dfdf75376d055fbdd2e09bbf5f809abeff4cfd7681d552a23686846040518080602001838152602001828103825284818151815260200191508051906020019080838360005b838110156200165557808201518184015260208101905062001638565b50505050905090810190601f168015620016835780820380516001836020036101000a031916815260200191505b50935050505060405180910390a25050505050565b60008060009054906101000a900473ffffffffffffffffffffffffffffffffffffffff16905090565b6000809054906101000a900473ffffffffffffffffffffffffffffffffffffffff1681565b6000809054906101000a900473ffffffffffffffffffffffffffffffffffffffff1673ffffffffffffffffffffffffffffffffffffffff163373ffffffffffffffffffffffffffffffffffffffff161415156200174257600080fd5b8060038190555050565b6000600354905090565b6000809054906101000a900473ffffffffffffffffffffffffffffffffffffffff1673ffffffffffffffffffffffffffffffffffffffff163373ffffffffffffffffffffffffffffffffffffffff16141515620017b257600080fd5b80600060146101000a81548160ff02191690831515021790555050565b6000600154905090565b60008060009054906101000a900473ffffffffffffffffffffffffffffffffffffffff1673ffffffffffffffffffffffffffffffffffffffff163373ffffffffffffffffffffffffffffffffffffffff161415156200183757600080fd5b6006828154811015156200184757fe5b90600052602060002090600302019050600081600201541415156200186b57600080fd5b60048160010160009054906101000a900473ffffffffffffffffffffffffffffffffffffffff1690806001815401808255809150509060018203906000526020600020016000909192909190916101000a81548173ffffffffffffffffffffffffffffffffffffffff021916908373ffffffffffffffffffffffffffffffffffffffff160217905550508060010160009054906101000a900473ffffffffffffffffffffffffffffffffffffffff16600560008360000160009054906101000a900473ffffffffffffffffffffffffffffffffffffffff1673ffffffffffffffffffffffffffffffffffffffff1673ffffffffffffffffffffffffffffffffffffffff16815260200190815260200160002060006101000a81548173ffffffffffffffffffffffffffffffffffffffff021916908373ffffffffffffffffffffffffffffffffffffffff1602179055506001600260008282540192505081905550600181600201819055507f90e53ae3460e27515029df4e9f9f8dbf6ff5b4d275157594c00942bea8ba649a8160000160009054906101000a900473ffffffffffffffffffffffffffffffffffffffff168260010160009054906101000a900473ffffffffffffffffffffffffffffffffffffffff16604051808373ffffffffffffffffffffffffffffffffffffffff1673ffffffffffffffffffffffffffffffffffffffff1681526020018273ffffffffffffffffffffffffffffffffffffffff1673ffffffffffffffffffffffffffffffffffffffff1681526020019250505060405180910390a15050565b60008060068381548110151562001acc57fe5b906000526020600020906003020160000160009054906101000a900473ffffffffffffffffffffffffffffffffffffffff1660068481548110151562001b0e57fe5b906000526020600020906003020160010160009054906101000a900473ffffffffffffffffffffffffffffffffffffffff1691509150915091565b60048181548110151562001b5957fe5b906000526020600020016000915054906101000a900473ffffffffffffffffffffffffffffffffffffffff1681565b6000809054906101000a900473ffffffffffffffffffffffffffffffffffffffff1673ffffffffffffffffffffffffffffffffffffffff163373ffffffffffffffffffffffffffffffffffffffff1614151562001be457600080fd5b600073ffffffffffffffffffffffffffffffffffffffff168173ffffffffffffffffffffffffffffffffffffffff161415151562001c2157600080fd5b8073ffffffffffffffffffffffffffffffffffffffff166000809054906101000a900473ffffffffffffffffffffffffffffffffffffffff1673ffffffffffffffffffffffffffffffffffffffff167f8be0079c531659141344cd1fd0a4f28419497f9722a3daafe3b4186f6b6457e060405160405180910390a3806000806101000a81548173ffffffffffffffffffffffffffffffffffffffff021916908373ffffffffffffffffffffffffffffffffffffffff16021790555050565b6040516112c18062001cf183390190560060806040523480156200001157600080fd5b50604051620012c1380380620012c183398101806040528101908080518201929190602001805182019291906020018051820192919060200180519060200190929190505050336000806101000a81548173ffffffffffffffffffffffffffffffffffffffff021916908373ffffffffffffffffffffffffffffffffffffffff1602179055508360019080519060200190620000af92919062000173565b508260029080519060200190620000c892919062000173565b508160039080519060200190620000e192919062000173565b5042600460006101000a81548167ffffffffffffffff021916908367ffffffffffffffff160217905550806005819055506200014381600460009054906101000a900467ffffffffffffffff1662000153640100000000026401000000009004565b6006819055505050505062000222565b60008167ffffffffffffffff168301600681905550600654905092915050565b828054600181600116156101000203166002900490600052602060002090601f016020900481019282601f10620001b657805160ff1916838001178555620001e7565b82800160010185558215620001e7579182015b82811115620001e6578251825591602001919060010190620001c9565b5b509050620001f69190620001fa565b5090565b6200021f91905b808211156200021b57600081600090555060010162000201565b5090565b90565b61108f80620002326000396000f3006080604052600436106100db576000357c0100000000000000000000000000000000000000000000000000000000900463ffffffff16806317d7de7c146100e05780631e2c74f6146101705780631ed83fd41461019f578063252498a214610208578063447f69e614610271578063715018a6146102c65780637eb0e5e5146102dd578063893d20e8146103085780638da5cb5b1461035f578063ad2e8c9b146103b6578063c47f0027146103e1578063d13319c41461044a578063d6bd8727146104da578063f11526771461056a578063f2fde38b146106d2575b600080fd5b3480156100ec57600080fd5b506100f5610715565b6040518080602001828103825283818151815260200191508051906020019080838360005b8381101561013557808201518184015260208101905061011a565b50505050905090810190601f1680156101625780820380516001836020036101000a031916815260200191505b509250505060405180910390f35b34801561017c57600080fd5b5061019d6004803603810190808035151590602001909291905050506107b7565b005b3480156101ab57600080fd5b50610206600480360381019080803590602001908201803590602001908080601f0160208091040260200160405190810160405280939291908181526020018383808284378201915050505050509192919290505050610858565b005b34801561021457600080fd5b5061026f600480360381019080803590602001908201803590602001908080601f01602080910402602001604051908101604052809392919081815260200183838082843782019150505050505091929192905050506108cd565b005b34801561027d57600080fd5b506102b060048036038101908080359060200190929190803567ffffffffffffffff169060200190929190505050610942565b6040518082815260200191505060405180910390f35b3480156102d257600080fd5b506102db610962565b005b3480156102e957600080fd5b506102f2610a64565b6040518082815260200191505060405180910390f35b34801561031457600080fd5b5061031d610a6e565b604051808273ffffffffffffffffffffffffffffffffffffffff1673ffffffffffffffffffffffffffffffffffffffff16815260200191505060405180910390f35b34801561036b57600080fd5b50610374610a97565b604051808273ffffffffffffffffffffffffffffffffffffffff1673ffffffffffffffffffffffffffffffffffffffff16815260200191505060405180910390f35b3480156103c257600080fd5b506103cb610abc565b6040518082815260200191505060405180910390f35b3480156103ed57600080fd5b50610448600480360381019080803590602001908201803590602001908080601f0160208091040260200160405190810160405280939291908181526020018383808284378201915050505050509192919290505050610ac6565b005b34801561045657600080fd5b5061045f610b3b565b6040518080602001828103825283818151815260200191508051906020019080838360005b8381101561049f578082015181840152602081019050610484565b50505050905090810190601f1680156104cc5780820380516001836020036101000a031916815260200191505b509250505060405180910390f35b3480156104e657600080fd5b506104ef610bdd565b6040518080602001828103825283818151815260200191508051906020019080838360005b8381101561052f578082015181840152602081019050610514565b50505050905090810190601f16801561055c5780820380516001836020036101000a031916815260200191505b509250505060405180910390f35b34801561057657600080fd5b5061057f610c7f565b60405180806020018060200180602001848103845287818151815260200191508051906020019080838360005b838110156105c75780820151818401526020810190506105ac565b50505050905090810190601f1680156105f45780820380516001836020036101000a031916815260200191505b50848103835286818151815260200191508051906020019080838360005b8381101561062d578082015181840152602081019050610612565b50505050905090810190601f16801561065a5780820380516001836020036101000a031916815260200191505b50848103825285818151815260200191508051906020019080838360005b83811015610693578082015181840152602081019050610678565b50505050905090810190601f1680156106c05780820380516001836020036101000a031916815260200191505b50965050505050505060405180910390f35b3480156106de57600080fd5b50610713600480360381019080803573ffffffffffffffffffffffffffffffffffffffff169060200190929190505050610e69565b005b606060018054600181600116156101000203166002900480601f0160208091040260200160405190810160405280929190818152602001828054600181600116156101000203166002900480156107ad5780601f10610782576101008083540402835291602001916107ad565b820191906000526020600020905b81548152906001019060200180831161079057829003601f168201915b5050505050905090565b6000809054906101000a900473ffffffffffffffffffffffffffffffffffffffff1673ffffffffffffffffffffffffffffffffffffffff163373ffffffffffffffffffffffffffffffffffffffff1614151561081257600080fd5b80151561081e57600080fd5b6000809054906101000a900473ffffffffffffffffffffffffffffffffffffffff1673ffffffffffffffffffffffffffffffffffffffff16ff5b6000809054906101000a900473ffffffffffffffffffffffffffffffffffffffff1673ffffffffffffffffffffffffffffffffffffffff163373ffffffffffffffffffffffffffffffffffffffff161415156108b357600080fd5b80600390805190602001906108c9929190610fbe565b5050565b6000809054906101000a900473ffffffffffffffffffffffffffffffffffffffff1673ffffffffffffffffffffffffffffffffffffffff163373ffffffffffffffffffffffffffffffffffffffff1614151561092857600080fd5b806002908051906020019061093e929190610fbe565b5050565b60008167ffffffffffffffff168301600681905550600654905092915050565b6000809054906101000a900473ffffffffffffffffffffffffffffffffffffffff1673ffffffffffffffffffffffffffffffffffffffff163373ffffffffffffffffffffffffffffffffffffffff161415156109bd57600080fd5b6000809054906101000a900473ffffffffffffffffffffffffffffffffffffffff1673ffffffffffffffffffffffffffffffffffffffff167ff8df31144d9c2f0f6b59d69b8b98abd5459d07f2742c4df920b25aae33c6482060405160405180910390a260008060006101000a81548173ffffffffffffffffffffffffffffffffffffffff021916908373ffffffffffffffffffffffffffffffffffffffff160217905550565b6000600654905090565b60008060009054906101000a900473ffffffffffffffffffffffffffffffffffffffff16905090565b6000809054906101000a900473ffffffffffffffffffffffffffffffffffffffff1681565b6000600554905090565b6000809054906101000a900473ffffffffffffffffffffffffffffffffffffffff1673ffffffffffffffffffffffffffffffffffffffff163373ffffffffffffffffffffffffffffffffffffffff16141515610b2157600080fd5b8060019080519060200190610b37929190610fbe565b5050565b606060038054600181600116156101000203166002900480601f016020809104026020016040519081016040528092919081815260200182805460018160011615610100020316600290048015610bd35780601f10610ba857610100808354040283529160200191610bd3565b820191906000526020600020905b815481529060010190602001808311610bb657829003601f168201915b5050505050905090565b606060028054600181600116156101000203166002900480601f016020809104026020016040519081016040528092919081815260200182805460018160011615610100020316600290048015610c755780601f10610c4a57610100808354040283529160200191610c75565b820191906000526020600020905b815481529060010190602001808311610c5857829003601f168201915b5050505050905090565b6060806060600160026003828054600181600116156101000203166002900480601f016020809104026020016040519081016040528092919081815260200182805460018160011615610100020316600290048015610d1f5780601f10610cf457610100808354040283529160200191610d1f565b820191906000526020600020905b815481529060010190602001808311610d0257829003601f168201915b50505050509250818054600181600116156101000203166002900480601f016020809104026020016040519081016040528092919081815260200182805460018160011615610100020316600290048015610dbb5780601f10610d9057610100808354040283529160200191610dbb565b820191906000526020600020905b815481529060010190602001808311610d9e57829003601f168201915b50505050509150808054600181600116156101000203166002900480601f016020809104026020016040519081016040528092919081815260200182805460018160011615610100020316600290048015610e575780601f10610e2c57610100808354040283529160200191610e57565b820191906000526020600020905b815481529060010190602001808311610e3a57829003601f168201915b50505050509050925092509250909192565b6000809054906101000a900473ffffffffffffffffffffffffffffffffffffffff1673ffffffffffffffffffffffffffffffffffffffff163373ffffffffffffffffffffffffffffffffffffffff16141515610ec457600080fd5b600073ffffffffffffffffffffffffffffffffffffffff168173ffffffffffffffffffffffffffffffffffffffff1614151515610f0057600080fd5b8073ffffffffffffffffffffffffffffffffffffffff166000809054906101000a900473ffffffffffffffffffffffffffffffffffffffff1673ffffffffffffffffffffffffffffffffffffffff167f8be0079c531659141344cd1fd0a4f28419497f9722a3daafe3b4186f6b6457e060405160405180910390a3806000806101000a81548173ffffffffffffffffffffffffffffffffffffffff021916908373ffffffffffffffffffffffffffffffffffffffff16021790555050565b828054600181600116156101000203166002900490600052602060002090601f016020900481019282601f10610fff57805160ff191683800117855561102d565b8280016001018555821561102d579182015b8281111561102c578251825591602001919060010190611011565b5b50905061103a919061103e565b5090565b61106091905b8082111561105c576000816000905550600101611044565b5090565b905600a165627a7a72305820cd87b30f257e00accab2db0dee2a61e76ddd9fb41f33aaa62fce819b2cce383e0029a165627a7a7230582004fd6ab0bcc0e118316e5c36eeebc09f4ded30b467b76239668ecb8e13f38ac90029",
  "source": "pragma solidity ^0.4.17;\n\nimport \"./Sponsor.sol\";\nimport \"./Ownable.sol\";\n//expire\n//pending\ncontract FactorySponsor is Ownable{\n\n\n    bool isActive;\n    uint sponsorLimit;\n    uint sponsorCount;\n    uint price;\n\n\n    address[] public Sponsors;//\n    mapping (address => address) public addressToSponsor;\n\n\n\n    struct Pending{\n        address _owner;\n        address _contract;\n        int    _status;\n    }\n\n    Pending[] public pendingList;//\n\n\n\n\n    event beenSponsor(address indexed sponsor, string name, uint month);\n    event pendinglist(address indexed sponsor, string name, uint month);\n    event confirmSponsor(address , address);\n    event denySponsor(address,address);\n    event removedSponsor(address indexed sponsor, string name,uint month);\n    event expiredSponsor(address indexed sponsor, string name,uint month);\n\n    modifier Active(){\n        require(isActive);\n        _;\n    }\n\n    constructor(uint _sponsorLimit,uint _price)public{\n        sponsorLimit=_sponsorLimit;\n        price=_price;\n        isActive=true;\n\n    }\n    //expire need\n    function beSponsor(string _name,string _url,string _imageHash,uint _duration)\n    payable\n    Active\n    public{\n        require(msg.value >= price * (1 finney) );\n        require(sponsorCount < sponsorLimit);\n        //require(addressToSponsor[msg.sender]==address(0));\n\n        Sponsor _sponsor=new Sponsor(_name,_url,_imageHash,_duration);\n\n\n        pendingList.push(Pending({_owner:msg.sender, _contract:_sponsor,_status:0}));\n\n        emit pendinglist(address(_sponsor),_name,_duration);\n\n    }\n\n\n\n    //admin methods\n    function removeSponsor(uint _index) public onlyOwner\n    {\n        Sponsor _temp=Sponsor(Sponsors[_index]);\n        delete addressToSponsor[_temp.getOwner()];\n        delete Sponsors[_index];\n        sponsorCount-=1;\n        emit removedSponsor(address(_temp), _temp.getName(), _temp.getDuration());\n    }\n\n    function confirm(uint _index)\n    onlyOwner\n    public{\n\n        Pending storage  _tmp=pendingList[_index];\n        require(_tmp._status==0);  //if\n        Sponsors.push(address(_tmp._contract));\n        addressToSponsor[_tmp._owner]=address(_tmp._contract);\n        sponsorCount+=1;\n        _tmp._status=1;\n        emit confirmSponsor(_tmp._owner,_tmp._contract);\n\n    }\n\n    function deny(uint _index)\n    onlyOwner\n    public{\n        Pending storage  _tmp=pendingList[_index];\n        require(_tmp._status==0);  //if\n\n        //transfer money to back\n        _tmp._status=2;\n        emit denySponsor(_tmp._owner,_tmp._contract);\n\n    }\n\n\n\n    function setLimit(uint _limit) public onlyOwner{\n        require(_limit>=sponsorCount);\n        sponsorLimit=_limit;\n    }\n    function getLimit() public view returns(uint){\n        return sponsorLimit;\n    }\n    function setActive(bool _isActive) public onlyOwner(){\n        isActive=_isActive;\n    }\n    function getActive() public view returns(bool){\n        return isActive;\n    }\n    function setPrice(uint _price) public onlyOwner(){\n        price=_price;\n    }\n    function getPrice() public view returns(uint){\n        return price;\n    }\n    function getSponsor(uint _index) public view returns(address){\n        return Sponsors[_index];\n    }\n    function getSponsorCount() public view returns(uint){\n        return sponsorCount;\n    }\n    function getPendingList(uint _index) public view returns(address,address){\n        return (pendingList[_index]._owner, pendingList[_index]._contract);\n    }\n    function getNumberPending() public view returns(uint){\n        return pendingList.length;\n    }\n    function expireDetect() public\n    {\n        uint i = 0;\n        for(i;i<sponsorCount;i++){\n        Sponsor _temp=Sponsor(Sponsors[i]);\n        require(uint64(now) >= _temp.getDeadTime());\n        delete addressToSponsor[_temp.getOwner()];\n        delete Sponsors[i];\n        sponsorCount-=1;\n        }\n    }\n\n\n}",
  "sourcePath": "/Users/fatih/Desktop/adhereum/contracts/FactorySponsor.sol",
  "compiler": {
    "name": "solc",
    "version": "0.4.23+commit.124ca40d.Emscripten.clang"
  },
  "schemaVersion": "2.0.0",
  "updatedAt": "2018-06-30T13:30:07.169Z"
}