{
  "contractName": "FactorySponsor",
  "abi": [
    {
      "constant": true,
      "inputs": [
        {
          "name": "",
          "type": "uint256"
        }
      ],
      "name": "pendingList",
      "outputs": [
        {
          "name": "name",
          "type": "string"
        },
        {
          "name": "url",
          "type": "string"
        },
        {
          "name": "imageHash",
          "type": "string"
        },
        {
          "name": "role",
          "type": "uint8"
        },
        {
          "name": "duration",
          "type": "uint256"
        },
        {
          "name": "status",
          "type": "uint256"
        },
        {
          "name": "owner",
          "type": "address"
        }
      ],
      "payable": false,
      "stateMutability": "view",
      "type": "function"
    },
    {
      "constant": true,
      "inputs": [
        {
          "name": "",
          "type": "address"
        }
      ],
      "name": "addressToSponsor",
      "outputs": [
        {
          "name": "",
          "type": "address"
        }
      ],
      "payable": false,
      "stateMutability": "view",
      "type": "function"
    },
    {
      "constant": false,
      "inputs": [],
      "name": "renounceOwnership",
      "outputs": [],
      "payable": false,
      "stateMutability": "nonpayable",
      "type": "function"
    },
    {
      "constant": true,
      "inputs": [],
      "name": "getOwner",
      "outputs": [
        {
          "name": "",
          "type": "address"
        }
      ],
      "payable": false,
      "stateMutability": "view",
      "type": "function"
    },
    {
      "constant": true,
      "inputs": [],
      "name": "owner",
      "outputs": [
        {
          "name": "",
          "type": "address"
        }
      ],
      "payable": false,
      "stateMutability": "view",
      "type": "function"
    },
    {
      "constant": false,
      "inputs": [
        {
          "name": "newOwner",
          "type": "address"
        }
      ],
      "name": "transferOwnership",
      "outputs": [],
      "payable": false,
      "stateMutability": "nonpayable",
      "type": "function"
    },
    {
      "constant": true,
      "inputs": [
        {
          "name": "",
          "type": "uint256"
        }
      ],
      "name": "listOfSponsors",
      "outputs": [
        {
          "name": "",
          "type": "address"
        }
      ],
      "payable": false,
      "stateMutability": "view",
      "type": "function"
    },
    {
      "inputs": [
        {
          "name": "_sponsorLimit",
          "type": "uint256"
        },
        {
          "name": "_priceGold",
          "type": "uint256"
        },
        {
          "name": "_priceSilver",
          "type": "uint256"
        },
        {
          "name": "_priceBronze",
          "type": "uint256"
        }
      ],
      "payable": false,
      "stateMutability": "nonpayable",
      "type": "constructor"
    },
    {
      "anonymous": false,
      "inputs": [
        {
          "indexed": false,
          "name": "_sponsor",
          "type": "address"
        },
        {
          "indexed": false,
          "name": "_name",
          "type": "string"
        }
      ],
      "name": "beenSponsor",
      "type": "event"
    },
    {
      "anonymous": false,
      "inputs": [
        {
          "indexed": false,
          "name": "_name",
          "type": "string"
        },
        {
          "indexed": false,
          "name": "_url",
          "type": "string"
        },
        {
          "indexed": false,
          "name": "_hash",
          "type": "string"
        },
        {
          "indexed": false,
          "name": "_type",
          "type": "uint256"
        },
        {
          "indexed": false,
          "name": "_duration",
          "type": "uint256"
        }
      ],
      "name": "requestSponsor",
      "type": "event"
    },
    {
      "anonymous": false,
      "inputs": [
        {
          "indexed": false,
          "name": "_address",
          "type": "address"
        },
        {
          "indexed": false,
          "name": "_name",
          "type": "string"
        }
      ],
      "name": "deniedSponsor",
      "type": "event"
    },
    {
      "anonymous": false,
      "inputs": [
        {
          "indexed": true,
          "name": "sponsor",
          "type": "address"
        },
        {
          "indexed": false,
          "name": "name",
          "type": "string"
        },
        {
          "indexed": false,
          "name": "month",
          "type": "uint256"
        }
      ],
      "name": "removedSponsor",
      "type": "event"
    },
    {
      "anonymous": false,
      "inputs": [
        {
          "indexed": true,
          "name": "sponsor",
          "type": "address"
        },
        {
          "indexed": false,
          "name": "name",
          "type": "string"
        },
        {
          "indexed": false,
          "name": "month",
          "type": "uint256"
        }
      ],
      "name": "expiredSponsor",
      "type": "event"
    },
    {
      "anonymous": false,
      "inputs": [
        {
          "indexed": true,
          "name": "previousOwner",
          "type": "address"
        }
      ],
      "name": "OwnershipRenounced",
      "type": "event"
    },
    {
      "anonymous": false,
      "inputs": [
        {
          "indexed": true,
          "name": "previousOwner",
          "type": "address"
        },
        {
          "indexed": true,
          "name": "newOwner",
          "type": "address"
        }
      ],
      "name": "OwnershipTransferred",
      "type": "event"
    },
    {
      "constant": false,
      "inputs": [
        {
          "name": "_name",
          "type": "string"
        },
        {
          "name": "_url",
          "type": "string"
        },
        {
          "name": "_imageHash",
          "type": "string"
        },
        {
          "name": "_type",
          "type": "uint256"
        },
        {
          "name": "_duration",
          "type": "uint256"
        }
      ],
      "name": "requestBeingSponsor",
      "outputs": [],
      "payable": true,
      "stateMutability": "payable",
      "type": "function"
    },
    {
      "constant": false,
      "inputs": [
        {
          "name": "_index",
          "type": "uint256"
        }
      ],
      "name": "removeSponsor",
      "outputs": [],
      "payable": false,
      "stateMutability": "nonpayable",
      "type": "function"
    },
    {
      "constant": false,
      "inputs": [
        {
          "name": "_index",
          "type": "uint256"
        }
      ],
      "name": "confirm",
      "outputs": [],
      "payable": false,
      "stateMutability": "nonpayable",
      "type": "function"
    },
    {
      "constant": false,
      "inputs": [
        {
          "name": "_index",
          "type": "uint256"
        }
      ],
      "name": "deny",
      "outputs": [],
      "payable": false,
      "stateMutability": "nonpayable",
      "type": "function"
    },
    {
      "constant": true,
      "inputs": [],
      "name": "isAdmin",
      "outputs": [
        {
          "name": "",
          "type": "bool"
        }
      ],
      "payable": false,
      "stateMutability": "view",
      "type": "function"
    },
    {
      "constant": true,
      "inputs": [],
      "name": "getAdmin",
      "outputs": [
        {
          "name": "",
          "type": "address"
        }
      ],
      "payable": false,
      "stateMutability": "view",
      "type": "function"
    },
    {
      "constant": false,
      "inputs": [
        {
          "name": "_limit",
          "type": "uint256"
        }
      ],
      "name": "setLimit",
      "outputs": [],
      "payable": false,
      "stateMutability": "nonpayable",
      "type": "function"
    },
    {
      "constant": true,
      "inputs": [],
      "name": "getLimit",
      "outputs": [
        {
          "name": "",
          "type": "uint256"
        }
      ],
      "payable": false,
      "stateMutability": "view",
      "type": "function"
    },
    {
      "constant": false,
      "inputs": [
        {
          "name": "_isActive",
          "type": "bool"
        }
      ],
      "name": "setActive",
      "outputs": [],
      "payable": false,
      "stateMutability": "nonpayable",
      "type": "function"
    },
    {
      "constant": true,
      "inputs": [],
      "name": "getActive",
      "outputs": [
        {
          "name": "",
          "type": "bool"
        }
      ],
      "payable": false,
      "stateMutability": "view",
      "type": "function"
    },
    {
      "constant": false,
      "inputs": [
        {
          "name": "_price",
          "type": "uint256"
        },
        {
          "name": "_type",
          "type": "uint256"
        }
      ],
      "name": "setPrice",
      "outputs": [],
      "payable": false,
      "stateMutability": "nonpayable",
      "type": "function"
    },
    {
      "constant": true,
      "inputs": [],
      "name": "getPrice",
      "outputs": [
        {
          "name": "",
          "type": "uint256"
        },
        {
          "name": "",
          "type": "uint256"
        },
        {
          "name": "",
          "type": "uint256"
        }
      ],
      "payable": false,
      "stateMutability": "view",
      "type": "function"
    },
    {
      "constant": true,
      "inputs": [
        {
          "name": "_index",
          "type": "uint256"
        }
      ],
      "name": "getSponsor",
      "outputs": [
        {
          "name": "",
          "type": "address"
        }
      ],
      "payable": false,
      "stateMutability": "view",
      "type": "function"
    },
    {
      "constant": true,
      "inputs": [],
      "name": "getSponsorsCount",
      "outputs": [
        {
          "name": "",
          "type": "uint256"
        }
      ],
      "payable": false,
      "stateMutability": "view",
      "type": "function"
    },
    {
      "constant": true,
      "inputs": [
        {
          "name": "_ind",
          "type": "uint256"
        }
      ],
      "name": "getPendingSponsor",
      "outputs": [
        {
          "name": "",
          "type": "string"
        },
        {
          "name": "",
          "type": "string"
        },
        {
          "name": "",
          "type": "string"
        },
        {
          "name": "",
          "type": "uint256"
        },
        {
          "name": "",
          "type": "uint256"
        },
        {
          "name": "",
          "type": "uint256"
        }
      ],
      "payable": false,
      "stateMutability": "view",
      "type": "function"
    },
    {
      "constant": true,
      "inputs": [],
      "name": "getPendingsCount",
      "outputs": [
        {
          "name": "",
          "type": "uint256"
        }
      ],
      "payable": false,
      "stateMutability": "view",
      "type": "function"
    }
  ],
  "bytecode": "0x608060405234801561001057600080fd5b50604051608080613b6183398101806040528101908080519060200190929190805190602001909291908051906020019092919080519060200190929190505050336000806101000a81548173ffffffffffffffffffffffffffffffffffffffff021916908373ffffffffffffffffffffffffffffffffffffffff160217905550836001819055508260038190555081600481905550806005819055506001600060146101000a81548160ff02191690831515021790555050505050613a86806100db6000396000f3006080604052600436106200014a576000357c0100000000000000000000000000000000000000000000000000000000900463ffffffff1680629ebb10146200014f57806303aca792146200018157806327ea6f2b146200036257806339d4397214620003925780634485b5f9146200040257806350017f55146200043257806356e4929f14620004b857806356f6628214620004e65780636e9960c31462000516578063715018a614620005705780638872a7a7146200058a578063893d20e814620006885780638da5cb5b14620006e257806398d5fdca146200073c578063acec338a1462000778578063b295a00e14620007aa578063b6db75a014620007d8578063ba0179b5146200080a578063cf5224db146200083a578063d1335b8f1462000868578063f2fde38b1462000a07578063f7d975771462000a4d578063fcb1213b1462000a87575b600080fd5b3480156200015c57600080fd5b506200016762000af7565b604051808215151515815260200191505060405180910390f35b3480156200018e57600080fd5b50620001af6004803603810190808035906020019092919050505062000b0d565b60405180806020018060200180602001886002811115620001cc57fe5b60ff1681526020018781526020018681526020018573ffffffffffffffffffffffffffffffffffffffff1673ffffffffffffffffffffffffffffffffffffffff16815260200184810384528b818151815260200191508051906020019080838360005b838110156200024c5780820151818401526020810190506200022f565b50505050905090810190601f1680156200027a5780820380516001836020036101000a031916815260200191505b5084810383528a818151815260200191508051906020019080838360005b83811015620002b557808201518184015260208101905062000298565b50505050905090810190601f168015620002e35780820380516001836020036101000a031916815260200191505b50848103825289818151815260200191508051906020019080838360005b838110156200031e57808201518184015260208101905062000301565b50505050905090810190601f1680156200034c5780820380516001836020036101000a031916815260200191505b509a505050505050505050505060405180910390f35b3480156200036f57600080fd5b50620003906004803603810190808035906020019092919050505062000d60565b005b3480156200039f57600080fd5b50620003c06004803603810190808035906020019092919050505062000dd8565b604051808273ffffffffffffffffffffffffffffffffffffffff1673ffffffffffffffffffffffffffffffffffffffff16815260200191505060405180910390f35b3480156200040f57600080fd5b50620004306004803603810190808035906020019092919050505062000e1c565b005b3480156200043f57600080fd5b5062000476600480360381019080803573ffffffffffffffffffffffffffffffffffffffff16906020019092919050505062001265565b604051808273ffffffffffffffffffffffffffffffffffffffff1673ffffffffffffffffffffffffffffffffffffffff16815260200191505060405180910390f35b348015620004c557600080fd5b50620004d062001298565b6040518082815260200191505060405180910390f35b348015620004f357600080fd5b506200051460048036038101908080359060200190929190505050620012a2565b005b3480156200052357600080fd5b506200052e620014f2565b604051808273ffffffffffffffffffffffffffffffffffffffff1673ffffffffffffffffffffffffffffffffffffffff16815260200191505060405180910390f35b3480156200057d57600080fd5b50620005886200151b565b005b62000686600480360381019080803590602001908201803590602001908080601f0160208091040260200160405190810160405280939291908181526020018383808284378201915050505050509192919290803590602001908201803590602001908080601f0160208091040260200160405190810160405280939291908181526020018383808284378201915050505050509192919290803590602001908201803590602001908080601f016020809104026020016040519081016040528093929190818152602001838380828437820191505050505050919291929080359060200190929190803590602001909291905050506200161e565b005b3480156200069557600080fd5b50620006a062001a0e565b604051808273ffffffffffffffffffffffffffffffffffffffff1673ffffffffffffffffffffffffffffffffffffffff16815260200191505060405180910390f35b348015620006ef57600080fd5b50620006fa62001a37565b604051808273ffffffffffffffffffffffffffffffffffffffff1673ffffffffffffffffffffffffffffffffffffffff16815260200191505060405180910390f35b3480156200074957600080fd5b506200075462001a5c565b60405180848152602001838152602001828152602001935050505060405180910390f35b3480156200078557600080fd5b50620007a860048036038101908080351515906020019092919050505062001a75565b005b348015620007b757600080fd5b50620007c262001aee565b6040518082815260200191505060405180910390f35b348015620007e557600080fd5b50620007f062001af8565b604051808215151515815260200191505060405180910390f35b3480156200081757600080fd5b50620008386004803603810190808035906020019092919050505062001b4f565b005b3480156200084757600080fd5b50620008526200200f565b6040518082815260200191505060405180910390f35b3480156200087557600080fd5b5062000896600480360381019080803590602001909291905050506200201c565b6040518080602001806020018060200187815260200186815260200185815260200184810384528a818151815260200191508051906020019080838360005b83811015620008f2578082015181840152602081019050620008d5565b50505050905090810190601f168015620009205780820380516001836020036101000a031916815260200191505b50848103835289818151815260200191508051906020019080838360005b838110156200095b5780820151818401526020810190506200093e565b50505050905090810190601f168015620009895780820380516001836020036101000a031916815260200191505b50848103825288818151815260200191508051906020019080838360005b83811015620009c4578082015181840152602081019050620009a7565b50505050905090810190601f168015620009f25780820380516001836020036101000a031916815260200191505b50995050505050505050505060405180910390f35b34801562000a1457600080fd5b5062000a4b600480360381019080803573ffffffffffffffffffffffffffffffffffffffff169060200190929190505050620022fd565b005b34801562000a5a57600080fd5b5062000a85600480360381019080803590602001909291908035906020019092919050505062002454565b005b34801562000a9457600080fd5b5062000ab56004803603810190808035906020019092919050505062002532565b604051808273ffffffffffffffffffffffffffffffffffffffff1673ffffffffffffffffffffffffffffffffffffffff16815260200191505060405180910390f35b60008060149054906101000a900460ff16905090565b60088181548110151562000b1d57fe5b9060005260206000209060070201600091509050806000018054600181600116156101000203166002900480601f01602080910402602001604051908101604052809291908181526020018280546001816001161561010002031660029004801562000bcd5780601f1062000ba15761010080835404028352916020019162000bcd565b820191906000526020600020905b81548152906001019060200180831162000baf57829003601f168201915b505050505090806001018054600181600116156101000203166002900480601f01602080910402602001604051908101604052809291908181526020018280546001816001161561010002031660029004801562000c6f5780601f1062000c435761010080835404028352916020019162000c6f565b820191906000526020600020905b81548152906001019060200180831162000c5157829003601f168201915b505050505090806002018054600181600116156101000203166002900480601f01602080910402602001604051908101604052809291908181526020018280546001816001161561010002031660029004801562000d115780601f1062000ce55761010080835404028352916020019162000d11565b820191906000526020600020905b81548152906001019060200180831162000cf357829003601f168201915b5050505050908060030160009054906101000a900460ff16908060040154908060050154908060060160009054906101000a900473ffffffffffffffffffffffffffffffffffffffff16905087565b6000809054906101000a900473ffffffffffffffffffffffffffffffffffffffff1673ffffffffffffffffffffffffffffffffffffffff163373ffffffffffffffffffffffffffffffffffffffff1614151562000dbc57600080fd5b600254811015151562000dce57600080fd5b8060018190555050565b600060068281548110151562000dea57fe5b9060005260206000200160009054906101000a900473ffffffffffffffffffffffffffffffffffffffff169050919050565b60008060009054906101000a900473ffffffffffffffffffffffffffffffffffffffff1673ffffffffffffffffffffffffffffffffffffffff163373ffffffffffffffffffffffffffffffffffffffff1614151562000e7a57600080fd5b60068281548110151562000e8a57fe5b9060005260206000200160009054906101000a900473ffffffffffffffffffffffffffffffffffffffff169050600760008273ffffffffffffffffffffffffffffffffffffffff1663893d20e86040518163ffffffff167c0100000000000000000000000000000000000000000000000000000000028152600401602060405180830381600087803b15801562000f2057600080fd5b505af115801562000f35573d6000803e3d6000fd5b505050506040513d602081101562000f4c57600080fd5b810190808051906020019092919050505073ffffffffffffffffffffffffffffffffffffffff1673ffffffffffffffffffffffffffffffffffffffff16815260200190815260200160002060006101000a81549073ffffffffffffffffffffffffffffffffffffffff021916905560068281548110151562000fca57fe5b9060005260206000200160006101000a81549073ffffffffffffffffffffffffffffffffffffffff021916905560016002600082825403925050819055508073ffffffffffffffffffffffffffffffffffffffff167f48e9b020740944701933bca8e3d5e864bbd8daf274894e92175030a9caf196288273ffffffffffffffffffffffffffffffffffffffff166317d7de7c6040518163ffffffff167c0100000000000000000000000000000000000000000000000000000000028152600401600060405180830381600087803b158015620010a557600080fd5b505af1158015620010ba573d6000803e3d6000fd5b505050506040513d6000823e3d601f19601f820116820180604052506020811015620010e557600080fd5b810190808051640100000000811115620010fe57600080fd5b828101905060208101848111156200111557600080fd5b81518560018202830111640100000000821117156200113357600080fd5b50509291905050508373ffffffffffffffffffffffffffffffffffffffff1663ad2e8c9b6040518163ffffffff167c0100000000000000000000000000000000000000000000000000000000028152600401602060405180830381600087803b158015620011a057600080fd5b505af1158015620011b5573d6000803e3d6000fd5b505050506040513d6020811015620011cc57600080fd5b81019080805190602001909291905050506040518080602001838152602001828103825284818151815260200191508051906020019080838360005b838110156200122557808201518184015260208101905062001208565b50505050905090810190601f168015620012535780820380516001836020036101000a031916815260200191505b50935050505060405180910390a25050565b60076020528060005260406000206000915054906101000a900473ffffffffffffffffffffffffffffffffffffffff1681565b6000600254905090565b60008060009054906101000a900473ffffffffffffffffffffffffffffffffffffffff1673ffffffffffffffffffffffffffffffffffffffff163373ffffffffffffffffffffffffffffffffffffffff161415156200130057600080fd5b6008828154811015156200131057fe5b90600052602060002090600702019050600081600501541415156200133457600080fd5b600281600501819055508060060160009054906101000a900473ffffffffffffffffffffffffffffffffffffffff1673ffffffffffffffffffffffffffffffffffffffff166108fc620013a98360030160009054906101000a900460ff1660028111156200139e57fe5b846004015462002571565b9081150290604051600060405180830381858888f19350505050158015620013d5573d6000803e3d6000fd5b507fc2694b24d2363484ab316e84a15e2dd83b8ff88d2c7fa62f4cb0b3d3fd2169a28160060160009054906101000a900473ffffffffffffffffffffffffffffffffffffffff1682600001604051808373ffffffffffffffffffffffffffffffffffffffff1673ffffffffffffffffffffffffffffffffffffffff16815260200180602001828103825283818154600181600116156101000203166002900481526020019150805460018160011615610100020316600290048015620014df5780601f10620014b357610100808354040283529160200191620014df565b820191906000526020600020905b815481529060010190602001808311620014c157829003601f168201915b5050935050505060405180910390a15050565b60008060009054906101000a900473ffffffffffffffffffffffffffffffffffffffff16905090565b6000809054906101000a900473ffffffffffffffffffffffffffffffffffffffff1673ffffffffffffffffffffffffffffffffffffffff163373ffffffffffffffffffffffffffffffffffffffff161415156200157757600080fd5b6000809054906101000a900473ffffffffffffffffffffffffffffffffffffffff1673ffffffffffffffffffffffffffffffffffffffff167ff8df31144d9c2f0f6b59d69b8b98abd5459d07f2742c4df920b25aae33c6482060405160405180910390a260008060006101000a81548173ffffffffffffffffffffffffffffffffffffffff021916908373ffffffffffffffffffffffffffffffffffffffff160217905550565b600060149054906101000a900460ff1615156200163a57600080fd5b62001646828262002571565b34101515156200165557600080fd5b6001546002541015156200166857600080fd5b600073ffffffffffffffffffffffffffffffffffffffff16600760003373ffffffffffffffffffffffffffffffffffffffff1673ffffffffffffffffffffffffffffffffffffffff16815260200190815260200160002060009054906101000a900473ffffffffffffffffffffffffffffffffffffffff1673ffffffffffffffffffffffffffffffffffffffff161415156200170357600080fd5b600860e0604051908101604052808781526020018681526020018581526020018460028111156200173057fe5b60028111156200173c57fe5b8152602001838152602001600081526020013373ffffffffffffffffffffffffffffffffffffffff16815250908060018154018082558091505090600182039060005260206000209060070201600090919290919091506000820151816000019080519060200190620017b192919062002611565b506020820151816001019080519060200190620017d092919062002611565b506040820151816002019080519060200190620017ef92919062002611565b5060608201518160030160006101000a81548160ff021916908360028111156200181557fe5b02179055506080820151816004015560a0820151816005015560c08201518160060160006101000a81548173ffffffffffffffffffffffffffffffffffffffff021916908373ffffffffffffffffffffffffffffffffffffffff1602179055505050507f91a5ab14b954ac8ffeddde394bf1f52f0558548d7cd78a99ca9d5e8572b796d9858585858560405180806020018060200180602001868152602001858152602001848103845289818151815260200191508051906020019080838360005b83811015620018f4578082015181840152602081019050620018d7565b50505050905090810190601f168015620019225780820380516001836020036101000a031916815260200191505b50848103835288818151815260200191508051906020019080838360005b838110156200195d57808201518184015260208101905062001940565b50505050905090810190601f1680156200198b5780820380516001836020036101000a031916815260200191505b50848103825287818151815260200191508051906020019080838360005b83811015620019c6578082015181840152602081019050620019a9565b50505050905090810190601f168015620019f45780820380516001836020036101000a031916815260200191505b509850505050505050505060405180910390a15050505050565b60008060009054906101000a900473ffffffffffffffffffffffffffffffffffffffff16905090565b6000809054906101000a900473ffffffffffffffffffffffffffffffffffffffff1681565b6000806000600354600454600554925092509250909192565b6000809054906101000a900473ffffffffffffffffffffffffffffffffffffffff1673ffffffffffffffffffffffffffffffffffffffff163373ffffffffffffffffffffffffffffffffffffffff1614151562001ad157600080fd5b80600060146101000a81548160ff02191690831515021790555050565b6000600154905090565b60008060009054906101000a900473ffffffffffffffffffffffffffffffffffffffff1673ffffffffffffffffffffffffffffffffffffffff163373ffffffffffffffffffffffffffffffffffffffff1614905090565b6000806000809054906101000a900473ffffffffffffffffffffffffffffffffffffffff1673ffffffffffffffffffffffffffffffffffffffff163373ffffffffffffffffffffffffffffffffffffffff1614151562001bae57600080fd5b60088381548110151562001bbe57fe5b906000526020600020906007020191506000826005015414151562001be257600080fd5b8160000182600101836002018460030160009054906101000a900460ff16600281111562001c0c57fe5b856004015462001c1b62002698565b8080602001806020018060200186815260200185815260200184810384528981815460018160011615610100020316600290048152602001915080546001816001161561010002031660029004801562001cb95780601f1062001c8d5761010080835404028352916020019162001cb9565b820191906000526020600020905b81548152906001019060200180831162001c9b57829003601f168201915b505084810383528881815460018160011615610100020316600290048152602001915080546001816001161561010002031660029004801562001d405780601f1062001d145761010080835404028352916020019162001d40565b820191906000526020600020905b81548152906001019060200180831162001d2257829003601f168201915b505084810382528781815460018160011615610100020316600290048152602001915080546001816001161561010002031660029004801562001dc75780601f1062001d9b5761010080835404028352916020019162001dc7565b820191906000526020600020905b81548152906001019060200180831162001da957829003601f168201915b505098505050505050505050604051809103906000f08015801562001df0573d6000803e3d6000fd5b50905060068190806001815401808255809150509060018203906000526020600020016000909192909190916101000a81548173ffffffffffffffffffffffffffffffffffffffff021916908373ffffffffffffffffffffffffffffffffffffffff1602179055505080600760008460060160009054906101000a900473ffffffffffffffffffffffffffffffffffffffff1673ffffffffffffffffffffffffffffffffffffffff1673ffffffffffffffffffffffffffffffffffffffff16815260200190815260200160002060006101000a81548173ffffffffffffffffffffffffffffffffffffffff021916908373ffffffffffffffffffffffffffffffffffffffff1602179055506001600260008282540192505081905550600182600501819055507fa10ad3d048bea14dee21673def6205be8cb75e51edf23f1030213074a61365ac8183600001604051808373ffffffffffffffffffffffffffffffffffffffff1673ffffffffffffffffffffffffffffffffffffffff1681526020018060200182810382528381815460018160011615610100020316600290048152602001915080546001816001161561010002031660029004801562001ffb5780601f1062001fcf5761010080835404028352916020019162001ffb565b820191906000526020600020905b81548152906001019060200180831162001fdd57829003601f168201915b5050935050505060405180910390a1505050565b6000600880549050905090565b606080606060008060006008878154811015156200203657fe5b90600052602060002090600702016000016008888154811015156200205757fe5b90600052602060002090600702016001016008898154811015156200207857fe5b906000526020600020906007020160020160088a8154811015156200209957fe5b906000526020600020906007020160030160009054906101000a900460ff166002811115620020c457fe5b60088b815481101515620020d457fe5b90600052602060002090600702016004015460088c815481101515620020f657fe5b906000526020600020906007020160050154858054600181600116156101000203166002900480601f016020809104026020016040519081016040528092919081815260200182805460018160011615610100020316600290048015620021a15780601f106200217557610100808354040283529160200191620021a1565b820191906000526020600020905b8154815290600101906020018083116200218357829003601f168201915b50505050509550848054600181600116156101000203166002900480601f016020809104026020016040519081016040528092919081815260200182805460018160011615610100020316600290048015620022415780601f10620022155761010080835404028352916020019162002241565b820191906000526020600020905b8154815290600101906020018083116200222357829003601f168201915b50505050509450838054600181600116156101000203166002900480601f016020809104026020016040519081016040528092919081815260200182805460018160011615610100020316600290048015620022e15780601f10620022b557610100808354040283529160200191620022e1565b820191906000526020600020905b815481529060010190602001808311620022c357829003601f168201915b5050505050935095509550955095509550955091939550919395565b6000809054906101000a900473ffffffffffffffffffffffffffffffffffffffff1673ffffffffffffffffffffffffffffffffffffffff163373ffffffffffffffffffffffffffffffffffffffff161415156200235957600080fd5b600073ffffffffffffffffffffffffffffffffffffffff168173ffffffffffffffffffffffffffffffffffffffff16141515156200239657600080fd5b8073ffffffffffffffffffffffffffffffffffffffff166000809054906101000a900473ffffffffffffffffffffffffffffffffffffffff1673ffffffffffffffffffffffffffffffffffffffff167f8be0079c531659141344cd1fd0a4f28419497f9722a3daafe3b4186f6b6457e060405160405180910390a3806000806101000a81548173ffffffffffffffffffffffffffffffffffffffff021916908373ffffffffffffffffffffffffffffffffffffffff16021790555050565b6000809054906101000a900473ffffffffffffffffffffffffffffffffffffffff1673ffffffffffffffffffffffffffffffffffffffff163373ffffffffffffffffffffffffffffffffffffffff16141515620024b057600080fd5b60016002811115620024be57fe5b816002811115620024cb57fe5b6002811115620024d757fe5b1415620024eb57816005819055506200252e565b600280811115620024f857fe5b8160028111156200250557fe5b60028111156200251157fe5b14156200252557816004819055506200252d565b816003819055505b5b5050565b6006818154811015156200254257fe5b906000526020600020016000915054906101000a900473ffffffffffffffffffffffffffffffffffffffff1681565b6000600160028111156200258157fe5b8360028111156200258e57fe5b60028111156200259a57fe5b1415620025b7578166038d7ea4c68000600554020290506200260b565b600280811115620025c457fe5b836002811115620025d157fe5b6002811115620025dd57fe5b1415620025fa578166038d7ea4c68000600454020290506200260b565b8166038d7ea4c68000600354020290505b92915050565b828054600181600116156101000203166002900490600052602060002090601f016020900481019282601f106200265457805160ff191683800117855562002685565b8280016001018555821562002685579182015b828111156200268457825182559160200191906001019062002667565b5b509050620026949190620026a9565b5090565b60405161138980620026d283390190565b620026ce91905b80821115620026ca576000816000905550600101620026b0565b5090565b90560060806040523480156200001157600080fd5b5060405162001389380380620013898339810180604052810190808051820192919060200180518201929190602001805182019291906020018051906020019092919080519060200190929190505050336000806101000a81548173ffffffffffffffffffffffffffffffffffffffff021916908373ffffffffffffffffffffffffffffffffffffffff1602179055508460019080519060200190620000b9929190620001ae565b508360029080519060200190620000d2929190620001ae565b508260039080519060200190620000eb929190620001ae565b5042600460016101000a81548167ffffffffffffffff021916908367ffffffffffffffff1602179055508160028111156200012257fe5b600460006101000a81548160ff021916908360028111156200014057fe5b0217905550806005819055506200017d81600460019054906101000a900467ffffffffffffffff166200018e640100000000026401000000009004565b60068190555050505050506200025d565b60008167ffffffffffffffff168301600681905550600654905092915050565b828054600181600116156101000203166002900490600052602060002090601f016020900481019282601f10620001f157805160ff191683800117855562000222565b8280016001018555821562000222579182015b828111156200022157825182559160200191906001019062000204565b5b50905062000231919062000235565b5090565b6200025a91905b80821115620002565760008160009055506001016200023c565b5090565b90565b61111c806200026d6000396000f3006080604052600436106100e6576000357c0100000000000000000000000000000000000000000000000000000000900463ffffffff16806317d7de7c146100eb5780631e2c74f61461017b5780631ed83fd4146101aa578063252498a214610213578063447f69e61461027c578063715018a6146102d15780637eb0e5e5146102e8578063893d20e8146103135780638da5cb5b1461036a578063ad2e8c9b146103c1578063c47f0027146103ec578063d13319c414610455578063d6bd8727146104e5578063f115267714610575578063f2fde38b146106eb578063fde081741461072e575b600080fd5b3480156100f757600080fd5b50610100610759565b6040518080602001828103825283818151815260200191508051906020019080838360005b83811015610140578082015181840152602081019050610125565b50505050905090810190601f16801561016d5780820380516001836020036101000a031916815260200191505b509250505060405180910390f35b34801561018757600080fd5b506101a86004803603810190808035151590602001909291905050506107fb565b005b3480156101b657600080fd5b50610211600480360381019080803590602001908201803590602001908080601f016020809104026020016040519081016040528093929190818152602001838380828437820191505050505050919291929050505061089c565b005b34801561021f57600080fd5b5061027a600480360381019080803590602001908201803590602001908080601f0160208091040260200160405190810160405280939291908181526020018383808284378201915050505050509192919290505050610911565b005b34801561028857600080fd5b506102bb60048036038101908080359060200190929190803567ffffffffffffffff169060200190929190505050610986565b6040518082815260200191505060405180910390f35b3480156102dd57600080fd5b506102e66109a6565b005b3480156102f457600080fd5b506102fd610aa8565b6040518082815260200191505060405180910390f35b34801561031f57600080fd5b50610328610ab2565b604051808273ffffffffffffffffffffffffffffffffffffffff1673ffffffffffffffffffffffffffffffffffffffff16815260200191505060405180910390f35b34801561037657600080fd5b5061037f610adb565b604051808273ffffffffffffffffffffffffffffffffffffffff1673ffffffffffffffffffffffffffffffffffffffff16815260200191505060405180910390f35b3480156103cd57600080fd5b506103d6610b00565b6040518082815260200191505060405180910390f35b3480156103f857600080fd5b50610453600480360381019080803590602001908201803590602001908080601f0160208091040260200160405190810160405280939291908181526020018383808284378201915050505050509192919290505050610b0a565b005b34801561046157600080fd5b5061046a610b7f565b6040518080602001828103825283818151815260200191508051906020019080838360005b838110156104aa57808201518184015260208101905061048f565b50505050905090810190601f1680156104d75780820380516001836020036101000a031916815260200191505b509250505060405180910390f35b3480156104f157600080fd5b506104fa610c21565b6040518080602001828103825283818151815260200191508051906020019080838360005b8381101561053a57808201518184015260208101905061051f565b50505050905090810190601f1680156105675780820380516001836020036101000a031916815260200191505b509250505060405180910390f35b34801561058157600080fd5b5061058a610cc3565b60405180806020018060200180602001868152602001858152602001848103845289818151815260200191508051906020019080838360005b838110156105de5780820151818401526020810190506105c3565b50505050905090810190601f16801561060b5780820380516001836020036101000a031916815260200191505b50848103835288818151815260200191508051906020019080838360005b83811015610644578082015181840152602081019050610629565b50505050905090810190601f1680156106715780820380516001836020036101000a031916815260200191505b50848103825287818151815260200191508051906020019080838360005b838110156106aa57808201518184015260208101905061068f565b50505050905090810190601f1680156106d75780820380516001836020036101000a031916815260200191505b509850505050505050505060405180910390f35b3480156106f757600080fd5b5061072c600480360381019080803573ffffffffffffffffffffffffffffffffffffffff169060200190929190505050610ed4565b005b34801561073a57600080fd5b50610743611029565b6040518082815260200191505060405180910390f35b606060018054600181600116156101000203166002900480601f0160208091040260200160405190810160405280929190818152602001828054600181600116156101000203166002900480156107f15780601f106107c6576101008083540402835291602001916107f1565b820191906000526020600020905b8154815290600101906020018083116107d457829003601f168201915b5050505050905090565b6000809054906101000a900473ffffffffffffffffffffffffffffffffffffffff1673ffffffffffffffffffffffffffffffffffffffff163373ffffffffffffffffffffffffffffffffffffffff1614151561085657600080fd5b80151561086257600080fd5b6000809054906101000a900473ffffffffffffffffffffffffffffffffffffffff1673ffffffffffffffffffffffffffffffffffffffff16ff5b6000809054906101000a900473ffffffffffffffffffffffffffffffffffffffff1673ffffffffffffffffffffffffffffffffffffffff163373ffffffffffffffffffffffffffffffffffffffff161415156108f757600080fd5b806003908051906020019061090d92919061104b565b5050565b6000809054906101000a900473ffffffffffffffffffffffffffffffffffffffff1673ffffffffffffffffffffffffffffffffffffffff163373ffffffffffffffffffffffffffffffffffffffff1614151561096c57600080fd5b806002908051906020019061098292919061104b565b5050565b60008167ffffffffffffffff168301600681905550600654905092915050565b6000809054906101000a900473ffffffffffffffffffffffffffffffffffffffff1673ffffffffffffffffffffffffffffffffffffffff163373ffffffffffffffffffffffffffffffffffffffff16141515610a0157600080fd5b6000809054906101000a900473ffffffffffffffffffffffffffffffffffffffff1673ffffffffffffffffffffffffffffffffffffffff167ff8df31144d9c2f0f6b59d69b8b98abd5459d07f2742c4df920b25aae33c6482060405160405180910390a260008060006101000a81548173ffffffffffffffffffffffffffffffffffffffff021916908373ffffffffffffffffffffffffffffffffffffffff160217905550565b6000600654905090565b60008060009054906101000a900473ffffffffffffffffffffffffffffffffffffffff16905090565b6000809054906101000a900473ffffffffffffffffffffffffffffffffffffffff1681565b6000600554905090565b6000809054906101000a900473ffffffffffffffffffffffffffffffffffffffff1673ffffffffffffffffffffffffffffffffffffffff163373ffffffffffffffffffffffffffffffffffffffff16141515610b6557600080fd5b8060019080519060200190610b7b92919061104b565b5050565b606060038054600181600116156101000203166002900480601f016020809104026020016040519081016040528092919081815260200182805460018160011615610100020316600290048015610c175780601f10610bec57610100808354040283529160200191610c17565b820191906000526020600020905b815481529060010190602001808311610bfa57829003601f168201915b5050505050905090565b606060028054600181600116156101000203166002900480601f016020809104026020016040519081016040528092919081815260200182805460018160011615610100020316600290048015610cb95780601f10610c8e57610100808354040283529160200191610cb9565b820191906000526020600020905b815481529060010190602001808311610c9c57829003601f168201915b5050505050905090565b6060806060600080600160026003600460009054906101000a900460ff166002811115610cec57fe5b600554848054600181600116156101000203166002900480601f016020809104026020016040519081016040528092919081815260200182805460018160011615610100020316600290048015610d845780601f10610d5957610100808354040283529160200191610d84565b820191906000526020600020905b815481529060010190602001808311610d6757829003601f168201915b50505050509450838054600181600116156101000203166002900480601f016020809104026020016040519081016040528092919081815260200182805460018160011615610100020316600290048015610e205780601f10610df557610100808354040283529160200191610e20565b820191906000526020600020905b815481529060010190602001808311610e0357829003601f168201915b50505050509350828054600181600116156101000203166002900480601f016020809104026020016040519081016040528092919081815260200182805460018160011615610100020316600290048015610ebc5780601f10610e9157610100808354040283529160200191610ebc565b820191906000526020600020905b815481529060010190602001808311610e9f57829003601f168201915b50505050509250945094509450945094509091929394565b6000809054906101000a900473ffffffffffffffffffffffffffffffffffffffff1673ffffffffffffffffffffffffffffffffffffffff163373ffffffffffffffffffffffffffffffffffffffff16141515610f2f57600080fd5b600073ffffffffffffffffffffffffffffffffffffffff168173ffffffffffffffffffffffffffffffffffffffff1614151515610f6b57600080fd5b8073ffffffffffffffffffffffffffffffffffffffff166000809054906101000a900473ffffffffffffffffffffffffffffffffffffffff1673ffffffffffffffffffffffffffffffffffffffff167f8be0079c531659141344cd1fd0a4f28419497f9722a3daafe3b4186f6b6457e060405160405180910390a3806000806101000a81548173ffffffffffffffffffffffffffffffffffffffff021916908373ffffffffffffffffffffffffffffffffffffffff16021790555050565b6000600460009054906101000a900460ff16600281111561104657fe5b905090565b828054600181600116156101000203166002900490600052602060002090601f016020900481019282601f1061108c57805160ff19168380011785556110ba565b828001600101855582156110ba579182015b828111156110b957825182559160200191906001019061109e565b5b5090506110c791906110cb565b5090565b6110ed91905b808211156110e95760008160009055506001016110d1565b5090565b905600a165627a7a72305820714cd18276262a95e68016d04627a32d4db152d8397957bc9941ec0d6ebc64f50029a165627a7a7230582051ff10ac1db1269376f8c5ce4cc3f64db04885d55f4041bd550c5bf336a5a00a0029",
  "source": "pragma solidity >=0.4.22 < 0.6.0;\n\nimport \"./Sponsor.sol\";\nimport \"./Ownable.sol\";\n\ncontract FactorySponsor is Ownable {\n    \n    enum Role {Gold, Bronze, Silver}\n    \n    bool isActive;\n    uint sponsorLimit;\n    uint sponsorCount;\n    \n    uint priceGold;\n    uint priceSilver;\n    uint priceBronze;\n\n    address[] public listOfSponsors;//\n    mapping(address => address) public addressToSponsor;\n\n    struct Pending {\n        string name;\n        string url;\n        string imageHash;\n        Role role;\n        uint duration;\n        uint status;//0->pending,1->confirm,2->deny and money back\n        address owner;\n    }\n\n    Pending[] public pendingList;\n\n    event beenSponsor(address _sponsor, string _name);\n    event requestSponsor(string _name, string _url, string _hash, uint _type, uint _duration);\n    event deniedSponsor(address _address, string _name);\n    event removedSponsor(address indexed sponsor, string name, uint month);\n    event expiredSponsor(address indexed sponsor, string name, uint month);\n\n    modifier Active(){\n        require(isActive);\n        _;\n    }\n    constructor(uint _sponsorLimit, uint _priceGold, uint _priceSilver, uint _priceBronze) public{\n        sponsorLimit = _sponsorLimit;\n        priceGold = _priceGold;\n        priceSilver = _priceSilver;\n        priceBronze = _priceBronze;\n        isActive = true;\n\n    }\n    \n    function calculatePrice( uint _type,uint _duration)  view internal returns(uint){\n        if(Role(_type)==Role.Bronze) {\n          return  priceBronze * (1 finney) * _duration;\n        } else if(Role(_type)==Role.Silver) {\n          return  priceSilver * (1 finney) * _duration;\n        }\n        else{\n            return  priceGold * (1 finney) * _duration;\n        }\n    }\n    //expire indexed\n    function requestBeingSponsor(string _name, string _url, string _imageHash, uint _type, uint _duration)\n    payable\n    Active\n    public {\n        require(msg.value >= calculatePrice(_type,_duration));\n        require(sponsorCount < sponsorLimit);\n        \n        //forbitten request from same address\n        require(addressToSponsor[msg.sender] == address(0));\n    \n        pendingList.push(Pending({name : _name, url : _url, imageHash : _imageHash, duration : _duration,role:Role(_type), status : 0, owner : msg.sender}));\n        \n        emit requestSponsor(_name, _url, _imageHash,_type, _duration);\n\n    }\n\n    //admin methods\n    function removeSponsor(uint _index)\n    onlyOwner\n    public\n    {\n        Sponsor _temp = Sponsor(listOfSponsors[_index]);\n        delete addressToSponsor[_temp.getOwner()];\n        delete listOfSponsors[_index];\n        sponsorCount -= 1;\n        emit removedSponsor(address(_temp), _temp.getName(), _temp.getDuration());\n    }\n\n    function confirm(uint _index)\n    onlyOwner\n    public {\n\n        Pending storage tmp = pendingList[_index];\n        require(tmp.status == 0);\n\n        Sponsor _sponsor = new Sponsor(tmp.name, tmp.url, tmp.imageHash,uint(tmp.role),tmp.duration);\n        listOfSponsors.push(address(_sponsor));\n        addressToSponsor[tmp.owner] = address(_sponsor);\n        sponsorCount += 1;\n        tmp.status = 1;\n        emit beenSponsor(address(_sponsor), tmp.name);\n\n    }\n\n    function deny(uint _index)\n    onlyOwner\n    public {\n        Pending storage tmp = pendingList[_index];\n        require(tmp.status == 0);\n        tmp.status = 2;\n        tmp.owner.transfer(calculatePrice(uint(tmp.role),tmp.duration));\n        emit deniedSponsor(tmp.owner, tmp.name);\n\n    }\n\n    function isAdmin() public view returns (bool){\n        return (msg.sender == owner);\n    }\n\n    function getAdmin() public view returns (address){\n        return owner;\n    }\n\n    function setLimit(uint _limit)\n    onlyOwner\n    public {\n        require(_limit >= sponsorCount);\n        sponsorLimit = _limit;\n    }\n\n    function getLimit() public view returns (uint){\n        return sponsorLimit;\n    }\n\n    function setActive(bool _isActive)\n    onlyOwner()\n    public {\n        isActive = _isActive;\n    }\n\n    function getActive() public view returns (bool){\n        return isActive;\n    }\n\n    function setPrice(uint _price,uint _type) public onlyOwner() {\n        if(Role(_type)==Role.Bronze) {\n            priceBronze=_price;\n        } else if(Role(_type)==Role.Silver) {\n           priceSilver=_price;\n        }\n        else{\n            priceGold=_price;\n        }\n    }\n\n    function getPrice() public view returns (uint,uint,uint){\n        return (priceGold,priceSilver,priceBronze);\n    }\n\n    function getSponsor(uint _index) public view returns (address){\n        return listOfSponsors[_index];\n    }\n\n    function getSponsorsCount() public view returns (uint){\n        return sponsorCount;\n    }\n\n    function getPendingSponsor(uint _ind) public view returns (string, string, string, uint,uint, uint){\n        return (pendingList[_ind].name, pendingList[_ind].url, pendingList[_ind].imageHash, uint(pendingList[_ind].role), pendingList[_ind].duration, pendingList[_ind].status);\n    }\n\n    function getPendingsCount() public view returns (uint){\n        return pendingList.length;\n    }\n\n    function expireDetect()\n    internal\n    {\n        uint i = 0;\n        for (i; i < sponsorCount; i++) {\n            Sponsor _temp = Sponsor(listOfSponsors[i]);\n            require(uint64(now) >= _temp.getDeadTime());\n            delete addressToSponsor[_temp.getOwner()];\n            delete listOfSponsors[i];\n            sponsorCount -= 1;\n        }\n    }\n\n}\n",
  "sourcePath": "/Users/fotercim/Desktop/adhereum/contracts/FactorySponsor.sol",
  "compiler": {
    "name": "solc",
    "version": "0.4.24+commit.e67f0147.Emscripten.clang"
  },
  "schemaVersion": "2.0.1",
  "updatedAt": "2018-12-06T17:46:52.518Z"
}