{
  "contractName": "Sponsor",
  "abi": [
    {
      "constant": false,
      "inputs": [],
      "name": "renounceOwnership",
      "outputs": [],
      "payable": false,
      "stateMutability": "nonpayable",
      "type": "function"
    },
    {
      "constant": true,
      "inputs": [],
      "name": "getOwner",
      "outputs": [
        {
          "name": "",
          "type": "address"
        }
      ],
      "payable": false,
      "stateMutability": "view",
      "type": "function"
    },
    {
      "constant": true,
      "inputs": [],
      "name": "owner",
      "outputs": [
        {
          "name": "",
          "type": "address"
        }
      ],
      "payable": false,
      "stateMutability": "view",
      "type": "function"
    },
    {
      "constant": false,
      "inputs": [
        {
          "name": "newOwner",
          "type": "address"
        }
      ],
      "name": "transferOwnership",
      "outputs": [],
      "payable": false,
      "stateMutability": "nonpayable",
      "type": "function"
    },
    {
      "inputs": [
        {
          "name": "_name",
          "type": "string"
        },
        {
          "name": "_url",
          "type": "string"
        },
        {
          "name": "_imageHash",
          "type": "string"
        },
        {
          "name": "_type",
          "type": "uint256"
        },
        {
          "name": "_duration",
          "type": "uint256"
        }
      ],
      "payable": false,
      "stateMutability": "nonpayable",
      "type": "constructor"
    },
    {
      "anonymous": false,
      "inputs": [
        {
          "indexed": true,
          "name": "previousOwner",
          "type": "address"
        }
      ],
      "name": "OwnershipRenounced",
      "type": "event"
    },
    {
      "anonymous": false,
      "inputs": [
        {
          "indexed": true,
          "name": "previousOwner",
          "type": "address"
        },
        {
          "indexed": true,
          "name": "newOwner",
          "type": "address"
        }
      ],
      "name": "OwnershipTransferred",
      "type": "event"
    },
    {
      "constant": false,
      "inputs": [
        {
          "name": "_url",
          "type": "string"
        }
      ],
      "name": "setUrl",
      "outputs": [],
      "payable": false,
      "stateMutability": "nonpayable",
      "type": "function"
    },
    {
      "constant": true,
      "inputs": [],
      "name": "getUrl",
      "outputs": [
        {
          "name": "",
          "type": "string"
        }
      ],
      "payable": false,
      "stateMutability": "view",
      "type": "function"
    },
    {
      "constant": false,
      "inputs": [
        {
          "name": "_imageHash",
          "type": "string"
        }
      ],
      "name": "setHash",
      "outputs": [],
      "payable": false,
      "stateMutability": "nonpayable",
      "type": "function"
    },
    {
      "constant": true,
      "inputs": [],
      "name": "getHash",
      "outputs": [
        {
          "name": "",
          "type": "string"
        }
      ],
      "payable": false,
      "stateMutability": "view",
      "type": "function"
    },
    {
      "constant": false,
      "inputs": [
        {
          "name": "_name",
          "type": "string"
        }
      ],
      "name": "setName",
      "outputs": [],
      "payable": false,
      "stateMutability": "nonpayable",
      "type": "function"
    },
    {
      "constant": true,
      "inputs": [],
      "name": "getName",
      "outputs": [
        {
          "name": "",
          "type": "string"
        }
      ],
      "payable": false,
      "stateMutability": "view",
      "type": "function"
    },
    {
      "constant": true,
      "inputs": [],
      "name": "getRole",
      "outputs": [
        {
          "name": "",
          "type": "uint256"
        }
      ],
      "payable": false,
      "stateMutability": "view",
      "type": "function"
    },
    {
      "constant": false,
      "inputs": [
        {
          "name": "flag",
          "type": "bool"
        }
      ],
      "name": "kill",
      "outputs": [],
      "payable": false,
      "stateMutability": "nonpayable",
      "type": "function"
    },
    {
      "constant": true,
      "inputs": [],
      "name": "getSponsor",
      "outputs": [
        {
          "name": "",
          "type": "string"
        },
        {
          "name": "",
          "type": "string"
        },
        {
          "name": "",
          "type": "string"
        },
        {
          "name": "",
          "type": "uint256"
        },
        {
          "name": "",
          "type": "uint256"
        }
      ],
      "payable": false,
      "stateMutability": "view",
      "type": "function"
    },
    {
      "constant": true,
      "inputs": [],
      "name": "getDuration",
      "outputs": [
        {
          "name": "",
          "type": "uint256"
        }
      ],
      "payable": false,
      "stateMutability": "view",
      "type": "function"
    },
    {
      "constant": true,
      "inputs": [],
      "name": "getDeadTime",
      "outputs": [
        {
          "name": "",
          "type": "uint256"
        }
      ],
      "payable": false,
      "stateMutability": "view",
      "type": "function"
    },
    {
      "constant": false,
      "inputs": [
        {
          "name": "_duration",
          "type": "uint256"
        },
        {
          "name": "_startTime",
          "type": "uint64"
        }
      ],
      "name": "calculateDeadTime",
      "outputs": [
        {
          "name": "",
          "type": "uint256"
        }
      ],
      "payable": false,
      "stateMutability": "nonpayable",
      "type": "function"
    }
  ],
  "bytecode": "0x60806040523480156200001157600080fd5b5060405162001389380380620013898339810180604052810190808051820192919060200180518201929190602001805182019291906020018051906020019092919080519060200190929190505050336000806101000a81548173ffffffffffffffffffffffffffffffffffffffff021916908373ffffffffffffffffffffffffffffffffffffffff1602179055508460019080519060200190620000b9929190620001ae565b508360029080519060200190620000d2929190620001ae565b508260039080519060200190620000eb929190620001ae565b5042600460016101000a81548167ffffffffffffffff021916908367ffffffffffffffff1602179055508160028111156200012257fe5b600460006101000a81548160ff021916908360028111156200014057fe5b0217905550806005819055506200017d81600460019054906101000a900467ffffffffffffffff166200018e640100000000026401000000009004565b60068190555050505050506200025d565b60008167ffffffffffffffff168301600681905550600654905092915050565b828054600181600116156101000203166002900490600052602060002090601f016020900481019282601f10620001f157805160ff191683800117855562000222565b8280016001018555821562000222579182015b828111156200022157825182559160200191906001019062000204565b5b50905062000231919062000235565b5090565b6200025a91905b80821115620002565760008160009055506001016200023c565b5090565b90565b61111c806200026d6000396000f3006080604052600436106100e6576000357c0100000000000000000000000000000000000000000000000000000000900463ffffffff16806317d7de7c146100eb5780631e2c74f61461017b5780631ed83fd4146101aa578063252498a214610213578063447f69e61461027c578063715018a6146102d15780637eb0e5e5146102e8578063893d20e8146103135780638da5cb5b1461036a578063ad2e8c9b146103c1578063c47f0027146103ec578063d13319c414610455578063d6bd8727146104e5578063f115267714610575578063f2fde38b146106eb578063fde081741461072e575b600080fd5b3480156100f757600080fd5b50610100610759565b6040518080602001828103825283818151815260200191508051906020019080838360005b83811015610140578082015181840152602081019050610125565b50505050905090810190601f16801561016d5780820380516001836020036101000a031916815260200191505b509250505060405180910390f35b34801561018757600080fd5b506101a86004803603810190808035151590602001909291905050506107fb565b005b3480156101b657600080fd5b50610211600480360381019080803590602001908201803590602001908080601f016020809104026020016040519081016040528093929190818152602001838380828437820191505050505050919291929050505061089c565b005b34801561021f57600080fd5b5061027a600480360381019080803590602001908201803590602001908080601f0160208091040260200160405190810160405280939291908181526020018383808284378201915050505050509192919290505050610911565b005b34801561028857600080fd5b506102bb60048036038101908080359060200190929190803567ffffffffffffffff169060200190929190505050610986565b6040518082815260200191505060405180910390f35b3480156102dd57600080fd5b506102e66109a6565b005b3480156102f457600080fd5b506102fd610aa8565b6040518082815260200191505060405180910390f35b34801561031f57600080fd5b50610328610ab2565b604051808273ffffffffffffffffffffffffffffffffffffffff1673ffffffffffffffffffffffffffffffffffffffff16815260200191505060405180910390f35b34801561037657600080fd5b5061037f610adb565b604051808273ffffffffffffffffffffffffffffffffffffffff1673ffffffffffffffffffffffffffffffffffffffff16815260200191505060405180910390f35b3480156103cd57600080fd5b506103d6610b00565b6040518082815260200191505060405180910390f35b3480156103f857600080fd5b50610453600480360381019080803590602001908201803590602001908080601f0160208091040260200160405190810160405280939291908181526020018383808284378201915050505050509192919290505050610b0a565b005b34801561046157600080fd5b5061046a610b7f565b6040518080602001828103825283818151815260200191508051906020019080838360005b838110156104aa57808201518184015260208101905061048f565b50505050905090810190601f1680156104d75780820380516001836020036101000a031916815260200191505b509250505060405180910390f35b3480156104f157600080fd5b506104fa610c21565b6040518080602001828103825283818151815260200191508051906020019080838360005b8381101561053a57808201518184015260208101905061051f565b50505050905090810190601f1680156105675780820380516001836020036101000a031916815260200191505b509250505060405180910390f35b34801561058157600080fd5b5061058a610cc3565b60405180806020018060200180602001868152602001858152602001848103845289818151815260200191508051906020019080838360005b838110156105de5780820151818401526020810190506105c3565b50505050905090810190601f16801561060b5780820380516001836020036101000a031916815260200191505b50848103835288818151815260200191508051906020019080838360005b83811015610644578082015181840152602081019050610629565b50505050905090810190601f1680156106715780820380516001836020036101000a031916815260200191505b50848103825287818151815260200191508051906020019080838360005b838110156106aa57808201518184015260208101905061068f565b50505050905090810190601f1680156106d75780820380516001836020036101000a031916815260200191505b509850505050505050505060405180910390f35b3480156106f757600080fd5b5061072c600480360381019080803573ffffffffffffffffffffffffffffffffffffffff169060200190929190505050610ed4565b005b34801561073a57600080fd5b50610743611029565b6040518082815260200191505060405180910390f35b606060018054600181600116156101000203166002900480601f0160208091040260200160405190810160405280929190818152602001828054600181600116156101000203166002900480156107f15780601f106107c6576101008083540402835291602001916107f1565b820191906000526020600020905b8154815290600101906020018083116107d457829003601f168201915b5050505050905090565b6000809054906101000a900473ffffffffffffffffffffffffffffffffffffffff1673ffffffffffffffffffffffffffffffffffffffff163373ffffffffffffffffffffffffffffffffffffffff1614151561085657600080fd5b80151561086257600080fd5b6000809054906101000a900473ffffffffffffffffffffffffffffffffffffffff1673ffffffffffffffffffffffffffffffffffffffff16ff5b6000809054906101000a900473ffffffffffffffffffffffffffffffffffffffff1673ffffffffffffffffffffffffffffffffffffffff163373ffffffffffffffffffffffffffffffffffffffff161415156108f757600080fd5b806003908051906020019061090d92919061104b565b5050565b6000809054906101000a900473ffffffffffffffffffffffffffffffffffffffff1673ffffffffffffffffffffffffffffffffffffffff163373ffffffffffffffffffffffffffffffffffffffff1614151561096c57600080fd5b806002908051906020019061098292919061104b565b5050565b60008167ffffffffffffffff168301600681905550600654905092915050565b6000809054906101000a900473ffffffffffffffffffffffffffffffffffffffff1673ffffffffffffffffffffffffffffffffffffffff163373ffffffffffffffffffffffffffffffffffffffff16141515610a0157600080fd5b6000809054906101000a900473ffffffffffffffffffffffffffffffffffffffff1673ffffffffffffffffffffffffffffffffffffffff167ff8df31144d9c2f0f6b59d69b8b98abd5459d07f2742c4df920b25aae33c6482060405160405180910390a260008060006101000a81548173ffffffffffffffffffffffffffffffffffffffff021916908373ffffffffffffffffffffffffffffffffffffffff160217905550565b6000600654905090565b60008060009054906101000a900473ffffffffffffffffffffffffffffffffffffffff16905090565b6000809054906101000a900473ffffffffffffffffffffffffffffffffffffffff1681565b6000600554905090565b6000809054906101000a900473ffffffffffffffffffffffffffffffffffffffff1673ffffffffffffffffffffffffffffffffffffffff163373ffffffffffffffffffffffffffffffffffffffff16141515610b6557600080fd5b8060019080519060200190610b7b92919061104b565b5050565b606060038054600181600116156101000203166002900480601f016020809104026020016040519081016040528092919081815260200182805460018160011615610100020316600290048015610c175780601f10610bec57610100808354040283529160200191610c17565b820191906000526020600020905b815481529060010190602001808311610bfa57829003601f168201915b5050505050905090565b606060028054600181600116156101000203166002900480601f016020809104026020016040519081016040528092919081815260200182805460018160011615610100020316600290048015610cb95780601f10610c8e57610100808354040283529160200191610cb9565b820191906000526020600020905b815481529060010190602001808311610c9c57829003601f168201915b5050505050905090565b6060806060600080600160026003600460009054906101000a900460ff166002811115610cec57fe5b600554848054600181600116156101000203166002900480601f016020809104026020016040519081016040528092919081815260200182805460018160011615610100020316600290048015610d845780601f10610d5957610100808354040283529160200191610d84565b820191906000526020600020905b815481529060010190602001808311610d6757829003601f168201915b50505050509450838054600181600116156101000203166002900480601f016020809104026020016040519081016040528092919081815260200182805460018160011615610100020316600290048015610e205780601f10610df557610100808354040283529160200191610e20565b820191906000526020600020905b815481529060010190602001808311610e0357829003601f168201915b50505050509350828054600181600116156101000203166002900480601f016020809104026020016040519081016040528092919081815260200182805460018160011615610100020316600290048015610ebc5780601f10610e9157610100808354040283529160200191610ebc565b820191906000526020600020905b815481529060010190602001808311610e9f57829003601f168201915b50505050509250945094509450945094509091929394565b6000809054906101000a900473ffffffffffffffffffffffffffffffffffffffff1673ffffffffffffffffffffffffffffffffffffffff163373ffffffffffffffffffffffffffffffffffffffff16141515610f2f57600080fd5b600073ffffffffffffffffffffffffffffffffffffffff168173ffffffffffffffffffffffffffffffffffffffff1614151515610f6b57600080fd5b8073ffffffffffffffffffffffffffffffffffffffff166000809054906101000a900473ffffffffffffffffffffffffffffffffffffffff1673ffffffffffffffffffffffffffffffffffffffff167f8be0079c531659141344cd1fd0a4f28419497f9722a3daafe3b4186f6b6457e060405160405180910390a3806000806101000a81548173ffffffffffffffffffffffffffffffffffffffff021916908373ffffffffffffffffffffffffffffffffffffffff16021790555050565b6000600460009054906101000a900460ff16600281111561104657fe5b905090565b828054600181600116156101000203166002900490600052602060002090601f016020900481019282601f1061108c57805160ff19168380011785556110ba565b828001600101855582156110ba579182015b828111156110b957825182559160200191906001019061109e565b5b5090506110c791906110cb565b5090565b6110ed91905b808211156110e95760008160009055506001016110d1565b5090565b905600a165627a7a72305820cbf6ef27c52ef792a398b094af2d2db1fc1a34bed6b7d36661b3d1bbad4a71250029",
  "source": "pragma solidity >=0.4.22 < 0.6.0;\n\nimport \"./Ownable.sol\";\n\ncontract Sponsor is Ownable {\n\n    enum Role {Gold, Bronze, Silver}\n\n    string name;\n    string url;\n    string imageHash;\n    Role role;\n    uint64 startTime;\n    uint duration;\n    uint deadTime;\n\n\n    constructor(string _name, string _url, string _imageHash, uint _type, uint _duration) public\n    {\n        name = _name;\n        url = _url;\n        imageHash = _imageHash;\n        startTime = uint64(now);\n        role = Role(_type);\n        duration = _duration;\n        deadTime = calculateDeadTime(_duration, startTime);\n\n    }\n\n    function setUrl(string _url) public onlyOwner {\n        url = _url;\n    }\n\n    function getUrl() public view returns (string){\n        return url;\n    }\n\n    function setHash(string _imageHash) public onlyOwner {\n        imageHash = _imageHash;\n    }\n\n    function getHash() public view returns (string){\n        return imageHash;\n    }\n\n    function setName(string _name) public onlyOwner {\n        name = _name;\n    }\n\n    function getName() public view returns (string){\n        return name;\n    }\n\n    function getRole() public view returns (uint){\n        return uint(role);\n    }\n\n    function kill(bool flag) public onlyOwner {\n        require(flag);\n        selfdestruct(owner);\n    }\n\n    function getSponsor() public view returns (string, string, string,uint, uint){\n        return (name, url, imageHash,uint(role), duration);\n    }\n\n    function getDuration() public view returns (uint){\n        return duration;\n    }\n\n    function getDeadTime() public view returns (uint){\n        return deadTime;\n\n    }\n\n    function calculateDeadTime(uint _duration, uint64 _startTime) public returns (uint)\n    {\n        deadTime = _duration + _startTime;\n        return deadTime;\n    }\n}\n",
  "sourcePath": "/Users/fotercim/Desktop/adhereum/contracts/Sponsor.sol",
  "compiler": {
    "name": "solc",
    "version": "0.4.24+commit.e67f0147.Emscripten.clang"
  },
  "schemaVersion": "2.0.1",
  "updatedAt": "2018-12-02T21:33:40.214Z"
}